:020000040800F2
:1000000000000220850D0008790B0008810B000814
:10001000890B0008910B0008990B000800000000F4
:10002000000000000000000000000000A10B00081C
:10003000AF0B000800000000BD0B0008CB0B000850
:10004000D50D0008D50D0008D50D0008D50D000808
:10005000D50D0008D50D0008D50D0008D50D0008F8
:10006000D50D0008D50D0008D50D0008D50D0008E8
:10007000D50D0008D50D0008D50D0008D50D0008D8
:10008000D50D0008D50D0008D50D0008D50D0008C8
:10009000D50D0008D50D0008D50D0008D50D0008B8
:1000A000D50D0008D50D0008D50D0008D50D0008A8
:1000B000D90B0008D50D0008D50D0008D50D000896
:1000C000D50D0008D50D0008D50D0008D50D000888
:1000D000D50D0008D50D0008D50D0008D50D000878
:1000E000D50D0008D50D0008D50D0008D50D000868
:1000F000D50D0008D50D0008D50D0008D50D000858
:10010000D50D0008D50D0008D50D0008D50D000847
:10011000D50D0008D50D0008D50D0008D50D000837
:10012000D50D0008D50D0008D50D0008D50D000827
:10013000D50D0008D50D0008D50D0008D50D000817
:10014000D50D0008D50D0008D50D0008D50D000807
:10015000D50D0008D50D0008D50D0008D50D0008F7
:10016000D50D0008D50D0008D50D0008D50D0008E7
:10017000D50D0008D50D0008D50D000800000000C1
:08018000D50D0008D50D0008A3
:1001880010B5054C237833B9044B13B10448AFF3C9
:1001980000800123237010BD0C0000200000000027
:1001A8004C26000808B5034B1BB103490348AFF3BD
:1001B800008008BD00000000100000204C26000848
:1001C80053B94AB9002908BF00281CBF4FF0FF31B6
:1001D8004FF0FF3000F088B9ADF1080C6DE904CE9E
:1001E80000F006F8DDF804E0DDE9022304B070470A
:1001F8002DE9F047089D8E4604468846002B4AD1D3
:100208008A42174662D9B2FA82F64EB1C6F1200385
:1002180001FA06F820FA03F3B74043EA0808B440A5
:100228004FEA174E1FFA87FCB8FBFEF1230C0EFBB2
:10023800118843EA084301FB0CF29A4209D9FB18DA
:1002480001F1FF3080F0EA809A4240F2E7800239FB
:100258003B449A1AA3B2B2FBFEF00EFB102243EA0B
:10026800024300FB0CFC9C4509D9FB1800F1FF3246
:1002780080F0D6809C4540F2D3803B44023840EA67
:100288000140A3EB0C0300211DB1F3400022C5E996
:100298000032BDE8F0878B4205D90DB1C5E90001F0
:1002A80000210846F5E7B3FA83F1002946D17345E2
:1002B80002D3824200F20581841A6EEB0302012008
:1002C8009046002DE5D0C5E90048E2E7002A00F095
:1002D8009080B2FA82F6002E40F0A4808A1A030CAD
:1002E8004FEA174E80B2BCB20121B2FBFEFC0EFBF6
:1002F8001C2243EA024304FB0CF29A4207D9FB187A
:100308000CF1FF3802D29A4200F2E080C4469B1AF0
:10031800B3FBFEF20EFB123340EA034302FB04F484
:100328009C4207D9FB1802F1FF3002D29C4200F22E
:10033800CA8002461B1B42EA0C40A5E7C1F1200611
:100348008B4022FA06F71F430EFA01F420FA06F34F
:100358002EFA06FE4FEA1749234300FA01F81FFA5E
:1003680087FCBEFBF9F01C0C09FB10EE44EA0E44B6
:1003780000FB0CFEA64502FA01F209D93C1900F16E
:10038800FF3A80F09C80A64540F2998002383C44B0
:10039800A4EB0E041FFA83FEB4FBF9F309FB134424
:1003A8004EEA044403FB0CFCA44508D93C1903F1AC
:1003B800FF3E80F08280A4457FD9023B3C4443EA5B
:1003C8000040A4EB0C04A0FB02EC64457346E14634
:1003D80062D35FD05DB1B8EB030264EB090404FAA1
:1003E80006F622FA01F31E43CC40C5E90064002159
:1003F8004FE7B1FBF2FC010C41EA0E4180B240EA42
:1004080001423B4638463C46B846BE462026B1FB2C
:10041800F7F1A2EB080241EA0C4166E7014618E74A
:1004280010462CE7C6F120022EFA02F3B740B1407D
:1004380020FA02F24FEA174E0A43B3FBFEF8BCB2A9
:100448000EFB1833110C41EA034108FB04F9B040D4
:1004580089454FEA104380B23ED9791808F1FF3C2C
:1004680001D289451FD8A1EB0901B1FBFEF909FBAF
:1004780004F80EFB191192B242EA0142424529D210
:10048800BA1809F1FF31C4D24245C2D2A9F102011A
:100498003A44BEE7F0459DD2BEEB02036CEB070C75
:1004A8000138E14696E7A7EB09094944A8F1020C8F
:1004B800B1FBFEF909FB04F8DBE773467FE750461A
:1004C80066E70846FDE63B44023A33E7ACF1020C26
:1004D8003B441CE749469CE7A1EB0901C446B1FB34
:1004E800FEF909FB04F8C4E7704700BF80B500AF08
:1004F80001224FF48041084800F08AFF00224FF49F
:100508000051054800F084FF00224FF48051024852
:1005180000F07EFF00BF80BD000C024080B500AF38
:1005280000224FF48041084800F072FF01224FF486
:100538000051054800F06CFF00224FF4805102483A
:1005480000F066FF00BF80BD000C024080B500AF20
:1005580000224FF48041084800F05AFF00224FF46F
:100568000051054800F054FF01224FF48051024821
:1005780000F04EFF00BF80BD000C024080B500AF08
:1005880001224FF48041084800F042FF01224FF455
:100598000051054800F03CFF01224FF48051024809
:1005A80000F036FF00BF80BD000C024080B500AFF0
:1005B800054B01221A7041F2883000F025FBFFF745
:1005C80095FF00BF80BD00BF2800002080B500AFA8
:1005D8001F4B1B78032B22D0032B2EDC012B02D0C0
:1005E800022B0ED029E01B4B1B78012B28D1184B6E
:1005F80003221A70FFF7AAFF40F6B83000F004FB98
:100608001EE0144B1B78012B1CD1114B01221A70D0
:10061800FFF76CFF41F2883000F0F6FA12E00D4B5C
:100628001B78012B10D10A4B02221A70FFF776FFB4
:100638004FF47A7000F0E8FA06E0FFF79FFF04E055
:1006480000BF02E000BF00E000BF00BF80BD00BFE8
:10065800280000207400002080B500AF00F0B8FB2F
:1006680000F00EF800F0C2F800F074F8034801F04A
:100678009DFBFFF79BFFFFF7A9FFFCE72C0000207D
:1006880080B594B000AF07F120033022002118464E
:1006980001F0ACFF07F10C0300221A605A609A605F
:1006A800DA601A610023BB60284B1B6C274A43F0B1
:1006B80080531364254B1B6C03F08053BB60BB68ED
:1006C80000237B60224B1B68214A43F4804313605C
:1006D8001F4B1B6803F480437B607B6802233B62EB
:1006E8000123FB6210233B630223BB630023FB63EC
:1006F80008233B64A8237B640223BB640723FB64B1
:1007080007F12003184600F09DFE0346002B01D098
:1007180000F0DAF90F23FB6002233B6100237B61C1
:100728004FF4A053BB614FF4A053FB6107F10C03D6
:100738000521184601F0FEF80346002B01D000F011
:10074800C3F900BF5037BD4680BD00BF0038024026
:100758000070004080B586B000AF07F108030022A2
:100768001A605A609A60DA603B4600221A605A6042
:100778001D4B4FF080421A601B4B40F247325A60C3
:10078800194B00229A60184B6322DA60164B00223C
:100798001A61154B00229A61134801F0B7FA034613
:1007A800002B01D000F090F94FF48053BB6007F1A3
:1007B800080319460C4801F059FC0346002B01D0E8
:1007C80000F082F900233B6000237B603B4619461A
:1007D800054801F07BFE0346002B01D000F074F9B8
:1007E80000BF1837BD4680BD2C00002080B58CB0F6
:1007F80000AF07F11C0300221A605A609A60DA60A1
:100808001A610023BB61AA4B1B6BA94A43F0100372
:100818001363A74B1B6B03F01003BB61BB69002379
:100828007B61A34B1B6BA24A43F004031363A04BE9
:100838001B6B03F004037B617B6900233B619C4BCA
:100848001B6B9B4A43F080031363994B1B6B03F0AC
:1008580080033B613B690023FB60954B1B6B944A0B
:1008680043F001031363924B1B6B03F00103FB601E
:10087800FB680023BB608E4B1B6B8D4A43F0020361
:1008880013638B4B1B6B03F00203BB60BB68002335
:100898007B60874B1B6B864A43F008031363844BCA
:1008A8001B6B03F008037B607B68002247F208019A
:1008B800804800F0ADFD012201217F4800F0A8FD2D
:1008C80000224FF210017D4800F0A2FD0823FB61D1
:1008D80001233B6200237B620023BB6207F11C03F8
:1008E8001946744800F0F8FB4FF4E043FB6101231C
:1008F8003B6201237B620023BB6207F11C0319469C
:100908006C4800F0E9FB0123FB6101233B620023F3
:100918007B620023BB6207F11C031946664800F09E
:10092800DBFB0823FB6102233B6200237B6200237D
:10093800BB620523FB6207F11C0319465E4800F001
:10094800CBFB0123FB614FF488133B6200237B62DE
:1009580007F11C0319465A4800F0BEFB1023FB613F
:1009680002233B6200237B620023BB620623FB62F7
:1009780007F11C031946524800F0AEFBE023FB6167
:1009880002233B6200237B620023BB620523FB62D8
:1009980007F11C0319464A4800F09EFB0423FB613B
:1009A80000233B6200237B6207F11C03194645487C
:1009B80000F092FB4FF48063FB6102233B6200234B
:1009C8007B620023BB620523FB6207F11C03194607
:1009D8003C4800F081FB4FF21003FB6101233B62AE
:1009E80000237B620023BB6207F11C0319463348CE
:1009F80000F072FB4FF4A453FB6102233B62002317
:100A08007B620023BB620623FB6207F11C031946C5
:100A1800294800F061FB4FF40073FB6100233B623F
:100A280000237B6207F11C031946254800F054FB9C
:100A38004FF4E053FB6102233B6200237B620023F7
:100A4800BB620A23FB6207F11C0319461C4800F02D
:100A580043FB2023FB6100233B6200237B6207F1F9
:100A68001C031946154800F037FB4FF41073FB615F
:100A780012233B6200237B620023BB620423FB62D8
:100A880007F11C0319460F4800F026FB0223FB61FF
:100A98004FF490133B6200237B6207F11C03194655
:100AA800044800F019FB00BF3037BD4680BD00BFC9
:100AB800003802400010024000080240000C0240CA
:100AC800000002400004024080B400AF72B600BFCC
:100AD80000BFFDE780B582B000AF00237B60104BFC
:100AE8005B6C0F4A43F4804353640D4B5B6C03F417
:100AF80080437B607B6800233B60094B1B6C084A82
:100B080043F080531364064B1B6C03F080533B6027
:100B18003B68072000F09EFA00BF0837BD4680BD3D
:100B28000038024080B584B000AF78607B681B68ED
:100B3800B3F1804F15D10023FB600C4B1B6C0B4AA3
:100B480043F001031364094B1B6C03F00103FB60C2
:100B5800FB68002200211C2000F087FA1C2000F00E
:100B6800A0FA00BF1037BD4680BD00BF0038024064
:100B780080B400AF00BFFDE780B400AF00BFFDE761
:100B880080B400AF00BFFDE780B400AF00BFFDE751
:100B980080B400AF00BFFDE780B400AF00BFBD4622
:100BA8005DF8047B704780B400AF00BFBD465DF8B8
:100BB800047B704780B400AF00BFBD465DF8047B7E
:100BC800704780B500AF00F055F900BF80BD000048
:100BD80080B500AF024801F059F900BF80BD00BFE1
:100BE8002C00002080B400AF064BD3F88830054AAB
:100BF80043F47003C2F8883000BFBD465DF8047B3B
:100C0800704700BF00ED00E080B483B000AF03463A
:100C1800FB80064AFB881380054B00221A7000BF30
:100C28000C37BD465DF8047B704700BF7A00002092
:100C38007400002080B400AF0A4B1B88002B0CD036
:100C4800084B1B88013B9AB2064B1A80054B1B8840
:100C5800002B02D1044B01221A7000BFBD465DF87B
:100C6800047B70477A0000207400002080B400AF35
:100C78000A4B1B88002B0CD0084B1B88013B9AB2EF
:100C8800064B1A80054B1B88002B02D1044B01220E
:100C98001A7000BFBD465DF8047B70477C000020D9
:100CA8007500002080B400AF0A4B1B88002B0CD0C5
:100CB800084B1B88013B9AB2064B1A80054B1B88D0
:100CC800002B02D1044B01221A7000BFBD465DF80B
:100CD800047B70477E0000207600002080B400AFBF
:100CE8000A4B1B88002B0CD0084B1B88013B9AB27F
:100CF800064B1A80054B1B88002B02D1044B01229E
:100D08001A7000BFBD465DF8047B70478000002064
:100D18007700002080B400AF0A4B1B88002B0CD052
:100D2800084B1B88013B9AB2064B1A80054B1B885F
:100D3800002B02D1044B01221A7000BFBD465DF89A
:100D4800047B7047820000207800002080B582B0C4
:100D580000AF78607B681B68B3F1804F09D1FFF75B
:100D680069FFFFF783FFFFF79DFFFFF7B7FFFFF767
:100D7800D1FF00BF0837BD4680BD0000DFF834D082
:100D8800FFF730FF0C480D490D4A002302E0D45804
:100D9800C4500433C4188C42F9D30A4A0A4C0023BD
:100DA80001E013600432A242FBD301F027FCFFF7F5
:100DB80053FC704700000220000000200C000020B7
:100DC800842600080C00002088000020FEE70000B0
:100DD80080B500AF0E4B1B680D4A43F400731360D7
:100DE8000B4B1B680A4A43F480631360084B1B686B
:100DF800074A43F480731360032000F02BF90020A6
:100E080000F008F8FFF766FE0023184680BD00BF13
:100E1800003C024080B582B000AF7860124B1A687F
:100E2800124B1B7819464FF47A73B3FBF1F3B2FBFC
:100E3800F3F3184600F043F90346002B01D00123D1
:100E48000EE07B680F2B0AD8002279684FF0FF303C
:100E580000F00BF9064A7B681360002300E00123C9
:100E680018460837BD4680BD000000200800002055
:100E78000400002080B400AF064B1B781A46064BCE
:100E88001B681344044A136000BFBD465DF8047B29
:100E9800704700BF080000208400002080B400AF25
:100EA800034B1B681846BD465DF8047B704700BFBE
:100EB8008400002080B485B000AF78607B6803F0C0
:100EC8000703FB600C4BDB68BB60BA684FF6FF0397
:100ED8001340BB60FB681A02BB68134343F0BF634F
:100EE80043F40033BB60044ABB68D36000BF1437C7
:100EF800BD465DF8047B704700ED00E080B400AFAC
:100F0800044BDB681B0A03F007031846BD465DF86F
:100F1800047B704700ED00E080B483B000AF034667
:100F2800FB7197F90730002B0BDBFB7903F01F02ED
:100F3800074997F907305B09012000FA02F241F8E6
:100F4800232000BF0C37BD465DF8047B704700BF07
:100F580000E100E080B483B000AF03463960FB7164
:100F680097F90730002B0ADB3B68DAB20C4997F98E
:100F780007301201D2B20B4483F800230AE03B6821
:100F8800DAB20849FB7903F00F03043B1201D2B22D
:100F98000B441A7600BF0C37BD465DF8047B7047DA
:100FA80000E100E000ED00E080B489B000AFF86037
:100FB800B9607A60FB6803F00703FB61FB69C3F162
:100FC8000703042B28BF0423BB61FB690433062BEA
:100FD80002D9FB69033B00E000237B614FF0FF323D
:100FE800BB6902FA03F3DA43BB681A407B699A408B
:100FF8004FF0FF317B6901FA03F3D9437B680B405B
:10100800134318462437BD465DF8047B704700003B
:1010180080B582B000AF78607B68013BB3F1807F18
:1010280001D301230FE00A4A7B68013B53600F217B
:101038004FF0FF30FFF78EFF054B00229A60044BFC
:1010480007221A60002318460837BD4680BD00BF36
:1010580010E000E080B582B000AF78607868FFF7F4
:1010680029FF00BF0837BD4680BD80B586B000AFF8
:101078000346B9607A60FB7300237B61FFF73EFF8C
:1010880078617A68B9687869FFF78EFF024697F940
:101098000F3011461846FFF75DFF00BF1837BD46F1
:1010A80080BD80B582B000AF0346FB7197F9073069
:1010B8001846FFF731FF00BF0837BD4680BD80B531
:1010C80082B000AF78607868FFF7A2FF0346184641
:1010D8000837BD4680BD000080B489B000AF786095
:1010E800396000237B6100233B610023BB6100233F
:1010F800FB616BE10122FB6902FA03F37B613B6848
:101108001B687A6913403B613A697B699A4240F0EF
:101118005A813B685B6803F00303012B05D03B68E9
:101128005B6803F00303022B30D17B689B68BB61CB
:10113800FB695B00032202FA03F3DB43BA6913403D
:10114800BB613B68DA68FB695B0002FA03F3BA69C2
:101158001343BB617B68BA699A607B685B68BB6153
:101168000122FB6902FA03F3DB43BA691340BB614E
:101178003B685B681B0903F00102FB6902FA03F391
:10118800BA691343BB617B68BA695A603B685B689C
:1011980003F00303032B17D07B68DB68BB61FB6993
:1011A8005B00032202FA03F3DB43BA691340BB6115
:1011B8003B689A68FB695B0002FA03F3BA69134358
:1011C800BB617B68BA69DA603B685B6803F003035C
:1011D800022B23D1FB69DA087B68083253F82230E6
:1011E800BB61FB6903F007039B000F2202FA03F3BC
:1011F800DB43BA691340BB613B681A69FB6903F0BA
:1012080007039B0002FA03F3BA691343BB61FB6946
:10121800DA087B680832B96943F822107B681B68D2
:10122800BB61FB695B00032202FA03F3DB43BA6983
:101238001340BB613B685B6803F00302FB695B001A
:1012480002FA03F3BA691343BB617B68BA691A608F
:101258003B685B6803F44033002B00F0B480002344
:10126800FB60604B5B6C5F4A43F4804353645D4BA7
:101278005B6C03F48043FB60FB685B4AFB699B087B
:10128800023352F82330BB61FB6903F003039B0070
:101298000F2202FA03F3DB43BA691340BB617B6890
:1012A800524A93422BD07B68514A934225D07B689F
:1012B800504A93421FD07B684F4A934219D07B68AB
:1012C8004E4A934213D07B684D4A93420DD07B68B7
:1012D8004C4A934207D07B684B4A934201D107237B
:1012E8000EE008230CE006230AE0052308E00423A7
:1012F80006E0032304E0022302E0012300E00023C8
:10130800FA6902F0030292009340BA691343BB6181
:101318003549FB699B080233BA6941F823203B4BE6
:101328009B68BB613B69DB43BA691340BB613B689F
:101338005B6803F48013002B03D0BA693B6913433D
:10134800BB61324ABB699360304BDB68BB613B6968
:10135800DB43BA691340BB613B685B6803F4001365
:10136800002B03D0BA693B691343BB61274ABB69A9
:10137800D360264B5B68BB613B69DB43BA691340AA
:10138800BB613B685B6803F40033002B03D0BA6988
:101398003B691343BB611D4ABB6953601B4B1B6808
:1013A800BB613B69DB43BA691340BB613B685B685F
:1013B80003F48033002B03D0BA693B691343BB6144
:1013C800124ABB691360FB690133FB61FB690F2B90
:1013D8007FF690AE00BF00BF2437BD465DF8047BA2
:1013E800704700BF0038024000380140000002404A
:1013F8000004024000080240000C024000100240B5
:101408000014024000180240001C0240003C014049
:1014180080B483B000AF78600B467B8013467B7046
:101428007B78002B03D07A887B689A6103E07B88FD
:101438001A047B689A6100BF0C37BD465DF8047BCF
:101448007047000080B586B000AF78607B68002BDD
:1014580001D1012367E27B681B6803F00103002BBD
:1014680075D0884B9B6803F00C03042B0CD0854B7C
:101478009B6803F00C03082B12D1824B5B6803F4C2
:101488008003B3F5800F0BD17E4B1B6803F4003348
:10149800002B5BD07B685B68002B57D1012342E2AD
:1014A8007B685B68B3F5803F06D1764B1B68754A4D
:1014B80043F4803313601DE07B685B68B3F5A02FAD
:1014C8000CD1704B1B686F4A43F4802313606D4B3B
:1014D8001B686C4A43F4803313600BE0694B1B684C
:1014E800684A23F480331360664B1B68654A23F40B
:1014F800802313607B685B68002B13D0FFF7CEFC5A
:10150800386108E0FFF7CAFC02463B69D31A642B2E
:1015180001D9032307E25B4B1B6803F40033002B5C
:10152800F0D014E0FFF7BAFC386108E0FFF7B6FC2A
:1015380002463B69D31A642B01D90323F3E1514BCB
:101548001B6803F40033002BF0D100E000BF7B6878
:101558001B6803F00203002B63D04A4B9B6803F01F
:101568000C03002B0BD0474B9B6803F00C03082B94
:101578001CD1444B5B6803F48003002B16D1414B0C
:101588001B6803F00203002B05D07B68DB68012B86
:1015980001D00123C7E13B4B1B6823F0F8027B68AD
:1015A8001B69DB00374913430B603AE07B68DB6853
:1015B800002B20D0344B01221A60FFF76FFC3861F2
:1015C80008E0FFF76BFC02463B69D31A022B01D9EE
:1015D8000323A8E12B4B1B6803F00203002BF0D078
:1015E800284B1B6823F0F8027B681B69DB00254940
:1015F80013430B6015E0244B00221A60FFF74EFCE2
:10160800386108E0FFF74AFC02463B69D31A022B0F
:1016180001D9032387E11B4B1B6803F00203002B4E
:10162800F0D17B681B6803F00803002B36D07B6879
:101638005B69002B16D0154B01221A60FFF72EFCB0
:10164800386108E0FFF72AFC02463B69D31A022BEF
:1016580001D9032367E10B4B5B6F03F00203002BF7
:10166800F0D01BE0094B00221A60FFF717FC386125
:101678000EE0FFF713FC02463B69D31A022B07D989
:10168800032350E10038024000004742800E4742E1
:10169800884B5B6F03F00203002BEAD17B681B6861
:1016A80003F00403002B00F097800023FB75814BA7
:1016B8001B6C03F08053002B0FD10023BB607D4BC4
:1016C8001B6C7C4A43F0805313647A4B1B6C03F009
:1016D8008053BB60BB680123FB75774B1B6803F421
:1016E8008073002B18D1744B1B68734A43F48073C2
:1016F8001360FFF7D3FB386108E0FFF7CFFB024622
:101708003B69D31A022B01D903230CE16A4B1B68EE
:1017180003F48073002BF0D07B689B68012B06D103
:10172800644B1B6F634A43F0010313671CE07B683B
:101738009B68052B0CD15F4B1B6F5E4A43F004037B
:1017480013675C4B1B6F5B4A43F0010313670BE0A5
:10175800584B1B6F574A23F001031367554B1B6FF8
:10176800544A23F0040313677B689B68002B15D049
:10177800FFF794FB38610AE0FFF790FB02463B69EC
:10178800D31A41F28832934201D90323CBE0494B63
:101798001B6F03F00203002BEED014E0FFF77EFB73
:1017A80038610AE0FFF77AFB02463B69D31A41F237
:1017B8008832934201D90323B5E03E4B1B6F03F0F7
:1017C8000203002BEED1FB7D012B05D1394B1B6C9D
:1017D800384A23F0805313647B689B69002B00F020
:1017E800A180344B9B6803F00C03082B5CD07B680A
:1017F8009B69022B41D1314B00221A60FFF74EFB47
:10180800386108E0FFF74AFB02463B69D31A022B0E
:1018180001D9032387E0274B1B6803F00073002BD3
:10182800F0D17B68DA697B681B6A1A437B685B6A5C
:101838009B011A437B689B6A5B08013B1B041A43A4
:101848007B68DB6A1B061B4913434B601B4B012259
:101858001A60FFF723FB386108E0FFF71FFB024619
:101868003B69D31A022B01D903235CE0114B1B6897
:1018780003F00073002BF0D054E0104B00221A60E4
:10188800FFF70CFB386108E0FFF708FB02463B69ED
:10189800D31A022B01D9032345E0064B1B6803F03A
:1018A8000073002BF0D13DE07B689B69012B07D1C9
:1018B800012338E0003802400070004060004742D1
:1018C8001B4B5B68FB607B689B69012B28D0FB681E
:1018D80003F480027B68DB699A4221D1FB6803F03C
:1018E8003F027B681B6A9A421AD1FA6847F6C073AE
:1018F80013407A68526A9201934211D1FB6803F44B
:1019080040327B689B6A5B08013B1B049A4207D103
:10191800FB6803F070627B68DB6A1B069A4201D0A1
:10192800012300E0002318461837BD4680BD00BFDC
:101938000038024080B584B000AF786039607B68B9
:10194800002B01D10123CCE0684B1B6803F007038F
:101958003A689A420CD9654B3A68D2B21A70634B0E
:101968001B6803F007033A689A4201D00123B8E0E4
:101978007B681B6803F00203002B20D07B681B6880
:1019880003F00403002B05D0594B9B68584A43F4D5
:10199800E05393607B681B6803F00803002B05D0B5
:1019A800534B9B68524A43F460439360504B9B6887
:1019B80023F0F0027B689B684D4913438B607B687A
:1019C8001B6803F00103002B44D07B685B68012B84
:1019D80007D1474B1B6803F40033002B19D10123AF
:1019E8007FE07B685B68022B03D07B685B68032B16
:1019F80007D13F4B1B6803F00073002B09D101236B
:101A08006FE03B4B1B6803F00203002B01D101235D
:101A180067E0374B9B6823F003027B685B683449B7
:101A280013438B60FFF73AFAF8600AE0FFF736FADB
:101A38000246FB68D31A41F28832934201D9032344
:101A48004FE02B4B9B6803F00C027B685B689B00A4
:101A58009A42EBD1254B1B6803F007033A689A4278
:101A68000CD2224B3A68D2B21A70204B1B6803F092
:101A780007033A689A4201D0012332E07B681B6869
:101A880003F00403002B08D0194B9B6823F4E052A1
:101A98007B68DB68164913438B607B681B6803F01F
:101AA8000803002B09D0124B9B6823F460427B6823
:101AB8001B69DB000E4913438B6000F021F80246D6
:101AC8000B4B9B681B0903F00F030A49CB5C22FAF6
:101AD80003F3094A1360094B1B681846FFF79AF984
:101AE800002318461037BD4680BD00BF003C0240A9
:101AF800003802406426000800000020040000208E
:101B08002DE9B04F94B000AF00237B640023FB6441
:101B180000233B640023BB64794B9B6803F00C03F0
:101B2800082B0DD0082B00F2E180002B02D0042BEB
:101B380003D0DBE0734BBB64DBE0734BBB64D8E0E2
:101B48006F4B5B6803F03F037B646D4B5B6803F48A
:101B58008003002B63D06A4B5B689B090022BB6340
:101B6800FA63BB6BC3F308033B6300237B63D7E9CA
:101B78000C4522462B464FF000004FF0000159015A
:101B880041EAD261500102460B462146511A396199
:101B9800294663EB01037B614FF000024FF000031D
:101BA800D7E904AB59468B01514643EA9163514644
:101BB8008A015146B2EB0108594663EB01094FF01F
:101BC80000024FF000034FEAC90343EA58734FEA93
:101BD800C80290469946234618EB0303BB602B4680
:101BE80049EB0303FB604FF000024FF00003D7E915
:101BF800024529464B02214643EAD15321464A026F
:101C0800104619467B6C0022BB62FA62D7E90A23A8
:101C1800FEF7D6FA02460B461346FB6458E0384BEB
:101C28005B689B09002218461146C0F308033B6213
:101C380000237B62D7E9088942464B464FF00000F3
:101C48004FF00001590141EAD261500102460B46AA
:101C58004146B2EB010A494663EB010B4FF0000223
:101C68004FF000034FEA8B1343EA9A634FEA8A1254
:101C7800B2EB0A0463EB0B054FF000024FF00003D0
:101C8800EB0043EA5473E20014461D464346E3184A
:101C98003B604B4645EB03037B604FF000024FF07F
:101CA8000003D7E9004529468B02214643EA9153B0
:101CB80021468A02104619467B6C0022BB61FA61F4
:101CC800D7E90623FEF77CFA02460B461346FB6467
:101CD8000B4B5B681B0C03F0030301335B003B6495
:101CE800FA6C3B6CB2FBF3F3BB6402E0054BBB64DC
:101CF80000BFBB6C18465037BD46BDE8B08F00BF6B
:101D0800003802400024F40000127A0080B582B046
:101D180000AF78607B68002B01D1012341E07B682C
:101D280093F83D30DBB2002B06D17B68002283F8A4
:101D38003C207868FEF7F6FE7B68022283F83D2097
:101D48007B681A687B6804331946104600F07EFAEF
:101D58007B68012283F846207B68012283F83E20B5
:101D68007B68012283F83F207B68012283F84020AA
:101D78007B68012283F841207B68012283F8422096
:101D88007B68012283F843207B68012283F8442082
:101D98007B68012283F845207B68012283F83D2077
:101DA800002318460837BD4680BD000080B485B0C2
:101DB80000AF78607B6893F83D30DBB2012B01D02F
:101DC80001234EE07B68022283F83D207B681B6874
:101DD800DA687B681B6842F00102DA607B681B687E
:101DE800234A934222D07B681B68B3F1804F1DD0F1
:101DF8007B681B681F4A934218D07B681B681E4A81
:101E0800934213D07B681B681C4A93420ED07B68B0
:101E18001B681B4A934209D07B681B68194A934286
:101E280004D07B681B68184A934211D17B681B68F1
:101E38009B6803F00703FB60FB68062B10D07B68E8
:101E48001B681A687B681B6842F001021A6007E089
:101E58007B681B681A687B681B6842F001021A607D
:101E6800002318461437BD465DF8047B704700BF51
:101E7800000001400004004000080040000C004041
:101E880000040140004001400018004080B584B0C3
:101E980000AF78607B681B68DB68FB607B681B6849
:101EA8001B69BB60BB6803F00203002B20D0FB68F2
:101EB80003F00203002B1BD07B681B686FF0020243
:101EC8001A617B6801221A777B681B689B6903F09B
:101ED8000303002B03D0786800F099F905E07868CF
:101EE80000F08BF9786800F09CF97B6800221A777B
:101EF800BB6803F00403002B20D0FB6803F0040345
:101F0800002B1BD07B681B686FF004021A617B688A
:101F180002221A777B681B689B6903F44073002BC5
:101F280003D0786800F073F905E0786800F065F987
:101F3800786800F076F97B6800221A77BB6803F0AE
:101F48000803002B20D0FB6803F00803002B1BD0EC
:101F58007B681B686FF008021A617B6804221A7795
:101F68007B681B68DB6903F00303002B03D07868E8
:101F780000F04DF905E0786800F03FF9786800F066
:101F880050F97B6800221A77BB6803F01003002B16
:101F980020D0FB6803F01003002B1BD07B681B6864
:101FA8006FF010021A617B6808221A777B681B6839
:101FB800DB6903F44073002B03D0786800F027F93D
:101FC80005E0786800F019F9786800F02AF97B686C
:101FD80000221A77BB6803F00103002B0CD0FB68C2
:101FE80003F00103002B07D07B681B686FF0010228
:101FF8001A617868FEF7AAFEBB6803F08003002B1D
:102008000CD0FB6803F08003002B07D07B681B68AB
:102018006FF080021A61786800F0DEFABB6803F09E
:102028004003002B0CD0FB6803F04003002B07D0C3
:102038007B681B686FF040021A61786800F0FBF853
:10204800BB6803F02003002B0CD0FB6803F02003CF
:10205800002B07D07B681B686FF020021A61786834
:1020680000F0B0FA00BF1037BD4680BD80B584B01F
:1020780000AF786039600023FB737B6893F83C30CD
:10208800012B01D10223B4E07B68012283F83C20B4
:102098007B68022283F83D207B681B689B68BB60D5
:1020A800BB6823F07703BB60BB6823F47F43BB6046
:1020B8007B681B68BA689A603B681B68B3F5005F69
:1020C8003ED0B3F5005F00F28780B3F5805F00F083
:1020D8008680B3F5805F7FD8702B1AD0702B7BD8A1
:1020E800602B50D0602B77D8502B3CD0502B73D816
:1020F800402B58D0402B6FD8302B64D0302B6BD866
:10210800202B60D0202B67D8002B5CD0102B5AD006
:1021180062E07B6818683B6899683B685A683B6866
:10212800DB6800F0B3F97B681B689B68BB60BB6821
:1021380043F07703BB607B681B68BA689A604FE01E
:102148007B6818683B6899683B685A683B68DB6835
:1021580000F09CF97B681B689A687B681B6842F4EE
:1021680080429A603CE07B6818683B6859683B6825
:10217800DB681A4600F010F97B681B685021184686
:1021880000F069F92CE07B6818683B6859683B687F
:10219800DB681A4600F02FF97B681B686021184637
:1021A80000F059F91CE07B6818683B6859683B687F
:1021B800DB681A4600F0F0F87B681B684021184677
:1021C80000F049F90CE07B681A683B681B681946FF
:1021D800104600F040F903E00123FB7300E000BF64
:1021E8007B68012283F83D207B68002283F83C202D
:1021F800FB7B18461037BD4680BD80B483B000AF66
:10220800786000BF0C37BD465DF8047B704780B42A
:1022180083B000AF786000BF0C37BD465DF8047B23
:10222800704780B483B000AF786000BF0C37BD46FC
:102238005DF8047B704780B483B000AF786000BF5E
:102248000C37BD465DF8047B7047000080B485B04C
:1022580000AF786039607B681B68FB607B68434A25
:10226800934213D07B68B3F1804F0FD07B68404A0C
:1022780093420BD07B683F4A934207D07B683E4A23
:10228800934203D07B683D4A934208D1FB6823F010
:102298007003FB603B685B68FA681343FB607B680C
:1022A800324A93422BD07B68B3F1804F27D07B68AA
:1022B8002F4A934223D07B682E4A93421FD07B68D3
:1022C8002D4A93421BD07B682C4A934217D07B68D7
:1022D8002B4A934213D07B682A4A93420FD07B68DB
:1022E800294A93420BD07B68284A934207D07B68DF
:1022F800274A934203D07B68264A934208D1FB6859
:1023080023F44073FB603B68DB68FA681343FB60A7
:10231800FB6823F080023B685B691343FB603B6802
:102328009A687B68DA623B681A687B689A627B689D
:102338000E4A934203D07B68104A934203D13B680C
:102348001A697B681A637B681B6843F004027B6820
:102358001A607B6801225A617B68FA681A6000BFBC
:102368001437BD465DF8047B704700BF000001408C
:102378000004004000080040000C00400004014038
:10238800004001400044014000480140001800405E
:10239800001C00400020004080B487B000AFF86007
:1023A800B9607A60FB681B6A7B61FB681B6A23F073
:1023B8000102FB681A62FB689B693B613B6923F079
:1023C800F0033B617B681B013A6913433B617B69FE
:1023D80023F00A037B617A69BB6813437B61FB685E
:1023E8003A699A61FB687A691A6200BF1C37BD4670
:1023F8005DF8047B704780B487B000AFF860B960BF
:102408007A60FB681B6A7B61FB681B6A23F0100219
:10241800FB681A62FB689B693B613B6923F4704364
:102428003B617B681B033A6913433B617B6923F07B
:10243800A0037B61BB681B017A6913437B61FB685E
:102448003A699A61FB687A691A6200BF1C37BD460F
:102458005DF8047B704780B485B000AF7860396060
:102468007B689B68FB60FB6823F07003FB603A683D
:10247800FB68134343F00703FB607B68FA689A60C4
:1024880000BF1437BD465DF8047B704780B487B041
:1024980000AFF860B9607A603B60FB689B687B615D
:1024A8007B6923F47F437B613B681A027B681A438C
:1024B800BB6813437A6913437B61FB687A699A6046
:1024C80000BF1C37BD465DF8047B704780B485B0FB
:1024D80000AF786039607B6893F83C30012B01D1FC
:1024E80002235AE07B68012283F83C207B680222A1
:1024F80083F83D207B681B685B68FB607B681B6812
:102508009B68BB60FB6823F07003FB603B681B683B
:10251800FA681343FB607B681B68FA685A607B683B
:102528001B68214A934222D07B681B68B3F1804F15
:102538001DD07B681B681D4A934218D07B681B68B6
:102548001B4A934213D07B681B681A4A93420ED0E9
:102558007B681B68184A934209D07B681B68174A36
:10256800934204D07B681B68154A93420CD1BB6820
:1025780023F08003BB603B685B68BA681343BB60A9
:102588007B681B68BA689A607B68012283F83D20E3
:102598007B68002283F83C20002318461437BD4688
:1025A8005DF8047B704700BF000001400004004054
:1025B80000080040000C00400004014000400140B9
:1025C8000018004080B483B000AF786000BF0C37BB
:1025D800BD465DF8047B704780B483B000AF786077
:1025E80000BF0C37BD465DF8047B704702440346C4
:1025F800934200D1704703F8011BF9E770B50D4D00
:102608000D4C641BA4100026A64209D10B4D0C4C9E
:1026180000F018F8641BA4100026A64205D170BD6E
:1026280055F8043B98470136EEE755F8043B9847C0
:102638000136F2E77C2600087C2600087C26000884
:1026480080260008F8B500BFF8BC08BC9E46704755
:0C265800F8B500BFF8BC08BC9E467047F7
:10266400000000000000000001020304060708093E
:0826740084DBFF7F0100000080
:04267C00AD010008A4
:0426800089010008C4
:0C2684000024F400100000000100000021
:0400000508000D855D
:00000001FF
