:020000040800F2
:1000000000000220693600082D3100083331000855
:10001000393100083F310008453100080000000078
:100020000000000000000000000000004B3100084C
:1000300059310008000000006731000875310008E0
:10004000B9360008B9360008B9360008B9360008D4
:10005000B9360008B9360008B9360008B9360008C4
:10006000B9360008B9360008B9360008B9360008B4
:10007000B9360008B9360008B9360008B9360008A4
:10008000B9360008B9360008B9360008B936000894
:10009000B9360008B9360008B9360008B936000884
:1000A000B9360008B9360008B9360008B936000874
:1000B00081310008B9360008B9360008B9360008A1
:1000C000B9360008B9360008B9360008B936000854
:1000D000B936000895310008B9360008B93600086D
:1000E000B9360008B9360008B9360008B936000834
:1000F000B9360008B9360008B9360008B936000824
:10010000B9360008B9360008B9360008B936000813
:10011000B9360008B9360008B9360008B936000803
:10012000A9310008B9360008B9360008B936000808
:10013000B9360008B9360008B9360008B9360008E3
:10014000B9360008B9360008B9360008B9360008D3
:10015000B9360008B9360008B9360008B9360008C3
:10016000B9360008B9360008B9360008B9360008B3
:10017000B9360008B9360008B9360008000000009A
:08018000B9360008B936000889
:1001900010B5054C237833B9044B13B10448AFF3C1
:1001A00000800123237010BD8000002000000000AB
:1001B0007C9C000808B5034B1BB103490348AFF30F
:1001C000008008BD00000000840000207C9C000826
:1001D00001F0FF01102A2BDB10F0070F08D010F8F8
:1001E000013B013A8B422DD010F0070F42B3F6D1FC
:1001F000F0B441EA012141EA014122F007047FF015
:1002000000070023F0E80256083C85EA010586EA6B
:10021000010685FA47F5A3FA87F586FA47F6A5FAA7
:1002200087F68EB9EED1F0BC01F0FF0102F00702B3
:1002300032B110F8013B013A83EA010313B1F8D15E
:100240000020704701387047002D06BF354603383F
:10025000073815F0010F07D1013015F4807F02BF78
:10026000013015F4C03F0130F0BC0138704700BFC9
:1002700081F0004102E000BF83F0004330B54FEA57
:1002800041044FEA430594EA050F08BF90EA020FC4
:100290001FBF54EA000C55EA020C7FEA645C7FEA57
:1002A000655C00F0E2804FEA5454D4EB5555B8BF7A
:1002B0006D420CDD2C4480EA020281EA030382EAEB
:1002C000000083EA010180EA020281EA0303362D7D
:1002D00088BF30BD11F0004F4FEA01314FF4801C50
:1002E0004CEA113102D0404261EB410113F0004F62
:1002F0004FEA03334CEA133302D0524263EB430319
:1003000094EA050F00F0A780A4F10104D5F1200EB6
:100310000DDB02FA0EFC22FA05F2801841F1000111
:1003200003FA0EF2801843FA05F359410EE0A5F1E5
:1003300020050EF1200E012A03FA0EFC28BF4CF016
:10034000020C43FA05F3C01851EBE37101F00045CC
:1003500007D54FF0000EDCF1000C7EEB00006EEBD9
:100360000101B1F5801F1BD3B1F5001F0CD3490863
:100370005FEA30004FEA3C0C04F101044FEA4452BA
:1003800012F5800F80F09A80BCF1004F08BF5FEA41
:10039000500C50F1000041EB045141EA050130BD21
:1003A0005FEA4C0C404141EB0101013C28BFB1F533
:1003B000801FE9D291F0000F04BF01460020B1FA7E
:1003C00081F308BF2033A3F10B03B3F120020CDA51
:1003D0000C3208DD02F1140CC2F10C0201FA0CF02F
:1003E00021FA02F10CE002F11402D8BFC2F1200C94
:1003F00001FA02F120FA0CFCDCBF41EA0C0190404A
:10040000E41AA2BF01EB0451294330BD6FEA040492
:100410001F3C1CDA0C340EDC04F11404C4F120027D
:1004200020FA04F001FA02F340EA030021FA04F38F
:1004300045EA030130BDC4F10C04C4F1200220FAE6
:1004400002F001FA04F340EA0300294630BD21FA24
:1004500004F0294630BD94F0000F83F4801306BFEA
:1004600081F480110134013D4EE77FEA645C18BFDE
:100470007FEA655C29D094EA050F08BF90EA020F75
:1004800005D054EA000C04BF1946104630BD91EA6D
:10049000030F1EBF0021002030BD5FEA545C05D170
:1004A0004000494128BF41F0004130BD14F58004AF
:1004B0003CBF01F5801130BD01F0004545F0FE4123
:1004C00041F470014FF0000030BD7FEA645C1ABF58
:1004D000194610467FEA655C1CBF0B46024650EA8F
:1004E000013406BF52EA033591EA030F41F40021BB
:1004F00030BD00BF90F0000F04BF0021704730B541
:100500004FF4806404F132044FF000054FF0000115
:1005100050E700BF90F0000F04BF0021704730B5D6
:100520004FF4806404F1320410F0004548BF4042AB
:100530004FF000013EE700BF42004FEAE2014FEA00
:1005400031014FEA02701FBF12F07F4393F07F4FDB
:1005500081F06051704732F07F4208BF704793F0DE
:100560007F4F04BF41F40021704730B54FF46074F1
:1005700001F0004521F000411CE700BF50EA0102F4
:1005800008BF704730B54FF000050AE050EA01029D
:1005900008BF704730B511F0004502D5404261EB0D
:1005A00041014FF4806404F132045FEA915C3FF44E
:1005B000D8AE4FF003025FEADC0C18BF03325FEAEB
:1005C000DC0C18BF033202EBDC02C2F1200300FA9C
:1005D00003FC20FA02F001FA03FE40EA0E0021FAC1
:1005E00002F11444BDE600BF70B54FF0FF0C4CF4AF
:1005F000E06C1CEA11541DBF1CEA135594EA0C0F61
:1006000095EA0C0F00F0DEF82C4481EA030621EA9B
:100610004C5123EA4C5350EA013518BF52EA0335D6
:1006200041F4801143F4801338D0A0FB02CE4FF088
:100630000005E1FB02E506F00042E0FB03E54FF0B8
:100640000006E1FB03569CF0000F18BF4EF0010EB0
:10065000A4F1FF04B6F5007F64F5407404D25FEAAC
:100660004E0E6D4146EB060642EAC62141EA55515F
:100670004FEAC52040EA5E504FEACE2EB4F1FD0CA1
:1006800088BFBCF5E06F1ED8BEF1004F08BF5FEA1F
:10069000500E50F1000041EB045170BD06F00046D1
:1006A00046EA010140EA020081EA0301B4EB5C047E
:1006B000C2BFD4EB0C0541EA045170BD41F4801176
:1006C0004FF0000E013C00F3AB8014F1360FDEBF9B
:1006D000002001F0004170BDC4F10004203C35DA77
:1006E0000C341BDC04F11404C4F1200500FA05F3FA
:1006F00020FA04F001FA05F240EA020001F000429B
:1007000021F0004110EBD37021FA04F642EB060110
:100710005EEA430E08BF20EAD37070BDC4F10C043A
:10072000C4F1200500FA04F320FA05F001FA04F2FE
:1007300040EA020001F0004110EBD37041F10001EA
:100740005EEA430E08BF20EAD37070BDC4F12005F5
:1007500000FA05F24EEA020E20FA04F301FA05F25D
:1007600043EA020321FA04F001F0004121FA04F205
:1007700020EA020000EBD3705EEA430E08BF20EAD5
:10078000D37070BD94F0000F0FD101F0004640000F
:1007900041EB010111F4801F08BF013CF7D041EA91
:1007A000060195F0000F18BF704703F00046520095
:1007B00043EB030313F4801F08BF013DF7D043EA66
:1007C0000603704794EA0C0F0CEA135518BF95EA1C
:1007D0000C0F0CD050EA410618BF52EA4306D1D1A3
:1007E00081EA030101F000414FF0000070BD50EAC2
:1007F000410606BF1046194652EA430619D094EA4C
:100800000C0F02D150EA013613D195EA0C0F05D135
:1008100052EA03361CBF104619460AD181EA030189
:1008200001F0004141F0FE4141F470014FF0000041
:1008300070BD41F0FE4141F4780170BD70B54FF0DC
:10084000FF0C4CF4E06C1CEA11541DBF1CEA13555C
:1008500094EA0C0F95EA0C0F00F0A7F8A4EB05043E
:1008600081EA030E52EA03354FEA013100F0888035
:100870004FEA03334FF0805545EA131343EA1263FE
:100880004FEA022245EA111545EA10654FEA0026B3
:100890000EF000419D4208BF964244F1FD0404F56C
:1008A000407402D25B084FEA3202B61A65EB0305C8
:1008B0005B084FEA32024FF480104FF4002CB6EB85
:1008C000020E75EB030E22BFB61A754640EA0C0005
:1008D0005B084FEA3202B6EB020E75EB030E22BF45
:1008E000B61A754640EA5C005B084FEA3202B6EB86
:1008F000020E75EB030E22BFB61A754640EA9C0045
:100900005B084FEA3202B6EB020E75EB030E22BF14
:10091000B61A754640EADC0055EA060E18D04FEAD2
:10092000051545EA16754FEA06164FEAC30343EA72
:1009300052734FEAC2025FEA1C1CC0D111F4801F3F
:100940000BD141EA00014FF000004FF0004CB6E738
:1009500011F4801F04BF01430020B4F1FD0C88BFD7
:10096000BCF5E06F3FF6AFAEB5EB030C04BFB6EBE2
:10097000020C5FEA500C50F1000041EB045170BDD5
:100980000EF0004E4EEA113114EB5C04C2BFD4EB02
:100990000C0541EA045170BD41F480114FF0000E86
:1009A000013C90E645EA060E8DE60CEA135594EA02
:1009B0000C0F08BF95EA0C0F3FF43BAF94EA0C0F05
:1009C0000AD150EA01347FF434AF95EA0C0F7FF47A
:1009D00025AF104619462CE795EA0C0F06D152EACE
:1009E00003353FF4FDAE1046194622E750EA4106B2
:1009F00018BF52EA43067FF4C5AE50EA41047FF4C3
:100A00000DAF52EA43057FF4EBAE12E74FEA410225
:100A1000B2F1E04324BFB3F5001CDCF1FE5C0DD95C
:100A200001F0004C4FEAC0024CEA5070B2F1004FA6
:100A300040EB830008BF20F00100704711F0804FA9
:100A400021D113F13872BCBF01F00040704741F46E
:100A500080114FEA5252C2F11802C2F1200C10FA72
:100A60000CF320FA02F018BF40F001004FEAC12356
:100A70004FEAD32303FA0CFC40EA0C0023FA02F3FA
:100A80004FEA4303CCE77FEA625307D150EA0133D0
:100A90001EBF4FF0FE4040F44000704701F00040A0
:100AA00040F0FE4040F40000704700BF53B94AB91F
:100AB000002908BF00281CBF4FF0FF314FF0FF3066
:100AC00000F06EB9ADF1080C6DE904CE00F006F847
:100AD000DDF804E0DDE9022304B070472DE9F047BA
:100AE000089D04468C46002B40F083808A421746BE
:100AF00047D9B2FA82F242B1C2F1200024FA00F0E2
:100B00009140974040EA010C94404FEA1748230C6B
:100B1000BCFBF8F61FFA87FE08FB16C143EA014347
:100B200006FB0EF1994209D9FB1806F1FF3080F05F
:100B30001981994240F21681023E3B445B1AA4B2ED
:100B4000B3FBF8F008FB103344EA034400FB0EFE4D
:100B5000A64509D93C1900F1FF3380F00581A6456F
:100B600040F2028102383C4440EA0640A4EB0E0405
:100B700000261DB1D4400023C5E900433146BDE83D
:100B8000F08702B9FFDEB2FA82F2002A50D1CB1B05
:100B90004FEA174E1FFA87F80126B3FBFEFC210C23
:100BA0000EFB1C3341EA034108FB0CF38B4207D9CF
:100BB00079180CF1FF3002D28B4200F2E9808446B2
:100BC000C91AA3B2B1FBFEF00EFB101143EA0144B7
:100BD00008FB00F8A04507D93C1900F1FF3302D209
:100BE000A04500F2D9801846A4EB080440EA0C4066
:100BF000BFE78B4209D9002D00F0B1800026C5E97E
:100C0000000130463146BDE8F087B3FA83F6002E86
:100C10004AD18B4202D3824200F2B880841A61EB3F
:100C2000030101208C46002DA8D0C5E9004CA5E7A2
:100C3000C2F1200320FA03F6974001FA02F04FEACE
:100C4000174ED9403043030CB1FBFEF61FFA87F86C
:100C50000EFB161143EA014306FB08F1994204FA20
:100C600002F409D9FB1806F1FF3C80F08D8099420F
:100C700040F28A80023E3B445B1A81B2B3FBFEF035
:100C80000EFB103341EA034100FB08F38B4207D906
:100C9000791800F1FF3C73D28B4271D90238394484
:100CA000CB1A40EA064678E7C6F1200C03FA06F4B0
:100CB00022FA0CF31C4320FA0CF701FA06F34FEA70
:100CC000144E21FA0CF11F433B0CB1FBFEF91FFA45
:100CD00084F80EFB191143EA014109FB08FA8A4521
:100CE00002FA06F200FA06F308D9611809F1FF309A
:100CF00048D28A4546D9A9F102092144A1EB0A014B
:100D0000BFB2B1FBFEF00EFB101147EA014700FB3A
:100D100008F8B84507D9E71900F1FF312ED2B845D8
:100D20002CD90238274440EA0940A7EB0807A0FB6A
:100D300002894F45C64649461AD317D05DB1B3EB79
:100D40000E0267EB010707FA0CFCF2404CEA0202C4
:100D5000F740C5E9002700263146BDE8F0872E465A
:100D600028460BE70646E9E61846FDE64345E5D288
:100D7000B8EB020E69EB04010138DFE70846D2E761
:100D800060468DE78146B9E7664675E730464AE733
:100D9000ACF1020C394413E702383C4424E700BFAD
:100DA000704700BF80B584B000AF3B4600221A6098
:100DB0005A609A60DA603D4B3D4A1A603B4B002214
:100DC0005A603A4B00229A60384B01221A61374B25
:100DD00000221A76354B002283F82020334B002264
:100DE000DA62324B334A9A62304B0022DA602F4B80
:100DF0000522DA612D4B002283F830202B4B012293
:100E00005A612A4802F0F0FC0346002B01D001F0A1
:100E1000F3FE08233B6001237B600023BB603B465D
:100E20001946224802F052FE0346002B01D001F081
:100E3000E3FE09233B6002237B603B4619461B48C7
:100E400002F044FE0346002B01D001F0D5FE0A2338
:100E50003B6003237B603B461946144802F036FE94
:100E60000346002B01D001F0C7FE0B233B60042397
:100E70007B603B4619460D4802F028FE0346002BD6
:100E800001D001F0B9FE0C233B6005237B603B469B
:100E90001946064802F01AFE0346002B01D001F065
:100EA000ABFE00BF1037BD4680BD00BFDC00002098
:100EB000002001400100000F80B58AB000AF7860CB
:100EC00007F1140300221A605A609A60DA601A610E
:100ED0007B681B683C4A934271D100233B613B4BCA
:100EE0005B6C3A4A43F480735364384B5B6C03F495
:100EF00080733B613B690023FB60344B1B6B334ABF
:100F000043F004031363314B1B6B03F00403FB60DA
:100F1000FB680023BB602D4B1B6B2C4A43F0020384
:100F200013632A4B1B6B03F00203BB60BB680723F0
:100F30007B610323BB610023FB6107F114031946A6
:100F4000234803F077FD03237B610323BB61002368
:100F5000FB6107F1140319461E4803F06BFD1E4B9D
:100F60001E4A1A601C4B00225A601B4B00229A60DA
:100F7000194B0022DA60184B4FF480621A61164B4D
:100F80004FF400625A61144B4FF400529A61124BB5
:100F90004FF48072DA61104B00221A620E4B00226D
:100FA0005A620D4803F044F90346002B01D001F0CA
:100FB00023FE7B68084A9A63074A7B68936300BFF5
:100FC0002837BD4680BD00BF0020014000380240E8
:100FD0000008024000040240240100201064024086
:100FE00080B500AF01220821024803F0BFFE00BF18
:100FF00080BD00BF000C024080B584B000AF00226D
:1010000008212F4803F0B2FE012208212C4803F0EA
:10101000ADFE0A2302222B492B4805F0D4FC002305
:10102000FB604FF400437B8100237B603FE07B68E3
:10103000002B06DB7B68032B03DC7B680433FB603F
:1010400018E07B68032B07DD7B68072B04DC7B68DB
:10105000C3F10703FB600DE07B68072B06DD7B68AF
:101060000B2B03DC7B680433FB6003E07B68C3F17C
:101070001703FB60134B1A887B8913409BB2002B2C
:1010800005D0124AFB68002122F8131009E00F4A2C
:10109000FB6832F81330013399B20C4AFB6822F82E
:1010A00013107B895B087B817B6801337B607B68E5
:1010B0000F2BBCDD00BF00BF1037BD4680BD00BF99
:1010C000000C02409C000020A002002084010020AF
:1010D00080B500AF0021024806F0B6F900BF80BD20
:1010E000F802002080B483B000AF0346FB71074ACA
:1010F000FB791370054B1A78054B1B685A6300BFC8
:101100000C37BD465DF8047B704700BF9E00002091
:10111000F802002080B582B000AF00237B600C4B4A
:101120001B6B0B4A43F480031363094B1B6B03F4E3
:1011300080037B607B6800220021382003F041F8A7
:10114000382003F05AF800BF0837BD4680BD00BF05
:101150000038024080B500AF1E2002F061FA03465D
:101160001A46174B1A70162002F05AFA03461A460E
:10117000134B5A70152002F053FA03461A46104BCF
:101180009A70062002F04CFA03461A460C4BDA70AD
:101190000F2002F045FA03461A46094B1A7109203E
:1011A00002F03EFA03461A46054B5A71172002F028
:1011B00037FA03461A46024B9A7100BF80BD00BF42
:1011C000AC01002080B588B004AF03460A46FB712D
:1011D0001346BB71BB79184602F022FA0346FB7333
:1011E000FB799AB20A2302930123019307F10F03BB
:1011F00000930123D021034803F030FF00BF1037D4
:10120000BD4680BD0402002080B584B004AF0A232F
:10121000029307230193254B009301230022D02141
:10122000234804F015F8214B1B78184602F0DEF92C
:1012300003461A461F4B1A701C4B5B78184602F087
:10124000D5F903461A461C4B1A70184B9B78184662
:1012500002F0CCF903461A46184B1A70134BDB7890
:10126000184602F0C3F903461A46154B1A700F4B85
:101270001B79184602F0BAF903461A46114B1A7048
:101280000A4B5B79184602F0B1F903461A460E4B39
:101290001A70064B9B79184602F0A8F903461A46C5
:1012A0000A4B1A7000BFBD4680BD00BFAC010020D4
:1012B00004020020A4010020A6010020A9010020B2
:1012C000A8010020A7010020AA010020A5010020FC
:1012D00080B58EB000AF07F11C0300221A605A607F
:1012E0009A60DA601A615A619A613B4600221A607C
:1012F0005A609A60DA601A615A619A612F4B4FF016
:1013000020421A602D4B2E4A5A602C4B00229A60C4
:101310002A4B0022DA60294B00221A61274B102247
:101320005A61264B00229A61244B0022DA61234B3A
:1013300000221A62214B00225A62204B4FF4805245
:101340009A621E4B0022DA621C4B4FF480421A63F1
:101350001A4B00225A63194B00229A63174B002242
:101360005A640F23FB610F233B623C237B62002303
:10137000BB621023FB6211233B6300237B630823C2
:101380003B600F237B600923BB600023FB601023BD
:101390003B6111237B610023BB613A4607F11C03CB
:1013A0001946064805F0F2FE0346002B01D001F075
:1013B00023FC00BF3837BD4680BD00BFB40100200C
:1013C000040100A080B586B000AF3B1D00221A606A
:1013D0005A609A60DA601A611C4B1B68002B31D18D
:1013E0001A4B01221A6000233B60194B9B6B184A71
:1013F00043F001039363164B9B6B03F001033B60C7
:101400003B684FF688737B600223BB600023FB6060
:1014100003233B610C237B613B1D19460D4803F000
:1014200009FB4CF2B3737B600223BB600023FB60BB
:1014300003233B610C237B613B1D1946064803F0E7
:10144000F9FA00E000BF1837BD4680BDA0000020BB
:101450000038024000100240000C024080B582B00B
:1014600000AF7860FFF7AEFF00BF0837BD4680BD14
:1014700080B58EB000AF07F1240300221A605A60D5
:101480009A60DA601A6100233B62764B1B6B754AE7
:1014900043F010031363734B1B6B03F010033B62A9
:1014A0003B6A0023FB616F4B1B6B6E4A43F00403E6
:1014B00013636C4B1B6B03F00403FB61FB6900239C
:1014C000BB61684B1B6B674A43F020031363654B9A
:1014D0001B6B03F02003BB61BB6900237B61614B85
:1014E0001B6B604A43F0800313635E4B1B6B03F07E
:1014F00080037B617B6900233B615A4B1B6B594A1C
:1015000043F001031363574B1B6B03F001033B6173
:101510003B690023FB60534B1B6B524A43F00203B1
:101520001363504B1B6B03F00203FB60FB6800234B
:10153000BB604C4B1B6B4B4A43F008031363494B96
:101540001B6B03F00803BB60BB6800237B60454B4B
:101550001B6B444A43F040031363424B1B6B03F085
:1015600040037B607B68002270213F4803F0FEFB54
:1015700000224FF400513D4803F0F8FB00224021C7
:101580003B4803F0F3FB00224FF48071394803F02D
:10159000EDFB00220821384803F0E8FB70237B6252
:1015A0000123BB620023FB6200233B6307F124039A
:1015B00019462D4803F03EFA4FF400537B62012395
:1015C000BB620023FB6200233B6307F1240319463F
:1015D000264803F02FFAC0237B620023BB6200235E
:1015E000FB6207F124031946224803F023FA302353
:1015F0007B620023BB620023FB6207F124031946D0
:101600001A4803F017FA40237B620123BB620023D0
:10161000FB6200233B6307F124031946144803F0DF
:1016200009FA4FF480737B620123BB620023FB62E3
:1016300000233B6307F1240319460E4803F0FAF92F
:1016400008237B620123BB620023FB6200233B6310
:1016500007F124031946084803F0ECF900BF3837B6
:10166000BD4680BD00380240001002400008024024
:101670000018024000000240000C024080B500AF9C
:10168000124B134A1A60114B124A5A600F4B002238
:101690009A600E4B0022DA600C4B4FF480421A61C4
:1016A0000A4B00225A61094B00229A61074B002223
:1016B000DA61064B00221A62044803F08BFB0346F2
:1016C000002B01D001F098FA00BF80BD0402002079
:1016D00000540040A086010080B58AB000AF786059
:1016E00007F1140300221A605A609A60DA601A61E6
:1016F0007B681B68194A93422BD100233B61184B2E
:101700001B6B174A43F002031363154B1B6B03F06B
:1017100002033B613B69C0237B611223BB61002351
:10172000FB6103233B6204237B6207F11403194628
:101730000C4803F07FF90023FB60094B1B6C084A3F
:1017400043F400131364064B1B6C03F40013FB609B
:10175000FB6800BF2837BD4680BD00BF0054004075
:10176000003802400004024080B483B000AF03465A
:10177000FB80044AFB88138000BF0C37BD465DF830
:10178000047B7047FEFF0F6080B483B000AF034658
:10179000FB80044AFB88538000BF0C37BD465DF8D0
:1017A000047B7047FEFF0F6080B483B000AF064B30
:1017B0005B889BB2FB80FB889BB218460C37BD460A
:1017C0005DF8047B704700BFFEFF0F6090B583B0EB
:1017D00000AF0446084611461A462346FB800346DE
:1017E000BB800B467B8013463B802A20FFF7BCFF63
:1017F000FB881B0A9BB21846FFF7C6FFFB88DBB2CB
:101800009BB21846FFF7C0FF7B881B0A9BB21846A5
:10181000FFF7BAFF7B88DBB29BB21846FFF7B4FF35
:101820002B20FFF7A1FFBB881B0A9BB21846FFF7CE
:10183000ABFFBB88DBB29BB21846FFF7A5FF3B8826
:101840001B0A9BB21846FFF79FFF3B88DBB29BB297
:101850001846FFF799FF2C20FFF786FF00BF0C37D3
:10186000BD4690BD80B584B000AF0346FB80154BEC
:101870001B88013B9AB2134B5B88013B9BB2002152
:101880000020FFF7A3FF0023FB8111E00023BB81B1
:1018900006E0FB881846FFF777FFBB890133BB8161
:1018A000084B5B88BA899A42F3D3FB890133FB81E9
:1018B000044B1B88FA899A42E8D300BF00BF103757
:1018C000BD4680BD5802002090B585B000AF0446EB
:1018D000084611461A462346FB800346BB800B464A
:1018E0007B8013463B807B88013B9AB23B88013B5F
:1018F0009BB2B988F888FFF769FFBB88FB8110E0CD
:10190000FB88BB8106E03B8C1846FFF73DFFBB8997
:101910000133BB81BA897B889A42F4D3FB890133B6
:10192000FB81FA893B889A42EAD300BF00BF143793
:10193000BD4690BD80B582B000AF0346FB800B462C
:10194000BB8013467B80BB88FA88B988F888FFF78C
:101950003DFF7B881846FFF717FF00BF0837BD46DD
:1019600080BD90B58DB000AF0446084611461A46BA
:101970002346FB800346BB800B467B8013463B809F
:101980000023BB6200237B627A88FB88D31A3B6208
:101990003A88BB88D31AFB61FB88FB60BB88BB60BD
:1019A0003B6A002B02DD01237B610BE03B6A002BCD
:1019B00002D100237B6105E04FF0FF337B613B6A7E
:1019C0005B423B62FB69002B02DD01233B610BE0C4
:1019D000FB69002B02D100233B6105E04FF0FF3390
:1019E0003B61FB695B42FB613A6AFB699A4202DD3B
:1019F0003B6ABB6101E0FB69BB610023FB852BE017
:101A0000FB689BB2BA6891B2B7F840201846FFF75E
:101A100091FFBA6A3B6A1344BB627A6AFB6913445A
:101A20007B62BA6ABB699A4207DDBA6ABB69D31A9C
:101A3000BB62FA687B691344FB607A6ABB699A42AD
:101A400007DD7A6ABB69D31A7B62BA683B691344C3
:101A5000BB60FB8D0133FB85FB8DBA699A42CFDAFF
:101A600000BF00BF3437BD4690BD90B585B002AF12
:101A70000446084611461A462346FB800346BB80AF
:101A80000B467B8013463B80BC887A88B988F888EF
:101A90003B8B00932346FFF764FF3C88FA88B988A4
:101AA000F8883B8B00932346FFF75BFF3C887A88DE
:101AB0003988F8883B8B00932346FFF752FF3C8818
:101AC0007A88B98878883B8B00932346FFF749FFD3
:101AD00000BF0C37BD4690BD90B587B000AF04463F
:101AE000084611461A462346FB800346BB800B4638
:101AF000FB7013463B8000237B75FB883B8297F885
:101B00002C305B08FB73FB7BDB08DBB21A46FB7BEC
:101B100003F00703DBB2002B14BF01230023DBB269
:101B200013449AB297F82C309BB212FB03F3BB819B
:101B3000FB78203BFB70FB7B9AB2FB8813449BB283
:101B4000013B9CB297F82C309AB2BB8813449BB2ED
:101B5000013B9BB2B988F8882246FFF737FE002385
:101B60007B827AE097F82C300C2B28D097F82C3019
:101B7000102B08D1FA787B8A3C4912010A4413449D
:101B80001B78FB751BE097F82C30182B0BD1FA78DB
:101B9000798A374813465B0013441B0103440B4406
:101BA0001B78FB750BE097F82C30202B5AD1FA7874
:101BB0007B8A304992010A4413441B78FB75002349
:101BC000BB7544E097F83030002B20D1FA7DBB7D07
:101BD00042FA03F303F00103002B04D03B881846BC
:101BE000FFF7D2FD03E03B8D1846FFF7CDFD7B7D6F
:101BF00001337B757B7DFA7BB3FBF2F102FB01F2D3
:101C00009B1ADBB2002B1FD100237B7522E0FA7DEB
:101C1000BB7D42FA03F303F00103002B05D03A88A1
:101C2000B988FB881846FFF785FEFB880133FB80E7
:101C3000FA883B8AD21AFB7B9A4205D13B8AFB8009
:101C4000BB880133BB8005E0BB7D0133BB75BB7D29
:101C5000072BB7D97B8A01337B827A8ABB899A4268
:101C600080D300E000BF1C37BD4690BD649D0008D6
:101C700054A3000824B5000880B485B000AF034623
:101C80000A46FB711346BB710123FB6004E0FA793D
:101C9000FB6802FB03F3FB60BB795A1EBA71002B91
:101CA000F5D1FB6818461437BD465DF8047B7047D4
:101CB00090B589B004AF0446084611461A4623463B
:101CC000FB800346BB800B467B8013467B70002362
:101CD000BB7397F828305B087B730023FB7359E0D4
:101CE0007C887A78FB7BD31ADBB2013BDBB21946E6
:101CF0000A20FFF7C1FF0346B4FBF3F12A4BA3FB15
:101D00000123DA0813469B0013445B00CA1A1346EA
:101D10003B73BB7B002B21D1FA7B7B78013B9A4242
:101D20001CDA3B7B002B17D1FB7B9AB27B7B9BB2EF
:101D300012FB03F39AB2FB88134498B23A8CB98829
:101D40000023029397F828300193BB8C009313462D
:101D50002022FFF7C1FE1AE00123BB73FB7B9AB27E
:101D60007B7B9BB212FB03F39AB2FB88134498B2BD
:101D70003B7B3033DAB23C8CB9880023029397F86E
:101D800028300193BB8C00932346FFF7A5FEFB7B15
:101D90000133FB73FA7B7B789A42A1D300BF00BF6B
:101DA0001437BD4690BD00BFCDCCCCCC90B58BB028
:101DB00004AF0446084687ED020A11461A46234638
:101DC000FB810346BB810B46FB711346BB8097F832
:101DD0002C305B08BB75D7ED027A9FED367A67EE43
:101DE000877AFCEEE77A17EE903ABB820023FB7508
:101DF00057E0BC8AFA79FB7DD31ADBB2013BDBB238
:101E000019460A20FFF738FF0346B4FBF3F12A4BCB
:101E1000A3FB0123DA0813469B0013445B00CA1A94
:101E20001346FB74FA7DFB79023B9A421DD1FB7984
:101E3000023B9AB2BB7D9BB212FB03F39AB2FB89C1
:101E4000134498B2BA88B9890023029397F82C30CA
:101E500001933B8D009313462E22FFF73DFEFB7D41
:101E60000133FB75FB790133FB71FB7D9AB2BB7DBE
:101E70009BB212FB03F39AB2FB89134498B2FB7C2A
:101E80003033DAB2BC88B9890023029397F82C303A
:101E900001933B8D00932346FFF71EFEFB7D01332C
:101EA000FB75FA7DFB799A42A3D300BF00BF1C37B4
:101EB000BD4690BD0000C842CDCCCCCC80B483B030
:101EC00000AF0346FB71FB791B09DBB203F0030390
:101ED000DBB2002B07D00A4B4FF4A0721A80084BDC
:101EE000F0225A8006E0064BF0221A80044B4FF491
:101EF000A0725A8000BF0C37BD465DF8047B704766
:101F00005802002080B500AF00224FF40051AA48CB
:101F100002F02CFF4FF4FA7001F042FC01224FF462
:101F20000051A54802F022FF4FF4FA7001F038FC8E
:101F30000020FFF7C3FFD320FFF716FCFFF734FCA8
:101F400003461A469D4B9A80FFF72EFC03461A461D
:101F50009A4B9A80FFF728FC03461A46974B9A80C3
:101F6000964B9B881B029AB2944B9A80FFF71CFCFD
:101F700003461A46914B9B8813439AB28F4B9A8023
:101F8000CF20FFF7F1FB0020FFF7FEFBC120FFF79A
:101F9000FBFB3020FFF7F8FBED20FFF7E5FB6420AB
:101FA000FFF7F2FB0320FFF7EFFB1220FFF7ECFB3C
:101FB0008120FFF7E9FBE820FFF7D6FB8520FFF73C
:101FC000E3FB1020FFF7E0FB7A20FFF7DDFBCB20DF
:101FD000FFF7CAFB3920FFF7D7FB2C20FFF7D4FB14
:101FE0000020FFF7D1FB3420FFF7CEFB0220FFF7E4
:101FF000CBFBF720FFF7B8FB2020FFF7C5FBEA205B
:10200000FFF7B2FB0020FFF7BFFB0020FFF7BCFB90
:10201000C020FFF7A9FB1B20FFF7B6FBC120FFF78D
:10202000A3FB0120FFF7B0FBC520FFF79DFB30208D
:10203000FFF7AAFB3020FFF7A7FBC720FFF794FBB1
:10204000B720FFF7A1FB3620FFF78EFB0820FFF734
:102050009BFB3A20FFF788FB5520FFF795FBB1204B
:10206000FFF782FB0020FFF78FFB1A20FFF78CFBA6
:10207000B620FFF779FB0A20FFF786FBA220FFF7C7
:1020800083FBF220FFF770FB0020FFF77DFB26208B
:10209000FFF76AFB0120FFF777FBE020FFF764FB07
:1020A0000F20FFF771FB2A20FFF76EFB2820FFF7B8
:1020B0006BFB0820FFF768FB0E20FFF765FB08208D
:1020C000FFF762FB5420FFF75FFBA920FFF75CFBE3
:1020D0004320FFF759FB0A20FFF756FB0F20FFF7BD
:1020E00053FB0020FFF750FB0020FFF74DFB0020C3
:1020F000FFF74AFB0020FFF747FBE120FFF734FB27
:102100000020FFF741FB1520FFF73EFB1720FFF7EC
:102110003BFB0720FFF738FB1120FFF735FB0620BC
:10212000FFF732FB2B20FFF72FFB5620FFF72CFB8E
:102130003C20FFF729FB0520FFF726FB1020FFF7C7
:1021400023FB0F20FFF720FB3F20FFF71DFB3F2065
:10215000FFF71AFB0F20FFF717FB2B20FFF704FBFD
:102160000020FFF711FB0020FFF70EFB0120FFF717
:102170000BFB3F20FFF708FB2A20FFF7F5FA0020B2
:10218000FFF702FB0020FFF7FFFA0020FFF7FCFA41
:10219000EF20FFF7F9FA1120FFF7E6FA782001F0B7
:1021A000FFFA2920FFF7E0FA01224FF4807104487A
:1021B00002F0DCFD00BF80BD000802405802002094
:1021C0000000024090B58BB004AFBA601A460346D7
:1021D000FB810B46BB811346FB80FB89BB8200233E
:1021E000FB7548E0FB7D002B45D1FA89264B1B8807
:1021F000194697F82C305B08DBB2CB1A9A423FDCC9
:10220000BA89214B5B88194697F82C30CB1A9A4231
:1022100036DCBB681B78802B02D90123FB752AE0D2
:10222000BB681B780D2B0BD197F82C309AB2BB8969
:102230001344BB81BB8AFB81BB680133BB6017E0E1
:10224000BB681A78FC88B989F88997F8303002930E
:1022500097F82C3001933B8D00932346FFF73CFC0D
:1022600097F82C305B08DBB29AB2FB891344FB81F0
:10227000BB680133BB60BB681B78002BB2D100E0A8
:1022800000BF1C37BD4690BD5802002080B500AF8E
:102290003F4B1B88DBB29AB23D4B1A803D4B1B680B
:1022A0003D4AD35C1B021AB2394B1B881BB2134345
:1022B0001BB29AB2364B1A80364B1B68032B47D899
:1022C00001A252F823F000BFD9220008F72200082B
:1022D00015230008332300082D4B1B8843F0B0035F
:1022E0009AB22B4B1A802A4B1B8823F040039AB2D8
:1022F000274B1A802DE0264B1B8843F0D0039AB25F
:10230000234B1A80224B1B8823F020039AB2204BC8
:102310001A801EE01E4B1B8843F0E0039AB21C4B50
:102320001A801B4B1B8823F010039AB2184B1A809B
:102330000FE0174B1B8843F070039AB2144B1A80BE
:10234000134B1B8823F080039AB2114B1A8000E0D4
:1023500000BF104B1B6801335A4203F0030302F025
:10236000030258BF53420B4A1360002240210B481E
:1023700002F0FCFC012302220549094804F0E7F9B8
:1023800001224021054802F0F1FC00BF80BD00BFE2
:1023900004000020B80000200000002000180240C7
:1023A000A002002080B500AF01F088F900F02CF801
:1023B000FFF75EF8FEF7AEFE00F048FF00F010FEFB
:1023C000FEF786FFFFF75AF900F08CFFFEF7EAFCF4
:1023D00001F092F800F082F80020FFF743FA00BF06
:1023E000084B1B88002BFBD0064B00221A80FEF7FF
:1023F00003FE00F089F800F0FFFA00F0E1FB00F0C6
:102400006FFBECE7C600002080B594B000AF07F189
:10241000200330220021184606F0FAFF07F10C03D2
:1024200000221A605A609A60DA601A610023BB6069
:10243000284B1B6C274A43F080531364254B1B6CBD
:1024400003F08053BB60BB6800237B60224B1B689A
:10245000214A43F4804313601F4B1B6803F48043FD
:102460007B607B6802233B620123FB6210233B639A
:102470000223BB630023FB6308233B64A8237B6424
:102480000223BB640423FB6407F12003184603F016
:1024900061FC0346002B01D000F0AEFB0F23FB6074
:1024A00002233B6100237B614FF4A053BB614FF4D7
:1024B000A053FB6107F10C030521184603F0C2FE8F
:1024C0000346002B01D000F097FB00BF5037BD46FC
:1024D00080BD00BF003802400070004080B500AFF2
:1024E00000F02EFDFEF77CFDFFF70CFD00F08AFBEF
:1024F000FEF7EEFD00F042FB00F0B8FF322000F0E6
:1025000029FD00BF80BD000080B500AF0D4B1B78DA
:102510005A1C0D4B83FB0213D910D317C91A0B4653
:102520009B000B449B00D11ACAB2064B1A70054B94
:102530001B78002B03D11021044802F030FC00BFAF
:1025400080BD00BFC00000206766666600100240C4
:1025500080B400AF054BDB88012B01D1012300E0E3
:1025600000231846BD465DF8047B704784010020B7
:1025700080B400AF054BDB89012B01D1012300E0C2
:1025800000231846BD465DF8047B70478401002097
:1025900080B400AF054BDB8A012B01D1012300E0A1
:1025A00000231846BD465DF8047B70478401002077
:1025B00080B400AF054B1B8B012B01D1012300E040
:1025C00000231846BD465DF8047B70478401002057
:1025D00080B58AB004AF0023029310230193002337
:1025E00000934FF47843754A64210A20FFF7EAFD0F
:1025F00000F066FBF0EE407A102301930023009375
:102600004FF478430422B0EE670A64218220FFF77A
:10261000CDFB0023029310230193002300934FF47A
:102620007843674A78210A20FFF7CCFD00F0B4FB1D
:10263000F0EE407A10230193002300934FF4784387
:102640000422B0EE670A78218220FFF7AFFB002357
:10265000029310230193002300934FF47843594AC7
:102660008C210A20FFF7AEFD00F0EEFA03461A4671
:1026700010230293002301934FF478430093042323
:102680008C218220FFF714FB002302931023019377
:10269000002300934FF478434B4AA0210A20FFF710
:1026A00091FD00F0E3FA03461A461023029300233B
:1026B00001934FF4784300930423A0218220FFF775
:1026C000F7FA0023029310230193002300934FF4A1
:1026D00078433E4AB4210A20FFF774FD3C4BD3ED0A
:1026E000007AFCEEE77A17EE903A9AB21023029342
:1026F000002301934FF4784300930423B4218220F4
:10270000FFF7D6FA002302931023019300230093CE
:102710004FF478432F4AC8210A20FFF753FD00F0F9
:10272000DDFBF0EE407A10230193002300934FF479
:1027300078430422B0EE670AC8218220FFF736FBF7
:10274000FEF762FD244B1B781A46244B1B78194672
:10275000234B1B7807F10C0000930B46214906F030
:102760005FFE07F10C020023029310230193002364
:1027700000934FF47843DC218220FFF723FD1A4BAE
:102780001B781A46194B1B781946194B1B7838468B
:1027900000930B46174906F043FE3A460023029386
:1027A00010230193002300934FF47843F0218220FB
:1027B000FFF708FD00BF1837BD4680BD949C000898
:1027C000A09C0008AC9C0008B49C0008C49C0008B5
:1027D000B4000020D09C0008A9010020A601002020
:1027E000A4010020D89C0008A7010020AA01002015
:1027F000A5010020E89C000890B58DB004AF00F062
:102800005FFA87ED050A00F0C7FA87ED040A002396
:10281000029310230193002300934FF6FF736A4A3B
:1028200028210A20FFF7CEFC0023029310230193F6
:10283000002300934FF4FC63644A3C210A20FFF715
:10284000C1FC10230193002300934FF4FC63042286
:1028500097ED050A3C212820FFF7A8FA00230293F0
:1028600010230193002300934FF4FC63584A3C214A
:102870006420FFF7A7FC10230193002300934FF47B
:10288000FC63052297ED040A3C218220FFF78EFAB3
:1028900097ED057AD7ED047A27EE277ADFED4D6ABA
:1028A000C7EE267AC7ED037A002302931023019323
:1028B000002300934FF6E073474A50210A20FFF7A8
:1028C00081FC10230193002300934FF6E07305224F
:1028D00097ED030A50215020FFF768FA3F4BBB6089
:1028E000FB68FB61D7ED077A9FED3D7AF4EEC77A7E
:1028F000F1EE10FA01D53B4BFB61D7ED077A9FED66
:102900003A7AF4EEC77AF1EE10FA01DD374BFB614B
:10291000D7ED077A9FED327A77EEC77AC7ED017A65
:10292000D7ED016A97ED027AC6EE877A9FED297A94
:1029300067EE877AFCEEE77A17EE903A7B807B8829
:10294000C3F596733B802A4B1B8814337B83284B3B
:102950001B88C72B1AD90023009340F22D13DC22C9
:10296000C8211420FEF7B0FF4FF6FF7300934FF419
:102970009673DC22C8211420FFF777F81C4B002245
:102980001A8014237B831B4A3B881380184B1B88B7
:10299000002B0BD07B8B053B98B2164B19883B88DC
:1029A0007A8B47F6FF740094FEF7DBFF114A3B88F1
:1029B00013800F4B1B8805339AB20D4B1A8000BF52
:1029C0002437BD4690BD00BFFC9C00080C9D00084C
:1029D000109D00080000C842149D000800004843F4
:1029E0000000FA430000FA4300002F4400002F4487
:1029F000BE0000200800002080B582B002AFFFF7C3
:102A0000D7FD0346002B16D0304B1B78002B0CBF94
:102A100001230023DBB21A462C4B1A702C4B0122E7
:102A20001A702C4B13221A70284B1B78012B02D1E1
:102A3000294B00221A80274B1B785A1C274B83FBFB
:102A40000213D910D317C91A0B469B000B449B00E5
:102A5000D11ACAB21F4B1A701E4B1B78002B32D1F1
:102A600000F0DEF80346002B2CD0194B1B78002B0E
:102A70001ED00020FEF7F6FE154B00221A70134BF5
:102A80001B78012B14D14FF6FF7300934FF496730C
:102A9000DC224FF496711420FEF763FF4FF6FF73AC
:102AA0000093C82314224FF496711420FEF759FFA7
:102AB000064B1B78002B02D1FFF78AFD03E0FFF7DE
:102AC0009BFE00E000BFBD4680BD00BFBC000020F3
:102AD00006000020C1000020BE0000206766666678
:102AE00080B500AF1F4BD3ED007A9FED1F7AF4EE57
:102AF000C77AF1EE10FA03DB1C4B01221A7008E0D2
:102B00001A4B00221A700020FEF7ECFA184B002234
:102B10001A70164B1B78002B21D0154B1B780133F4
:102B2000DAB2134B1A70124B1B78132B17D9104BB8
:102B300000221A700F4B1B78002B03D10D4B322251
:102B40001A7002E00B4B00221A700A4B1B781846D1
:102B5000FEF7C8FA084B1B68184600F095FC00BF4A
:102B600080BD00BFB400002000008C42C2000020E5
:102B7000C4000020C30000200C00002080B500AF7E
:102B8000FEF7E8FA00210020FEF71CFB32210120AD
:102B9000FEF718FB08210220FEF714FB0421032096
:102BA000FEF710FB13210420FEF70CFB0B21052080
:102BB000FEF708FB19210620FEF704FB00BF80BDCD
:102BC00080B500AFFFF7C4FC0346002B02D03220D3
:102BD000FEF788FAFFF7CCFC0346002B02D000205A
:102BE000FEF780FAFFF7D4FC0346002B02D0192031
:102BF000FEF778FA00BF80BD80B400AF72B600BFA8
:102C0000FEE7000080B500AF05220349034800F04D
:102C10002FFE00BF80BD00BF94020020DC0000201A
:102C200080B500AF05220649064800F021FE0346A4
:102C3000002B01D1012300E00023184680BD00BF16
:102C400094020020DC00002080B400AF054B9A887D
:102C5000054B1A80034B9B881846BD465DF8047BE4
:102C6000704700BF94020020A400002080B400AF91
:102C70000D4BDA880D4B1A800C4B1B8807EE903AEF
:102C8000B8EE677ADFED0A6AC7EE267A9FED097A19
:102C900067EE877A084BC3ED007A034BDB88184652
:102CA000BD465DF8047B704794020020A60000201A
:102CB00000F07F450000C842B40000200000000082
:102CC00080B500AF304B1B8807EE903AF8EE677A7C
:102CD00017EE900AFDF730FC27A3D3E90023FDF798
:102CE00083FC02460B46104619464FF00002274B64
:102CF000FDF77AFC02460B461046194620A3D3E99D
:102D00000023FDF79BFD02460B4610461946FDF7D2
:102D10007DFE03461E4A13601B4B1B8807EE903A4C
:102D2000F8EE677A17EE900AFDF706FC12A3D3E9D6
:102D30000023FDF759FC02460B46104619464FF09A
:102D40000002124BFDF750FC02460B461046194696
:102D50000BA3D3E90023FDF771FD02460B46104695
:102D60001946FDF753FE034607EE903AB0EE670AA8
:102D700080BD00BFAFF300806666666666660A4087
:102D8000CDCCCCCCAC08B940940200200000284047
:102D9000A80000200000000080B500AF4A4B5B880F
:102DA00007EE903AF8EE677A17EE900AFDF7C4FB4B
:102DB00041A3D3E90023FDF717FC02460B4610465A
:102DC00019464FF00002414BFDF70EFC02460B4640
:102DD000104619463AA3D3E90023FDF72FFD02461A
:102DE0000B46104619464FF00002394BFDF744FAE6
:102DF00002460B46104619464FF00002354BFDF7D0
:102E0000F3FB02460B46104619464FF00002304BCA
:102E1000FDF714FD02460B4610461946FDF7F6FD78
:102E200003462D4A1360284B5B8807EE903AF8EE74
:102E3000677A17EE900AFDF77FFB1FA3D3E9002303
:102E4000FDF7D2FB02460B46104619464FF0000232
:102E50001E4BFDF7C9FB02460B461046194618A348
:102E6000D3E90023FDF7EAFC02460B46104619465B
:102E70004FF00002164BFDF7FFF902460B461046D5
:102E800019464FF00002134BFDF7AEFB02460B460E
:102E9000104619464FF000020D4BFDF7CFFC0246DD
:102EA0000B4610461946FDF7B1FD034607EE903A72
:102EB000B0EE670A80BD00BF6666666666660A4059
:102EC00048E17A14EEB2A4409402002000408F4002
:102ED0000000044000001440AC00002080B400AFAB
:102EE000134B1B8907EE903AF8EE677A9FED117A43
:102EF00027EE877ADFED106AC7EE267A0F4BC3ED17
:102F0000007A0B4B1B8907EE903AF8EE677A9FED3B
:102F1000097A67EE877A9FED087AC7EE876AF0EE46
:102F2000667AB0EE670ABD465DF8047B704700BF65
:102F3000940200200000A54300F07F45B00000206F
:102F400080B500AF024804F0B5F900BF80BD00BFF6
:102F50004003002080B483B000AF0346FB80084AE2
:102F6000FB881380064B1A88064B1A80064B0022FA
:102F70001A8000BF0C37BD465DF8047B704700BF68
:102F8000CA000020C8000020C600002080B582B022
:102F900000AF78607B681B68B3F1804F16D10D4B92
:102FA0001B88002B10D00B4B1B88013B9AB2094B9E
:102FB0001A80084B1B88002B06D1074B01221A8070
:102FC000064B1A88034B1A80FFF760F900BF0837D9
:102FD000BD4680BDC8000020C6000020CA000020F9
:102FE00080B500AF174B184A1A60164B4FF4827227
:102FF0005A60144B00229A60124B0022DA60114B87
:1030000000221A610F4B00225A610E4B4FF40072DE
:103010009A610C4B0022DA610A4B00221A62094BBA
:1030200000225A62074B00229A62064B0A22DA6299
:10303000044803F003FB0346002B01D0FFF7DCFD3F
:1030400000BF80BDA00200200030014080B58AB0E2
:1030500000AF786007F1140300221A605A609A608A
:10306000DA601A617B681B68194A93422BD10023EE
:103070003B61184B5B6C174A43F480535364154B08
:103080005B6C03F480533B613B690023FB60114B95
:103090001B6B104A43F0020313630E4B1B6B03F0D0
:1030A0000203FB60FB6838237B610223BB610023C2
:1030B000FB6103233B6205237B6207F1140319467E
:1030C000054801F0B7FC00BF2837BD4680BD00BFF2
:1030D00000300140003802400004024080B483B058
:1030E00000AF00237B60104B5B6C0F4A43F48043BE
:1030F00053640D4B5B6C03F480437B607B6800235F
:103100003B60094B1B6C084A43F080531364064B29
:103110001B6C03F080533B603B6800BF0C37BD461F
:103120005DF8047B704700BF0038024080B400AFF8
:10313000FEE780B400AFFEE780B400AFFEE780B4E6
:1031400000AFFEE780B400AFFEE780B400AF00BF81
:10315000BD465DF8047B704780B400AF00BFBD463C
:103160005DF8047B704780B400AF00BFBD465DF8DA
:10317000047B704780B500AF00F0F2FA00BF80BD5D
:1031800080B500AF024804F027FA00BF80BD00BF41
:103190004003002080B500AF024805F087F900BF6A
:1031A00080BD00BFEC03002080B500AF024801F0F5
:1031B000D7F900BF80BD00BF2401002080B586B0D4
:1031C00000AF7860144A154BD31A7B617B693B6171
:1031D000134B1B68002B02D1114B124A1A60104B83
:1031E0001A687B6813443A699A4207D206F0E6F8F7
:1031F00003460C221A604FF0FF3309E0084B1B68AE
:10320000FB60074B1A687B681344054A1360FB6830
:1032100018461837BD4680BD00000220000400009B
:10322000CC0000204804002080B400AF064BD3F847
:103230008830054A43F47003C2F8883000BFBD46A9
:103240005DF8047B704700BF00ED00E080B586B0FC
:1032500000AF07F1080300221A605A609A60DA6032
:103260003B4600221A605A601D4B4FF080421A60A4
:103270001B4B40F247325A60194B00229A60184BA0
:103280006322DA60164B00221A61154B00229A6104
:10329000134803F0BFFF0346002B01D0FFF7ACFC3F
:1032A0004FF48053BB6007F1080319460C4804F043
:1032B0005DFB0346002B01D0FFF79EFC00233B6023
:1032C00000237B603B461946054804F04FFF034648
:1032D000002B01D0FFF790FC00BF1837BD4680BD22
:1032E0004003002080B588B000AF3B1D00221A606B
:1032F0005A609A60DA601A615A619A611E4B1F4ADD
:103300001A601D4B40F247325A601B4B00229A60F4
:10331000194B6322DA60184B00221A61164B002207
:103320009A61154803F076FF0346002B01D0FFF7A2
:1033300063FC114804F02EF80346002B01D0FFF780
:103340005BFC60237B600023BB600023FB600023E9
:103350007B613B1D00221946074804F045FA0346ED
:10336000002B01D0FFF748FC034800F045F800BFF0
:103370002037BD4680BD00BFF8020020001C004081
:1033800080B584B000AF78607B681B68B3F1804F74
:1033900016D10023FB60164B1B6C154A43F001034A
:1033A0001364134B1B6C03F00103FB60FB680022EA
:1033B00000211C2000F005FF1C2000F01EFF12E081
:1033C0007B681B680B4A93420DD10023BB60084BFE
:1033D0001B6C074A43F080031364054B1B6C03F01E
:1033E0008003BB60BB6800BF1037BD4680BD00BF17
:1033F00000380240001C004080B588B000AF786003
:1034000007F10C0300221A605A609A60DA601A61B0
:103410007B681B68124A93421ED10023BB60114B8C
:103420001B6B104A43F0200313630E4B1B6B03F01E
:103430002003BB60BB684FF48073FB6002233B61D9
:1034400000237B610023BB610923FB6107F10C03AF
:103450001946054801F0EEFA00BF2037BD4680BD91
:10346000001C0040003802400014024080B500AF4C
:1034700001220349034804F0E8FF00BF80BD00BFFC
:10348000D0000020EC03002080B582B000AF78604F
:103490007A680749074805F0C3FF03469AB20A2332
:1034A0000449054804F03FFF00BF0837BD4680BD12
:1034B000509D000888030020EC03002080B582B0F6
:1034C00000AF78607B681B68084A93420AD10A23E0
:1034D00001220749074804F026FF01220449054854
:1034E00004F0B3FF00BF0837BD4680BD00100140A7
:1034F000D0000020EC03002080B500AF114B124A31
:103500001A60104B4FF4E1325A600E4B00229A6061
:103510000C4B0022DA600B4B00221A61094B0C2283
:103520005A61084B00229A61064B0022DA61054875
:1035300004F0ACFE0346002B01D0FFF75DFB00BF9B
:1035400080BD00BFEC0300200010014080B58AB0B0
:1035500000AF786007F1140300221A605A609A6085
:10356000DA601A617B681B681D4A934234D10023DC
:103570003B611C4B5B6C1B4A43F010035364194BBB
:103580005B6C03F010033B613B690023FB60154B50
:103590001B6B144A43F001031363124B1B6B03F0C4
:1035A0000103FB60FB684FF4C0637B610223BB61D6
:1035B0000023FB6103233B6207237B6207F11403B3
:1035C0001946094801F036FA00220021252000F0B2
:1035D000F8FD252000F011FE00BF2837BD4680BD54
:1035E00000100140003802400000024080B483B067
:1035F00000AF0346FB71FB791B09DBB21A46920050
:1036000013445B00DAB2FB7903F00F03DBB213441F
:10361000DBB218460C37BD465DF8047B70470000EE
:1036200080B483B000AF0346FB71FB790D4AA2FB67
:103630000323DB08DBB21B0158B2FA79094BA3FB69
:103640000213D9080B469B000B445B00D31ADBB274
:103650005BB203435BB2DBB218460C37BD465DF884
:10366000047B7047CDCCCCCCDFF834D00D480E496C
:103670000E4A002302E0D458C4500433C4188C42CC
:10368000F9D30B4A0B4C002301E013600432A24231
:10369000FBD3FFF7C9FD05F097FEFEF783FE7047E9
:1036A00000000220000000208000002048CD00081B
:1036B0008000002044040020FEE7000080B500AF39
:1036C0000E4B1B680D4A43F4007313600B4B1B68D1
:1036D0000A4A43F480631360084B1B68074A43F4AB
:1036E00080731360032000F061FD0F2000F008F8E4
:1036F000FFF7F4FC0023184680BD00BF003C0240E9
:1037000080B582B000AF7860124B1A68124B1B78FC
:1037100019464FF47A73B3FBF1F3B2FBF3F3184697
:1037200000F079FD0346002B01D001230EE07B68F9
:103730000F2B0AD8002279684FF0FF3000F041FDCE
:10374000064A7B681360002300E00123184608370F
:10375000BD4680BD1000002018000020140000208D
:1037600080B400AF064B1B781A46064B1B68134407
:10377000044A136000BFBD465DF8047B704700BF7C
:10378000180000203004002080B400AF034B1B68F9
:103790001846BD465DF8047B704700BF300400202A
:1037A00080B584B000AF7860FFF7EEFFB8607B684B
:1037B000FB60FB68B3F1FF3F05D00A4B1B781A464C
:1037C000FB681344FB6000BFFFF7DEFF0246BB68E7
:1037D000D31AFA689A42F7D800BF00BF1037BD4627
:1037E00080BD00BF1800002080B584B000AF7860B5
:1037F0000023FB737B68002B01D1012333E07B683E
:103800001B6C002B09D17868FDF756FB7B68002202
:103810005A647B68002283F83C207B681B6C03F0B1
:103820001003002B18D17B681B6C23F4885323F002
:10383000020343F002027B681A64786800F068FAB9
:103840007B6800225A647B681B6C23F0030343F0FF
:1038500001027B681A6401E00123FB737B6800228C
:1038600083F83C20FB7B18461037BD4680BD000026
:1038700080B586B000AFF860B9607A6000233B6124
:10388000FB6893F83C30012B01D10223E9E0FB688F
:10389000012283F83C20FB681B689B6803F001034E
:1038A000012B18D0FB681B689A68FB681B6842F004
:1038B00001029A606D4B1B686D4AA2FB03239A0CB0
:1038C00013465B0013443B6102E03B69013B3B61F3
:1038D0003B69002BF9D1FB681B689B6803F480737C
:1038E000B3F5807F07D1FB681B689A68FB681B688B
:1038F00022F480729A60FB681B689B6803F00103E6
:10390000012B40F0A180FB681B6C23F4E06323F0E3
:10391000010343F48072FB681A64FB681B685B68F0
:1039200003F48063002B07D0FB681B6C23F4405327
:1039300043F48052FB681A64FB681B6C03F48053E9
:10394000B3F5805F06D1FB685B6C23F00602FB6871
:103950005A6402E0FB6800225A64FB68002283F884
:103960003C20444B7B61FB689B6B434ADA63FB68FA
:103970009B6B424A1A64FB689B6B414ADA64FB68A2
:103980001B686FF022021A60FB681B685A68FB68AC
:103990001B6842F080625A60FB681B689A68FB688B
:1039A0001B6842F480729A60FB68986BFB681B6826
:1039B0004C331946BA687B6800F0E8FC7B695B68A9
:1039C00003F01F03002B2AD1FB681B682D4A93428A
:1039D00015D0FB681B682C4A934205D1254B5B68C8
:1039E00003F01F03002B0AD0FB681B68274A934291
:1039F00036D1204B5B6803F01003002B30D1FB68FD
:103A00001B689B6803F04053002B29D1FB681B689F
:103A10009A68FB681B6842F080429A6020E0FB686D
:103A20001B68184A93421BD1FB681B689B6803F014
:103A30004053002B14D1FB681B689A68FB681B6815
:103A400042F080429A600BE0FB681B6C43F010026E
:103A5000FB681A64FB685B6C43F00102FB685A6404
:103A6000002318461837BD4680BD00BF1000002057
:103A700083DE1B4300230140093F0008C33F0008C9
:103A8000DF3F0008002001400021014000220140EA
:103A900080B483B000AF786000BF0C37BD465DF8DE
:103AA000047B704780B483B000AF786000BF0C37F0
:103AB000BD465DF8047B704780B483B000AF78608A
:103AC00000BF0C37BD465DF8047B704780B485B0FD
:103AD00000AF786039600023BB607B6893F83C30AE
:103AE000012B01D1022305E17B68012283F83C20F0
:103AF0003B681B68092B25D97B681B68D9683B6824
:103B00001B689BB21A4613465B0013441E3B0722F8
:103B100002FA03F3DA437B681B680A40DA607B68C9
:103B20001B68D9683B689A683B681B689BB218465B
:103B300003465B0003441E3B9A407B681B680A43B4
:103B4000DA6022E07B681B6819693B681B689BB2DE
:103B50001A4613465B001344072202FA03F3DA43C2
:103B60007B681B680A401A617B681B6819693B689F
:103B70009A683B681B689BB2184603465B00034487
:103B80009A407B681B680A431A613B685B68062B96
:103B900024D87B681B68596B3B685A6813469B00A6
:103BA0001344053B1F2202FA03F3DA437B681B68C8
:103BB0000A405A637B681B68596B3B681B689BB261
:103BC00018463B685A6813469B001344053B00FAAD
:103BD00003F27B681B680A435A634CE03B685B68EE
:103BE0000C2B24D87B681B68196B3B685A681346FA
:103BF0009B001344233B1F2202FA03F3DA437B6842
:103C00001B680A401A637B681B68196B3B681B685A
:103C10009BB218463B685A6813469B001344233BEB
:103C200000FA03F27B681B680A431A6323E07B688F
:103C30001B68D96A3B685A6813469B001344413B92
:103C40001F2202FA03F3DA437B681B680A40DA6238
:103C50007B681B68D96A3B681B689BB218463B6847
:103C60005A6813469B001344413B00FA03F27B68F9
:103C70001B680A43DA62224BFB607B681B68214A9F
:103C8000934209D13B681B68122B05D1FB685B6826
:103C900043F48002FB685A607B681B68194A9342B0
:103CA00023D13B681B68102B03D03B681B68112B8A
:103CB0001BD1FB685B6843F40002FB685A603B68F9
:103CC0001B68102B11D1104B1B68104AA2FB032359
:103CD0009A0C13469B0013445B00BB6002E0BB6878
:103CE000013BBB60BB68002BF9D17B68002283F8E5
:103CF0003C20002318461437BD465DF8047B70470E
:103D000000230140002001401000002083DE1B43FF
:103D100080B485B000AF7860794BFB60FB685B686E
:103D200023F44032FB685A60FB685A687B685B6822
:103D30001A43FB685A607B681B685A687B681B687B
:103D400022F480725A607B681B6859687B681B6923
:103D50001A027B681B680A435A607B681B685A68B2
:103D60007B681B6822F040725A607B681B68596848
:103D70007B689A687B681B680A435A607B681B688B
:103D80009A687B681B6822F400629A607B681B68F3
:103D900099687B68DA687B681B680A439A607B686D
:103DA0009B6A584A934222D07B681B689A687B685A
:103DB0001B6822F070629A607B681B6899687B6858
:103DC0009A6A7B681B680A439A607B681B689A68DA
:103DD0007B681B6822F040529A607B681B68996878
:103DE0007B68DA6A7B681B680A439A600FE07B682D
:103DF0001B689A687B681B6822F070629A607B6817
:103E00001B689A687B681B6822F040529A607B6846
:103E10001B689A687B681B6822F002029A607B68C4
:103E20001B6899687B681B7E5A007B681B680A4385
:103E30009A607B6893F82030002B1BD07B681B684E
:103E40005A687B681B6842F400625A607B681B6892
:103E50005A687B681B6822F460425A607B681B6862
:103E600059687B685B6A013B5A037B681B680A439D
:103E70005A6007E07B681B685A687B681B6822F4FD
:103E800000625A607B681B68DA6A7B681B6822F4F0
:103E90007002DA627B681B68D96A7B68DB69013B68
:103EA0001A057B681B680A43DA627B681B689A689C
:103EB0007B681B6822F400729A607B681B689968B3
:103EC0007B6893F830305A027B681B680A439A601B
:103ED0007B681B689A687B681B6822F480629A6022
:103EE0007B681B6899687B685B699A027B681B68C2
:103EF0000A439A6000BF1437BD465DF8047B7047E3
:103F0000002301400100000F80B584B000AF78604D
:103F10007B689B6BFB60FB681B6C03F05003002B02
:103F20003CD1FB681B6C43F40072FB681A64FB68AD
:103F30001B689B6803F04053002B2BD1FB681B7E52
:103F4000002B27D1FB681B68DB6A03F47003002B8E
:103F500006D0FB681B689B6803F48063002B19D1B3
:103F6000FB681B685A68FB681B6822F020025A60D5
:103F7000FB681B6C23F48072FB681A64FB681B6C83
:103F800003F48053002B05D1FB681B6C43F0010246
:103F9000FB681A64F868FFF77BFD0EE0FB681B6C9A
:103FA00003F01003002B03D0F868FFF785FD04E051
:103FB000FB689B6BDB6C7868984700BF1037BD4689
:103FC00080BD80B584B000AF78607B689B6BFB6080
:103FD000F868FFF767FD00BF1037BD4680BD80B5AC
:103FE00084B000AF78607B689B6BFB60FB6840220D
:103FF0001A64FB685B6C43F00402FB685A64F8685F
:10400000FFF75AFD00BF1037BD4680BD80B485B0B4
:1040100000AF78607B6803F00703FB600C4BDB6844
:10402000BB60BA684FF6FF031340BB60FB681A021F
:10403000BB68134343F0BF6343F40033BB60044ADF
:10404000BB68D36000BF1437BD465DF8047B704782
:1040500000ED00E080B400AF044BDB681B0A03F006
:1040600007031846BD465DF8047B704700ED00E08D
:1040700080B483B000AF0346FB7197F90730002B83
:104080000BDBFB7903F01F02074997F907305B0947
:10409000012000FA02F241F8232000BF0C37BD4690
:1040A0005DF8047B704700BF00E100E080B483B09E
:1040B00000AF03463960FB7197F90730002B0ADB2C
:1040C0003B68DAB20C4997F907301201D2B20B44BF
:1040D00083F800230AE03B68DAB20849FB7903F071
:1040E0000F03043B1201D2B20B441A7600BF0C3707
:1040F000BD465DF8047B704700E100E000ED00E0A4
:1041000080B489B000AFF860B9607A60FB6803F0F2
:104110000703FB61FB69C3F10703042B28BF0423DA
:10412000BB61FB690433062B02D9FB69033B00E04A
:1041300000237B614FF0FF32BB6902FA03F3DA43DD
:10414000BB681A407B699A404FF0FF317B6901FAE6
:1041500003F3D9437B680B40134318462437BD460D
:104160005DF8047B7047000080B582B000AF7860D6
:104170007B68013BB3F1807F01D301230FE00A4A42
:104180007B68013B53600F214FF0FF30FFF78EFF3C
:10419000054B00229A60044B07221A600023184640
:1041A0000837BD4680BD00BF10E000E080B582B09A
:1041B00000AF78607868FFF729FF00BF0837BD4679
:1041C00080BD80B586B000AF0346B9607A60FB73EE
:1041D00000237B61FFF73EFF78617A68B9687869F0
:1041E000FFF78EFF024697F90F3011461846FFF78A
:1041F0005DFF00BF1837BD4680BD80B582B000AFFF
:104200000346FB7197F907301846FFF731FF00BFEF
:104210000837BD4680BD80B582B000AF7860786851
:10422000FFF7A2FF034618460837BD4680BD0000D1
:1042300080B586B000AF786000237B61FFF7A4FAF9
:1042400038617B68002B01D1012399E07B68022251
:1042500083F835207B68002283F834207B681B6854
:104260001A687B681B6822F001021A600FE0FFF7F2
:104270008BFA02463B69D31A052B08D97B682022AA
:104280005A657B68032283F83520032378E07B6836
:104290001B681B6803F00103002BE8D17B681B68D7
:1042A0001B687B617A69384B13407B617B685A6875
:1042B0007B689B681A437B68DB681A437B681B69D1
:1042C0001A437B685B691A437B689B691A437B6866
:1042D000DB691A437B681B6A13437A6913437B616A
:1042E0007B685B6A042B07D17B68DA6A7B681B6B8F
:1042F00013437A6913437B617B681B687A691A6090
:104300007B681B685B697B617B6923F007037B61CA
:104310007B685B6A7A6913437B617B685B6A042B09
:1043200017D17B689B6A7A6913437B617B68DB6A80
:10433000002B0ED0786800F001FB0346002B08D05C
:104340007B6840225A657B68012283F8352001236F
:1043500016E07B681B687A695A61786800F0B8FAE1
:104360000346FB607B68DB6D3F229A40FB689A60E6
:104370007B6800225A657B68012283F83520002380
:1043800018461837BD4680BD3F8010F080B586B016
:1043900000AFF860B9607A603B600023FB75FB6892
:1043A0009B6D3B61FB6893F83430012B01D10223F4
:1043B00040E0FB68012283F83420FB6893F8353035
:1043C000DBB2012B2FD1FB68022283F83520FB687A
:1043D00000225A653B687A68B968F86800F04AFAC2
:1043E000FB68DB6D3F229A403B699A60FB681B6863
:1043F0001A68FB681B6842F016021A60FB681B6CA7
:10440000002B07D0FB681B681A68FB681B6842F02A
:1044100008021A60FB681B681A68FB681B6842F098
:1044200001021A6005E0FB68002283F834200223B1
:10443000FB75FB7D18461837BD4680BD80B584B03E
:1044400000AF78607B689B6DFB60FFF79DF9B860FB
:104450007B6893F83530DBB2022B08D07B68802272
:104460005A657B68002283F83420012352E07B6880
:104470001B681A687B681B6822F016021A607B684A
:104480001B685A697B681B6822F080025A617B684E
:104490001B6C002B03D17B689B6C002B07D07B68C7
:1044A0001B681A687B681B6822F008021A607B6828
:1044B0001B681A687B681B6822F001021A6013E00F
:1044C000FFF762F90246BB68D31A052B0CD97B684B
:1044D00020225A657B68032283F835207B680022FE
:1044E00083F83420032315E07B681B681B6803F006
:1044F0000103002BE4D17B68DB6D3F229A40FB680F
:104500009A607B68012283F835207B68002283F85B
:104510003420002318461037BD4680BD80B483B0D8
:1045200000AF78607B6893F83530DBB2022B04D0A3
:104530007B6880225A6501230CE07B68052283F8A2
:1045400035207B681B681A687B681B6822F00102B3
:104550001A60002318460C37BD465DF8047B70478F
:1045600080B586B000AF78600023BB60924B1B68BB
:10457000924AA2FB03239B0A7B617B689B6D3B6194
:104580003B691B68FB607B68DB6D08229A40FB6817
:104590001340002B1AD07B681B681B6803F00403D0
:1045A000002B13D07B681B681A687B681B6822F09D
:1045B00004021A607B68DB6D08229A403B699A60AE
:1045C0007B685B6D43F001027B685A657B68DB6D3D
:1045D00001229A40FB681340002B12D07B681B68B5
:1045E0005B6903F08003002B0BD07B68DB6D01223D
:1045F0009A403B699A607B685B6D43F002027B687E
:104600005A657B68DB6D04229A40FB681340002BDF
:1046100012D07B681B681B6803F00203002B0BD0D1
:104620007B68DB6D04229A403B699A607B685B6D16
:1046300043F004027B685A657B68DB6D10229A4068
:10464000FB681340002B43D07B681B681B6803F09A
:104650000803002B3CD07B68DB6D10229A403B693D
:104660009A607B681B681B6803F48023002B18D0BA
:104670007B681B681B6803F40023002B08D17B6850
:104680001B6C002B24D07B681B6C786898471FE05C
:104690007B689B6C002B1BD07B689B6C7868984771
:1046A00016E07B681B681B6803F48073002B07D13E
:1046B0007B681B681A687B681B6822F008021A6016
:1046C0007B681B6C002B03D07B681B6C7868984759
:1046D0007B68DB6D20229A40FB681340002B00F0C2
:1046E0008E807B681B681B6803F01003002B00F0B2
:1046F00086807B68DB6D20229A403B699A607B68EC
:1047000093F83530DBB2052B36D17B681B681A680D
:104710007B681B6822F016021A607B681B685A6966
:104720007B681B6822F080025A617B681B6C002B3F
:1047300003D17B689B6C002B07D07B681B681A68D1
:104740007B681B6822F008021A607B68DB6D3F22E1
:104750009A403B699A607B68012283F835207B6828
:10476000002283F834207B681B6D002B7DD07B6892
:104770001B6D7868984778E07B681B681B6803F4BA
:104780008023002B1CD07B681B681B6803F400236C
:10479000002B08D17B685B6C002B30D07B685B6C96
:1047A000786898472BE07B68DB6B002B27D07B6811
:1047B000DB6B7868984722E010000020B5814E1B23
:1047C0007B681B681B6803F48073002B0FD17B6828
:1047D0001B681A687B681B6822F010021A607B68ED
:1047E000012283F835207B68002283F834207B681F
:1047F000DB6B002B03D07B68DB6B786898477B68AA
:104800005B6D002B32D07B685B6D03F00103002BE6
:1048100022D07B68052283F835207B681B681A68E4
:104820007B681B6822F001021A60BB680133BB6021
:104830007A699A4207D37B681B681B6803F00103FF
:10484000002BF2D100E000BF7B68012283F8352005
:104850007B68002283F834207B68DB6C002B05D05A
:104860007B68DB6C7868984700E000BF1837BD466E
:1048700080BD00BF80B485B000AFF860B9607A60D9
:104880003B60FB681B681A68FB681B6822F4802287
:104890001A60FB681B683A685A60FB689B68402B8B
:1048A00008D1FB681B687A689A60FB681B68BA6865
:1048B000DA6007E0FB681B68BA689A60FB681B68EF
:1048C0007A68DA6000BF1437BD465DF8047B704734
:1048D00080B485B000AF78607B681B68DBB2103BAA
:1048E000144AA2FB03231B09FB60134AFB68134411
:1048F0001B781A467B68DA65FB68032B09D97B684D
:104900001B6823F47F7323F003031A1D7B689A65E9
:1049100007E07B681B6823F47F7323F003037A6846
:1049200093657B689B6D18461437BD465DF8047B24
:10493000704700BFABAAAAAAFCCC000880B485B01F
:1049400000AF78600023FB737B689B6ABB607B6869
:104950009B69002B1FD1BB68032B56D801A252F8CC
:1049600023F000BF75490008874900087549000811
:104970000B4A00087B68DB6A03F08073002B46D08B
:104980000123FB7343E07B68DB6AB3F1C07F40D156
:104990000123FB733DE07B689B69B3F5005F21D188
:1049A000BB68032B37D801A252F823F0BD49000899
:1049B000C3490008BD490008D54900080123FB731D
:1049C00030E07B68DB6A03F08073002B25D0012385
:1049D000FB7322E07B68DB6AB3F1C07F1FD1012348
:1049E000FB731CE0BB68022B03D9BB68032B03D00D
:1049F00018E00123FB7315E07B68DB6A03F080732A
:104A0000002B0ED00123FB730BE000BF0AE000BFB8
:104A100008E000BF06E000BF04E000BF02E000BF06
:104A200000E000BFFB7B18461437BD465DF8047BF1
:104A3000704700BF80B489B000AF78603960002350
:104A40007B6100233B610023BB610023FB616BE1C1
:104A50000122FB6902FA03F37B613B681B687A69F8
:104A600013403B613A697B699A4240F05A813B6846
:104A70005B6803F00303012B05D03B685B6803F020
:104A80000303022B30D17B689B68BB61FB695B0031
:104A9000032202FA03F3DB43BA691340BB613B68AC
:104AA000DA68FB695B0002FA03F3BA691343BB617E
:104AB0007B68BA699A607B685B68BB610122FB69AD
:104AC00002FA03F3DB43BA691340BB613B685B68DE
:104AD0001B0903F00102FB6902FA03F3BA691343ED
:104AE000BB617B68BA695A603B685B6803F003038B
:104AF000032B17D07B68DB68BB61FB695B0003227B
:104B000002FA03F3DB43BA691340BB613B689A685E
:104B1000FB695B0002FA03F3BA691343BB617B686C
:104B2000BA69DA603B685B6803F00303022B23D1A8
:104B3000FB69DA087B68083253F82230BB61FB69F5
:104B400003F007039B000F2202FA03F3DB43BA6969
:104B50001340BB613B681A69FB6903F007039B00C4
:104B600002FA03F3BA691343BB61FB69DA087B6895
:104B70000832B96943F822107B681B68BB61FB6986
:104B80005B00032202FA03F3DB43BA691340BB6103
:104B90003B685B6803F00302FB695B0002FA03F306
:104BA000BA691343BB617B68BA691A603B685B688A
:104BB00003F44033002B00F0B4800023FB60604B13
:104BC0005B6C5F4A43F4804353645D4B5B6C03F45E
:104BD0008043FB60FB685B4AFB699B08023352F829
:104BE0002330BB61FB6903F003039B000F2202FA31
:104BF00003F3DB43BA691340BB617B68524A9342BB
:104C00002BD07B68514A934225D07B68504A93420F
:104C10001FD07B684F4A934219D07B684E4A93421B
:104C200013D07B684D4A93420DD07B684C4A934227
:104C300007D07B684B4A934201D107230EE008233B
:104C40000CE006230AE0052308E0042306E0032322
:104C500004E0022302E0012300E00023FA6902F0ED
:104C6000030292009340BA691343BB613549FB6963
:104C70009B080233BA6941F823203B4B1B68BB6198
:104C80003B69DB43BA691340BB613B685B6803F473
:104C90008033002B03D0BA693B691343BB61324AAE
:104CA000BB691360304B5B68BB613B69DB43BA692E
:104CB0001340BB613B685B6803F40033002B03D0F7
:104CC000BA693B691343BB61274ABB695360264BF2
:104CD0009B68BB613B69DB43BA691340BB613B68BE
:104CE0005B6803F48013002B03D0BA693B6913435C
:104CF000BB611D4ABB6993601B4BDB68BB613B69B1
:104D0000DB43BA691340BB613B685B6803F4001383
:104D1000002B03D0BA693B691343BB61124ABB69DC
:104D2000D360FB690133FB61FB690F2B7FF690AE0B
:104D300000BF00BF2437BD465DF8047B704700BF4D
:104D400000380240003801400000024000040240E8
:104D500000080240000C0240001002400014024013
:104D600000180240001C0240003C014080B483B0A7
:104D700000AF78600B467B8013467B707B78002BFE
:104D800003D07A887B689A6103E07B881A047B6889
:104D90009A6100BF0C37BD465DF8047B704780B454
:104DA00085B000AF78600B467B807B685B69FB60F9
:104DB0007A88FB6813401A04FB68D9437B880B4050
:104DC0001A437B689A6100BF1437BD465DF8047BC7
:104DD0007047000080B584B000AF78607B68002B1E
:104DE00001D101232BE17B6893F83D30DBB2002B2E
:104DF00006D17B68002283F83C207868FCF76CFCC5
:104E00007B68242283F83D207B681B681A687B68D6
:104E10001B6822F001021A607B681B681A687B68B5
:104E20001B6842F400421A607B681B681A687B6842
:104E30001B6822F400421A6001F0D8FBF8607B681E
:104E40005B68814A934207D8FB68804A934294BFCB
:104E500001230023DBB206E0FB687D4A934294BF46
:104E600001230023DBB2002B01D00123E7E0FB6824
:104E7000784AA2FB03239B0CBB607B681B685B68C2
:104E800023F03F017B681B68BA680A435A607B685D
:104E90001B681B6A23F03F017B685B686A4A934288
:104EA00002D8BB68013309E0BB684FF4967202FB7D
:104EB00003F3694AA2FB03239B0901337A68126852
:104EC0000B4313627B681B68DB6923F44F4222F0BB
:104ED000FF027B685B685C498B4219D8FB68591EEE
:104EE0007B685B685B00B1FBF3F3591C40F6FC7315
:104EF0000B40002B0AD0FB68591E7B685B685B0087
:104F0000B1FBF3F30133C3F30B0351E004234FE090
:104F10007B689B68002B11D1FB68581E7B68596821
:104F20000B465B000B44B0FBF3F30133C3F30B03FD
:104F3000002B0CBF01230023DBB212E0FB68581EDC
:104F40007B6859680B469B000B4499000B44B0FBEF
:104F5000F3F30133C3F30B03002B0CBF0123002336
:104F6000DBB2002B01D0012322E07B689B68002B81
:104F70000ED1FB68581E7B6859680B465B000B44DA
:104F8000B0FBF3F30133C3F30B0343F400430FE02F
:104F9000FB68581E7B6859680B469B000B449900C0
:104FA0000B44B0FBF3F30133C3F30B0343F440436F
:104FB000796809681343CB617B681B681B6823F021
:104FC000C0017B68DA697B681B6A1A437B681B68CF
:104FD0000A431A607B681B689B6823F4034323F031
:104FE000FF037A6811697A68D26811437A68126897
:104FF0000B4393607B681B68DB6823F0FF017B68D1
:105000005A697B689B691A437B681B680A43DA60AC
:105010007B681B681A687B681B6842F001021A6093
:105020007B6800221A647B68202283F83D207B681D
:1050300000221A637B68002283F83E200023184672
:105040001037BD4680BD00BFA08601007F841E00D2
:10505000FF083D0083DE1B43D34D621080B588B04E
:1050600002AFF860084611461A4603467B810B469C
:105070003B811346FB80FEF787FB7861FB6893F862
:105080003D30DBB2202B40F0D9807B69009319239F
:1050900001226D49F86800F07FFC0346002B01D027
:1050A0000223CCE0FB6893F83C30012B01D10223B2
:1050B000C5E0FB68012283F83C20FB681B681B6885
:1050C00003F00103012B07D0FB681B681A68FB681B
:1050D0001B6842F001021A60FB681B681A68FB68D3
:1050E0001B6822F400621A60FB68212283F83D20CD
:1050F000FB68402283F83E20FB6800221A64FB68AC
:105100003A6A5A62FB68BA8C5A85FB685B8D9AB220
:10511000FB681A85FB684D4ADA62F8883A89798912
:105120007B690193BB6A00930346F86800F0B6FA06
:105130000346002B52D0012381E07A69B96AF868EE
:1051400000F000FD0346002B0DD0FB681B6C042B08
:1051500007D1FB681B681A68FB681B6842F4007281
:105160001A6001236BE0FB685B6A1A78FB681B68B6
:105170001A61FB685B6A5A1CFB685A62FB681B8DEC
:10518000013B9AB2FB681A85FB685B8D9BB2013BC1
:105190009AB2FB685A85FB681B685B6903F00403DD
:1051A000042B1BD1FB681B8D002B17D0FB685B6A9F
:1051B0001A78FB681B681A61FB685B6A5A1CFB68FB
:1051C0005A62FB681B8D013B9AB2FB681A85FB682B
:1051D0005B8D9BB2013B9AB2FB685A85FB681B8DC5
:1051E000002BAAD17A69B96AF86800F0ECFC034692
:1051F000002B0DD0FB681B6C042B07D1FB681B68D0
:105200001A68FB681B6842F400721A60012316E0FA
:10521000FB681B681A68FB681B6842F400721A601E
:10522000FB68202283F83D20FB68002283F83E20A3
:10523000FB68002283F83C20002300E0022318468C
:105240001837BD4680BD00BF020010000000FFFF00
:1052500080B58CB002AFF860084611461A46034686
:105260007B810B463B811346FB80FEF78DFA78620B
:10527000FB6893F83D30DBB2202B40F008827B6A5C
:105280000093192301227B49F86800F085FB03464F
:10529000002B01D00223FBE1FB6893F83C30012B8B
:1052A00001D10223F4E1FB68012283F83C20FB6872
:1052B0001B681B6803F00103012B07D0FB681B6808
:1052C0001A68FB681B6842F001021A60FB681B68E1
:1052D0001A68FB681B6822F400621A60FB682222CD
:1052E00083F83D20FB68402283F83E20FB680022C3
:1052F0001A64FB683A6B5A62FB68BA8E5A85FB687F
:105300005B8D9AB2FB681A85FB685B4ADA62F888A3
:105310003A8979897B6A0193BB6B00930346F868ED
:1053200000F052FA0346002B01D00123B0E1FB68E4
:105330001B8D002B13D100233B62FB681B685B694C
:105340003B62FB681B689B693B623B6AFB681B68AE
:105350001A68FB681B6842F400721A6084E1FB68FB
:105360001B8D012B1BD1FB681B681A68FB681B682F
:1053700022F480621A600023FB61FB681B685B6992
:10538000FB61FB681B689B69FB61FB69FB681B6831
:105390001A68FB681B6842F400721A6064E1FB68DB
:1053A0001B8D022B1BD1FB681B681A68FB681B68EE
:1053B00022F480621A60FB681B681A68FB681B682D
:1053C00042F400621A600023BB61FB681B685B69E2
:1053D000BB61FB681B689B69BB61BB6944E100233F
:1053E0007B61FB681B685B697B61FB681B689B6971
:1053F0007B617B6938E1FB681B8D032B00F2F18038
:10540000FB681B8D012B23D17A6AB96BF86800F019
:105410001BFC0346002B01D0012339E1FB681B680C
:105420001A69FB685B6AD2B21A70FB685B6A5A1C25
:10543000FB685A62FB681B8D013B9AB2FB681A85B8
:10544000FB685B8D9BB2013B9AB2FB685A850BE10E
:10545000FB681B8D022B4ED17B6A0093BB6B002235
:105460000649F86800F098FA0346002B08D001239B
:105470000EE100BF020010000000FFFF0400010069
:10548000FB681B681A68FB681B6842F400721A60AC
:10549000FB681B681A69FB685B6AD2B21A70FB680A
:1054A0005B6A5A1CFB685A62FB681B8D013B9AB20F
:1054B000FB681A85FB685B8D9BB2013B9AB2FB6867
:1054C0005A85FB681B681A69FB685B6AD2B21A705E
:1054D000FB685B6A5A1CFB685A62FB681B8D013BC8
:1054E0009AB2FB681A85FB685B8D9BB2013B9AB24E
:1054F000FB685A85B8E07B6A0093BB6B0022664963
:10550000F86800F049FA0346002B01D00123BFE000
:10551000FB681B681A68FB681B6822F480621A60CB
:10552000FB681B681A69FB685B6AD2B21A70FB6879
:105530005B6A5A1CFB685A62FB681B8D013B9AB27E
:10554000FB681A85FB685B8D9BB2013B9AB2FB68D6
:105550005A857B6A0093BB6B00224F49F86800F0C4
:105560001BFA0346002B01D0012391E0FB681B6866
:105570001A68FB681B6842F400721A60FB681B68BB
:105580001A69FB685B6AD2B21A70FB685B6A5A1CC4
:10559000FB685A62FB681B8D013B9AB2FB681A8557
:1055A000FB685B8D9BB2013B9AB2FB685A85FB6836
:1055B0001B681A69FB685B6AD2B21A70FB685B6A87
:1055C0005A1CFB685A62FB681B8D013B9AB2FB6850
:1055D0001A85FB685B8D9BB2013B9AB2FB685A85CA
:1055E00042E07A6AB96BF86800F02EFB0346002BA4
:1055F00001D001234CE0FB681B681A69FB685B6AF9
:10560000D2B21A70FB685B6A5A1CFB685A62FB686C
:105610001B8D013B9AB2FB681A85FB685B8D9BB2C0
:10562000013B9AB2FB685A85FB681B685B6903F013
:105630000403042B18D1FB681B681A69FB685B6ABA
:10564000D2B21A70FB685B6A5A1CFB685A62FB682C
:105650001B8D013B9AB2FB681A85FB685B8D9BB280
:10566000013B9AB2FB685A85FB681B8D002B7FF4C7
:10567000C2AEFB68202283F83D20FB68002283F83D
:105680003E20FB68002283F83C20002300E0022338
:1056900018462837BD4680BD0400010080B588B09B
:1056A00002AFF860084611461A4603467B810B4656
:1056B0003B811346FB80FB681B681A68FB681B680C
:1056C00042F480721A607B6A00933B6A00224FF0BA
:1056D0000111F86800F060F90346002B0DD0FB685B
:1056E0001B681B6803F48073B3F5807F03D1FB68EC
:1056F0004FF400721A6403235FE07B89DBB21A4621
:10570000FB681B6802F0FE021A617B6A3A6A2D4947
:10571000F86800F098F90346002B01D001234CE013
:1057200000237B61FB681B685B697B61FB681B680E
:105730009B697B617B697A6A396AF86800F002FAD2
:105740000346002B0DD0FB681B6C042B07D1FB68B4
:105750001B681A68FB681B6842F400721A60012318
:105760002BE0FB88012B05D13B89DAB2FB681B6873
:105770001A6121E03B891B0A9BB2DAB2FB681B6805
:105780001A617A6A396AF86800F0DCF90346002B7E
:105790000DD0FB681B6C042B07D1FB681B681A68D3
:1057A000FB681B6842F400721A60012305E03B8924
:1057B000DAB2FB681B681A61002318461837BD4629
:1057C00080BD00BF0200010080B588B002AFF86064
:1057D000084611461A4603467B810B463B81134619
:1057E000FB80FB681B681A68FB681B6842F48062D8
:1057F0001A60FB681B681A68FB681B6842F48072B9
:105800001A607B6A00933B6A00224FF00111F8682E
:1058100000F0C2F80346002B0DD0FB681B681B6824
:1058200003F48073B3F5807F03D1FB684FF40072FB
:105830001A640323AAE07B89DBB21A46FB681B6863
:1058400002F0FE021A617B6A3A6A5249F86800F077
:10585000FAF80346002B01D0012397E000237B6177
:10586000FB681B685B697B61FB681B689B697B61EC
:105870007B697A6A396AF86800F064F90346002B9C
:105880000DD0FB681B6C042B07D1FB681B681A68E2
:10589000FB681B6842F400721A60012376E0FB8803
:1058A000012B05D13B89DAB2FB681B681A6121E044
:1058B0003B891B0A9BB2DAB2FB681B681A617A6AE1
:1058C000396AF86800F03EF90346002B0DD0FB68FA
:1058D0001B6C042B07D1FB681B681A68FB681B68EC
:1058E00042F400721A60012350E03B89DAB2FB688F
:1058F0001B681A617A6A396AF86800F023F903466E
:10590000002B0DD0FB681B6C042B07D1FB681B68B8
:105910001A68FB681B6842F400721A60012335E0C4
:10592000FB681B681A68FB681B6842F480721A6087
:105930007B6A00933B6A00224FF00111F86800F087
:105940002BF80346002B0DD0FB681B681B6803F483
:105950008073B3F5807F03D1FB684FF400721A6443
:10596000032313E07B89DBB243F00103DAB2FB6867
:105970001B681A617B6A3A6A0649F86800F063F8A6
:105980000346002B01D0012300E0002318461837FE
:10599000BD4680BD0200010080B584B000AFF86054
:1059A000B9603B601346FB7125E03B68B3F1FF3FF4
:1059B00021D0FDF7E9FE0246BB69D31A3A689A4244
:1059C00002D33B68002B16D1FB6800221A63FB68E8
:1059D000202283F83D20FB68002283F83E20FB68EC
:1059E0001B6C43F02002FB681A64FB68002283F8FA
:1059F0003C20012323E0BB681B0CDBB2012B0DD143
:105A0000FB681B685B69DA43BB6813409BB2002BE1
:105A10000CBF01230023DBB21A460CE0FB681B68B5
:105A20009B69DA43BB6813409BB2002B0CBF012378
:105A30000023DBB21A46FB799A42B6D000231846FF
:105A40001037BD4680BD80B584B000AFF860B96046
:105A50007A603B6051E0FB681B685B6903F480631C
:105A6000B3F5806F23D1FB681B681A68FB681B685D
:105A700042F400721A60FB681B686FF480625A611E
:105A8000FB6800221A63FB68202283F83D20FB6834
:105A9000002283F83E20FB681B6C43F00402FB6885
:105AA0001A64FB68002283F83C20012346E07B68EF
:105AB000B3F1FF3F21D0FDF767FE02463B68D31AE2
:105AC0007A689A4202D37B68002B16D1FB680022C9
:105AD0001A63FB68202283F83D20FB68002283F8CC
