:020000040800F2
:1000000000000220390B0008B50A0008BD0A0008EC
:10001000C50A0008CD0A0008D50A00080000000043
:10002000000000000000000000000000DD0A0008E1
:10003000EB0A000800000000F90A0008070B00089E
:10004000890B0008890B0008890B0008890B000840
:10005000890B0008890B0008890B0008890B000830
:10006000890B0008890B0008890B0008890B000820
:10007000890B0008890B0008890B0008890B000810
:10008000890B0008890B0008890B0008890B000800
:10009000890B0008890B0008890B0008890B0008F0
:1000A000890B0008890B0008890B0008890B0008E0
:1000B000890B0008890B0008890B0008890B0008D0
:1000C000890B0008890B0008890B0008890B0008C0
:1000D000890B0008890B0008890B0008890B0008B0
:1000E000890B0008890B0008890B0008890B0008A0
:1000F000890B0008890B0008890B0008890B000890
:10010000890B0008890B0008890B0008890B00087F
:10011000890B0008890B0008890B0008890B00086F
:10012000890B0008890B0008890B0008890B00085F
:10013000890B0008890B0008890B0008890B00084F
:10014000890B0008890B0008890B0008890B00083F
:10015000890B0008890B0008890B0008890B00082F
:10016000890B0008890B0008890B0008890B00081F
:10017000890B0008890B0008890B000800000000AB
:08018000890B0008890B00083F
:1001880010B5054C237833B9044B13B10448AFF3C9
:1001980000800123237010BD0C0000200000000027
:1001A800441B000808B5034B1BB103490348AFF3D0
:1001B800008008BD0000000010000020441B00085B
:1001C80053B94AB9002908BF00281CBF4FF0FF31B6
:1001D8004FF0FF3000F088B9ADF1080C6DE904CE9E
:1001E80000F006F8DDF804E0DDE9022304B070470A
:1001F8002DE9F047089D8E4604468846002B4AD1D3
:100208008A42174662D9B2FA82F64EB1C6F1200385
:1002180001FA06F820FA03F3B74043EA0808B440A5
:100228004FEA174E1FFA87FCB8FBFEF1230C0EFBB2
:10023800118843EA084301FB0CF29A4209D9FB18DA
:1002480001F1FF3080F0EA809A4240F2E7800239FB
:100258003B449A1AA3B2B2FBFEF00EFB102243EA0B
:10026800024300FB0CFC9C4509D9FB1800F1FF3246
:1002780080F0D6809C4540F2D3803B44023840EA67
:100288000140A3EB0C0300211DB1F3400022C5E996
:100298000032BDE8F0878B4205D90DB1C5E90001F0
:1002A80000210846F5E7B3FA83F1002946D17345E2
:1002B80002D3824200F20581841A6EEB0302012008
:1002C8009046002DE5D0C5E90048E2E7002A00F095
:1002D8009080B2FA82F6002E40F0A4808A1A030CAD
:1002E8004FEA174E80B2BCB20121B2FBFEFC0EFBF6
:1002F8001C2243EA024304FB0CF29A4207D9FB187A
:100308000CF1FF3802D29A4200F2E080C4469B1AF0
:10031800B3FBFEF20EFB123340EA034302FB04F484
:100328009C4207D9FB1802F1FF3002D29C4200F22E
:10033800CA8002461B1B42EA0C40A5E7C1F1200611
:100348008B4022FA06F71F430EFA01F420FA06F34F
:100358002EFA06FE4FEA1749234300FA01F81FFA5E
:1003680087FCBEFBF9F01C0C09FB10EE44EA0E44B6
:1003780000FB0CFEA64502FA01F209D93C1900F16E
:10038800FF3A80F09C80A64540F2998002383C44B0
:10039800A4EB0E041FFA83FEB4FBF9F309FB134424
:1003A8004EEA044403FB0CFCA44508D93C1903F1AC
:1003B800FF3E80F08280A4457FD9023B3C4443EA5B
:1003C8000040A4EB0C04A0FB02EC64457346E14634
:1003D80062D35FD05DB1B8EB030264EB090404FAA1
:1003E80006F622FA01F31E43CC40C5E90064002159
:1003F8004FE7B1FBF2FC010C41EA0E4180B240EA42
:1004080001423B4638463C46B846BE462026B1FB2C
:10041800F7F1A2EB080241EA0C4166E7014618E74A
:1004280010462CE7C6F120022EFA02F3B740B1407D
:1004380020FA02F24FEA174E0A43B3FBFEF8BCB2A9
:100448000EFB1833110C41EA034108FB04F9B040D4
:1004580089454FEA104380B23ED9791808F1FF3C2C
:1004680001D289451FD8A1EB0901B1FBFEF909FBAF
:1004780004F80EFB191192B242EA0142424529D210
:10048800BA1809F1FF31C4D24245C2D2A9F102011A
:100498003A44BEE7F0459DD2BEEB02036CEB070C75
:1004A8000138E14696E7A7EB09094944A8F1020C8F
:1004B800B1FBFEF909FB04F8DBE773467FE750461A
:1004C80066E70846FDE63B44023A33E7ACF1020C26
:1004D8003B441CE749469CE7A1EB0901C446B1FB34
:1004E800FEF909FB04F8C4E7704700BF80B500AF08
:1004F80001224FF48041084800F05CFE00224FF4CE
:100508000051054800F056FE00224FF48051024881
:1005180000F050FE00BF80BD000C024080B500AF67
:1005280000224FF48041084800F044FE01224FF4B5
:100538000051054800F03EFE00224FF48051024869
:1005480000F038FE00BF80BD000C024080B500AF4F
:1005580000224FF48041084800F02CFE00224FF49E
:100568000051054800F026FE01224FF48051024850
:1005780000F020FE00BF80BD000C024080B500AF37
:1005880001224FF48041084800F014FE01224FF484
:100598000051054800F00EFE01224FF48051024838
:1005A80000F008FE00BF80BD000C024080B500AF1F
:1005B800044B01221A70044B05221A70FFF796FFAC
:1005C80000BF80BD290000202800002080B500AFB2
:1005D800224B1B78DBB2002B2ED1214B1B78032B2F
:1005E8000FD0032B1FDC012B02D0022B12D01AE0F4
:1005F8001B4B03221A70194B03221A70FFF7A6FF30
:100608001AE0174B02221A70144B01221A70FFF7D6
:1006180085FF11E0124B01221A70104B05221A7047
:10062800FFF764FF08E00E4BFF221A700B4BFF2206
:100638001A70FFF7A3FF00BF084B1B78DBB2013B22
:10064800DAB2064B1A704FF40041064800F0CBFDB1
:100658004FF47A7000F008FB00BF80BD280000202E
:1006680029000020000C024080B500AF00F08AFA93
:1006780000F008F800F070F8FFF798FFFFF7A6FF02
:10068800FCE7000080B594B000AF07F120033022EA
:100698000021184601F026FA07F10C0300221A601F
:1006A8005A609A60DA601A610023BB60284B1B6CA1
:1006B800274A43F080531364254B1B6C03F0805387
:1006C800BB60BB6800237B60224B1B68214A43F454
:1006D800804313601F4B1B6803F480437B607B6877
:1006E80002233B620123FB6210233B630223BB63AB
:1006F8000023FB6308233B6432237B640423BB642D
:100708000723FB6407F12003184600F087FD034622
:10071800002B01D000F09CF90F23FB6002233B6102
:1007280000237B614FF4A053BB614FF48053FB61FE
:1007380007F10C030021184600F0E8FF0346002BE0
:1007480001D000F085F900BF5037BD4680BD00BF1D
:10075800003802400070004080B58CB000AF07F14F
:100768001C0300221A605A609A60DA601A6100233A
:10077800BB61B14B1B6BB04A43F010031363AE4B24
:100788001B6B03F01003BB61BB6900237B61AA4BA1
:100798001B6BA94A43F004031363A74B1B6B03F0BD
:1007A80004037B617B6900233B61A34B1B6BA24A5B
:1007B80043F080031363A04B1B6B03F080033B6182
:1007C8003B690023FB609C4B1B6B9B4A43F0010376
:1007D8001363994B1B6B03F00103FB60FB68002359
:1007E800BB60954B1B6B944A43F002031363924B17
:1007F8001B6B03F00203BB60BB6800237B608E4B5E
:100808001B6B8D4A43F0080313638B4B1B6B03F080
:1008180008037B607B68002247F20801874800F0E4
:10082800C9FC01220121864800F0C4FC00224FF2D5
:100838001001844800F0BEFC0823FB6101233B62E1
:1008480000237B620023BB6207F11C0319467B4827
:1008580000F014FB4FF4E043FB6101233B620123EA
:100868007B620023BB6207F11C031946734800F042
:1008780005FB0123FB6101233B6200237B6200230C
:10088800BB6207F11C0319466D4800F0F7FA08230C
:10089800FB6102233B6200237B620023BB620523CA
:1008A800FB6207F11C031946654800F0E7FA0123CB
:1008B800FB614FF488133B6200237B6207F11C0342
:1008C8001946614800F0DAFA1023FB6102233B6203
:1008D80000237B620023BB620623FB6207F11C0333
:1008E8001946594800F0CAFAE023FB6102233B622B
:1008F80000237B620023BB620523FB6207F11C0314
:100908001946514800F0BAFA0423FB6100233B6200
:1009180000237B6207F11C0319464C4800F0AEFA2D
:100928004FF48063FB6102233B6200237B62002358
:10093800BB620523FB6207F11C031946434800F01C
:100948009DFA4FF47043FB6101233B6201237B62F4
:100958000023BB6207F11C0319463A4800F08EFADF
:100968004FF4A453FB6102233B6200237B62002304
:10097800BB620623FB6207F11C031946304800F0EE
:100988007DFA4FF40073FB6100233B6200237B6216
:1009980007F11C0319462C4800F070FA4FF4E05395
:1009A800FB6102233B6200237B620023BB620A23B4
:1009B800FB6207F11C031946234800F05FFA102375
:1009C800FB6101233B6200237B620023BB6207F1CA
:1009D8001C0319461B4800F051FA2023FB61002331
:1009E8003B6200237B6207F11C031946154800F09F
:1009F80045FA4FF41073FB6112233B6200237B62BC
:100A08000023BB620423FB6207F11C0319460F484D
:100A180000F034FA0223FB614FF490133B62002389
:100A28007B6207F11C031946044800F027FA00BF4F
:100A38003037BD4680BD00BF00380240001002407C
:100A480000080240000C024000000240000402407E
:100A580080B400AF72B600BF00BFFDE780B582B0BA
:100A680000AF00237B60104B5B6C0F4A43F480435C
:100A780053640D4B5B6C03F480437B607B680023FD
:100A88003B60094B1B6C084A43F080531364064BC8
:100A98001B6C03F080533B603B68072000F0BAF9F9
:100AA80000BF0837BD4680BD0038024080B400AFA3
:100AB80000BFFDE780B400AF00BFFDE780B400AF22
:100AC80000BFFDE780B400AF00BFFDE780B400AF12
:100AD80000BFFDE780B400AF00BFBD465DF8047BF2
:100AE800704780B400AF00BFBD465DF8047B704717
:100AF80080B400AF00BFBD465DF8047B704780B589
:100B080000AF00F091F800BF80BD000080B400AFD6
:100B1800064BD3F88830054A43F47003C2F888308E
:100B280000BFBD465DF8047B704700BF00ED00E0E4
:100B3800DFF834D0FFF7EAFF0C480D490D4A0023CF
:100B480002E0D458C4500433C4188C42F9D30A4A7A
:100B58000A4C002301E013600432A242FBD300F0E8
:100B6800C9FFFFF781FD7047000002200000002048
:100B78000C0000207C1B00080C0000203000002026
:100B8800FEE7000080B500AF0E4B1B680D4A43F42A
:100B9800007313600B4B1B680A4A43F480631360AD
:100BA800084B1B68074A43F480731360032000F066
:100BB80031F9002000F008F8FFF750FF002318462D
:100BC80080BD00BF003C024080B582B000AF7860B5
:100BD800124B1A68124B1B7819464FF47A73B3FB01
:100BE800F1F3B2FBF3F3184600F03BF90346002B90
:100BF80001D001230EE07B680F2B0AD80022796808
:100C08004FF0FF3000F011F9064A7B6813600023AB
:100C180000E0012318460837BD4680BD00000020CB
:100C2800080000200400002080B400AF064B1B78A9
:100C38001A46064B1B681344044A136000BFBD469E
:100C48005DF8047B704700BF080000202C000020DE
:100C580080B400AF034B1B681846BD465DF8047BA3
:100C6800704700BF2C00002080B584B000AF7860CA
:100C7800FFF7EEFFB8607B68FB60FB68B3F1FF3FEE
:100C880005D00A4B1B781A46FB681344FB6000BF6B
:100C9800FFF7DEFF0246BB68D31AFA689A42F7D814
:100CA80000BF00BF1037BD4680BD00BF0800002050
:100CB80080B485B000AF78607B6803F00703FB6001
:100CC8000C4BDB68BB60BA684FF6FF031340BB6090
:100CD800FB681A02BB68134343F0BF6343F4003355
:100CE800BB60044ABB68D36000BF1437BD465DF8DB
:100CF800047B704700ED00E080B400AF044BDB6874
:100D08001B0A03F007031846BD465DF8047B7047CD
:100D180000ED00E080B483B000AF03463960FB719A
:100D280097F90730002B0ADB3B68DAB20C4997F9D0
:100D380007301201D2B20B4483F800230AE03B6863
:100D4800DAB20849FB7903F00F03043B1201D2B26F
:100D58000B441A7600BF0C37BD465DF8047B70471C
:100D680000E100E000ED00E080B489B000AFF86079
:100D7800B9607A60FB6803F00703FB61FB69C3F1A4
:100D88000703042B28BF0423BB61FB690433062B2C
:100D980002D9FB69033B00E000237B614FF0FF327F
:100DA800BB6902FA03F3DA43BB681A407B699A40CD
:100DB8004FF0FF317B6901FA03F3D9437B680B409D
:100DC800134318462437BD465DF8047B704700007E
:100DD80080B582B000AF78607B68013BB3F1807F5B
:100DE80001D301230FE00A4A7B68013B53600F21BE
:100DF8004FF0FF30FFF78EFF054B00229A60044B3F
:100E080007221A60002318460837BD4680BD00BF78
:100E180010E000E080B582B000AF78607868FFF736
:100E280047FF00BF0837BD4680BD80B586B000AF1C
:100E38000346B9607A60FB7300237B61FFF75CFFB0
:100E480078617A68B9687869FFF78EFF024697F982
:100E58000F3011461846FFF75DFF00BF1837BD4633
:100E680080BD80B582B000AF78607868FFF7B0FFCA
:100E7800034618460837BD4680BD000080B489B0D7
:100E880000AF7860396000237B6100233B61002359
:100E9800BB610023FB616BE10122FB6902FA03F3EA
:100EA8007B613B681B687A6913403B613A697B69DF
:100EB8009A4240F05A813B685B6803F00303012BB8
:100EC80005D03B685B6803F00303022B30D17B68D5
:100ED8009B68BB61FB695B00032202FA03F3DB43F7
:100EE800BA691340BB613B68DA68FB695B0002FAC8
:100EF80003F3BA691343BB617B68BA699A607B687C
:100F08005B68BB610122FB6902FA03F3DB43BA6940
:100F18001340BB613B685B681B0903F00102FB6976
:100F280002FA03F3BA691343BB617B68BA695A6072
:100F38003B685B6803F00303032B17D07B68DB680F
:100F4800BB61FB695B00032202FA03F3DB43BA6966
:100F58001340BB613B689A68FB695B0002FA03F3C4
:100F6800BA691343BB617B68BA69DA603B685B683E
:100F780003F00303022B23D1FB69DA087B680832EC
:100F880053F82230BB61FB6903F007039B000F2273
:100F980002FA03F3DB43BA691340BB613B681A6981
:100FA800FB6903F007039B0002FA03F3BA691343D2
:100FB800BB61FB69DA087B680832B96943F822101B
:100FC8007B681B68BB61FB695B00032202FA03F3C1
:100FD800DB43BA691340BB613B685B6803F00302FB
:100FE800FB695B0002FA03F3BA691343BB617B68D0
:100FF800BA691A603B685B6803F44033002B00F061
:10100800B4800023FB60604B5B6C5F4A43F4804311
:1010180053645D4B5B6C03F48043FB60FB685B4A85
:10102800FB699B08023352F82330BB61FB6903F06C
:1010380003039B000F2202FA03F3DB43BA69134050
:10104800BB617B68524A93422BD07B68514A9342DA
:1010580025D07B68504A93421FD07B684F4A934201
:1010680019D07B684E4A934213D07B684D4A93420D
:101078000DD07B684C4A934207D07B684B4A934219
:1010880001D107230EE008230CE006230AE005231C
:1010980008E0042306E0032304E0022302E001231E
:1010A80000E00023FA6902F0030292009340BA6953
:1010B8001343BB613549FB699B080233BA6941F8A0
:1010C80023203B4B9B68BB613B69DB43BA691340F8
:1010D800BB613B685B6803F48013002B03D0BA69DB
:1010E8003B691343BB61324ABB699360304BDB6891
:1010F800BB613B69DB43BA691340BB613B685B6812
:1011080003F40013002B03D0BA693B691343BB6196
:10111800274ABB69D360264B5B68BB613B69DB43ED
:10112800BA691340BB613B685B6803F40033002B6A
:1011380003D0BA693B691343BB611D4ABB6953605D
:101148001B4B1B68BB613B69DB43BA691340BB613E
:101158003B685B6803F48033002B03D0BA693B69B2
:101168001343BB61124ABB691360FB690133FB611E
:10117800FB690F2B7FF690AE00BF00BF2437BD463A
:101188005DF8047B704700BF00380240003801401A
:10119800000002400004024000080240000C024027
:1011A800001002400014024000180240001C0240D7
:1011B800003C014080B483B000AF78600B467B8070
:1011C80013467B707B78002B03D07A887B689A6102
:1011D80003E07B881A047B689A6100BF0C37BD4620
:1011E8005DF8047B704780B485B000AF78600B462B
:1011F8007B807B685B69FB607A88FB6813401A0414
:10120800FB68D9437B880B401A437B689A6100BF0F
:101218001437BD465DF8047B7047000080B586B082
:1012280000AF78607B68002B01D1012367E27B68FF
:101238001B6803F00103002B75D0884B9B6803F0F3
:101248000C03042B0CD0854B9B6803F00C03082B74
:1012580012D1824B5B6803F48003B3F5800F0BD186
:101268007E4B1B6803F40033002B5BD07B685B6804
:10127800002B57D1012342E27B685B68B3F5803FBE
:1012880006D1764B1B68754A43F4803313601DE022
:101298007B685B68B3F5A02F0CD1704B1B686F4A55
:1012A80043F4802313606D4B1B686C4A43F480330E
:1012B80013600BE0694B1B68684A23F480331360A2
:1012C800664B1B68654A23F4802313607B685B6860
:1012D800002B13D0FFF7BCFC386108E0FFF7B8FC1F
:1012E80002463B69D31A642B01D9032307E25B4BFF
:1012F8001B6803F40033002BF0D014E0FFF7A8FCC0
:10130800386108E0FFF7A4FC02463B69D31A642B56
:1013180001D90323F3E1514B1B6803F40033002B7D
:10132800F0D100E000BF7B681B6803F00203002BCC
:1013380063D04A4B9B6803F00C03002B0BD0474B40
:101348009B6803F00C03082B1CD1444B5B6803F427
:101358008003002B16D1414B1B6803F00203002BBE
:1013680005D07B68DB68012B01D00123C7E13B4B2B
:101378001B6823F0F8027B681B69DB0037491343BD
:101388000B603AE07B68DB68002B20D0344B0122ED
:101398001A60FFF75DFC386108E0FFF759FC024668
:1013A8003B69D31A022B01D90323A8E12B4B1B68F5
:1013B80003F00203002BF0D0284B1B6823F0F8023F
:1013C8007B681B69DB00254913430B6015E0244B40
:1013D80000221A60FFF73CFC386108E0FFF738FC90
:1013E80002463B69D31A022B01D9032387E11B4B21
:1013F8001B6803F00203002BF0D17B681B6803F025
:101408000803002B36D07B685B69002B16D0154B80
:1014180001221A60FFF71CFC386108E0FFF718FC8E
:1014280002463B69D31A022B01D9032367E10B4B10
:101438005B6F03F00203002BF0D01BE0094B002286
:101448001A60FFF705FC38610EE0FFF701FC024661
:101458003B69D31A022B07D9032350E10038024015
:1014680000004742800E4742884B5B6F03F002033F
:10147800002BEAD17B681B6803F00403002B00F003
:1014880097800023FB75814B1B6C03F08053002B66
:101498000FD10023BB607D4B1B6C7C4A43F080530B
:1014A80013647A4B1B6C03F08053BB60BB68012349
:1014B800FB75774B1B6803F48073002B18D1744BB2
:1014C8001B68734A43F480731360FFF7C1FB3861EC
:1014D80008E0FFF7BDFB02463B69D31A022B01D98E
:1014E80003230CE16A4B1B6803F48073002BF0D0D4
:1014F8007B689B68012B06D1644B1B6F634A43F0E2
:10150800010313671CE07B689B68052B0CD15F4BBC
:101518001B6F5E4A43F0040313675C4B1B6F5B4A07
:1015280043F0010313670BE0584B1B6F574A23F036
:1015380001031367554B1B6F544A23F004031367C9
:101548007B689B68002B15D0FFF782FB38610AE0A7
:10155800FFF77EFB02463B69D31A41F28832934279
:1015680001D90323CBE0494B1B6F03F00203002B87
:10157800EED014E0FFF76CFB38610AE0FFF768FB78
:1015880002463B69D31A41F28832934201D90323B8
:10159800B5E03E4B1B6F03F00203002BEED1FB7D41
:1015A800012B05D1394B1B6C384A23F08053136447
:1015B8007B689B69002B00F0A180344B9B6803F08B
:1015C8000C03082B5CD07B689B69022B41D1314B03
:1015D80000221A60FFF73CFB386108E0FFF738FB90
:1015E80002463B69D31A022B01D9032387E0274B14
:1015F8001B6803F00073002BF0D17B68DA697B6805
:101608001B6A1A437B685B6A9B011A437B689B6A67
:101618005B08013B1B041A437B68DB6A1B061B49FA
:1016280013434B601B4B01221A60FFF711FB386113
:1016380008E0FFF70DFB02463B69D31A022B01D9DC
:1016480003235CE0114B1B6803F00073002BF0D000
:1016580054E0104B00221A60FFF7FAFA386108E0EC
:10166800FFF7F6FA02463B69D31A022B01D9032386
:1016780045E0064B1B6803F00073002BF0D13DE0FA
:101688007B689B69012B07D1012338E000380240B1
:1016980000700040600047421B4B5B68FB607B6842
:1016A8009B69012B28D0FB6803F480027B68DB6907
:1016B8009A4221D1FB6803F03F027B681B6A9A4279
:1016C8001AD1FA6847F6C07313407A68526A9201D1
:1016D800934211D1FB6803F440327B689B6A5B0834
:1016E800013B1B049A4207D1FB6803F070627B68D8
:1016F800DB6A1B069A4201D0012300E0002318464A
:101708001837BD4680BD00BF0038024080B584B0A0
:1017180000AF786039607B68002B01D10123CCE0F1
:10172800684B1B6803F007033A689A420CD9654B6B
:101738003A68D2B21A70634B1B6803F007033A6821
:101748009A4201D00123B8E07B681B6803F00203CA
:10175800002B20D07B681B6803F00403002B05D006
:10176800594B9B68584A43F4E05393607B681B6865
:1017780003F00803002B05D0534B9B68524A43F4EF
:1017880060439360504B9B6823F0F0027B689B6832
:101798004D4913438B607B681B6803F00103002BE2
:1017A80044D07B685B68012B07D1474B1B6803F467
:1017B8000033002B19D101237FE07B685B68022B83
:1017C80003D07B685B68032B07D13F4B1B6803F092
:1017D8000073002B09D101236FE03B4B1B6803F01A
:1017E8000203002B01D1012367E0374B9B6823F0EC
:1017F80003027B685B68344913438B60FFF728FA60
:10180800F8600AE0FFF724FA0246FB68D31A41F2AF
:101818008832934201D903234FE02B4B9B6803F096
:101828000C027B685B689B009A42EBD1254B1B68D6
:1018380003F007033A689A420CD2224B3A68D2B2B4
:101848001A70204B1B6803F007033A689A4201D0CC
:10185800012332E07B681B6803F00403002B08D0E7
:10186800194B9B6823F4E0527B68DB6816491343E5
:101878008B607B681B6803F00803002B09D0124BB0
:101888009B6823F460427B681B69DB000E491343A5
:101898008B6000F021F802460B4B9B681B0903F094
:1018A8000F030A49CB5C22FA03F3094A1360094B78
:1018B8001B681846FFF788F9002318461037BD46FD
:1018C80080BD00BF003C0240003802405C1B00089D
:1018D80000000020040000202DE9B04F94B000AFB4
:1018E80000237B640023FB6400233B640023BB6468
:1018F800794B9B6803F00C03082B0DD0082B00F2E2
:10190800E180002B02D0042B03D0DBE0734BBB64D7
:10191800DBE0734BBB64D8E06F4B5B6803F03F03BD
:101928007B646D4B5B6803F48003002B63D06A4BC8
:101938005B689B090022BB63FA63BB6BC3F30803B4
:101948003B6300237B63D7E90C4522462B464FF0C7
:1019580000004FF00001590141EAD26150010246EE
:101968000B462146511A3961294663EB01037B6115
:101978004FF000024FF00003D7E904AB59468B0142
:10198800514643EA916351468A015146B2EB010838
:10199800594663EB01094FF000024FF000034FEA8C
:1019A800C90343EA58734FEAC8029046994623464A
:1019B80018EB0303BB602B4649EB0303FB604FF0B6
:1019C80000024FF00003D7E9024529464B022146A1
:1019D80043EAD15321464A02104619467B6C00223D
:1019E800BB62FA62D7E90A23FEF7EAFB02460B4616
:1019F8001346FB6458E0384B5B689B090022184685
:101A08001146C0F308033B6200237B62D7E90889CB
:101A180042464B464FF000004FF00001590141EAA1
:101A2800D261500102460B464146B2EB010A4946D3
:101A380063EB010B4FF000024FF000034FEA8B13EA
:101A480043EA9A634FEA8A12B2EB0A0463EB0B0586
:101A58004FF000024FF00003EB0043EA5473E2003A
:101A680014461D464346E3183B604B4645EB0303CB
:101A78007B604FF000024FF00003D7E9004529468C
:101A88008B02214643EA915321468A0210461946A1
:101A98007B6C0022BB61FA61D7E90623FEF790FB55
:101AA80002460B461346FB640B4B5B681B0C03F0AA
:101AB800030301335B003B64FA6C3B6CB2FBF3F34A
:101AC800BB6402E0054BBB6400BFBB6C18465037D3
:101AD800BD46BDE8B08F00BF003802400024F400C6
:101AE80000127A0002440346934200D1704703F87B
:101AF800011BF9E770B50D4D0D4C641BA4100026B1
:101B0800A64209D10B4D0C4C00F018F8641BA41028
:101B18000026A64205D170BD55F8043B984701360A
:101B2800EEE755F8043B98470136F2E7741B0008C6
:101B3800741B0008741B0008781B0008F8B500BF68
:101B4800F8BC08BC9E467047F8B500BFF8BC08BC96
:041B58009E467047EE
:101B5C000000000000000000010203040607080951
:081B6C008CE6FF7F0100000080
:041B7400AD010008B7
:041B780089010008D7
:0C1B7C000024F400100000000100000034
:0400000508000B39AB
:00000001FF
