:020000040800F2
:1000000000000220452400084D2200085522000867
:100010005D220008652200086D2200080000000033
:100020000000000000000000000000007522000831
:100030008322000800000000912200089F2200088F
:1000400095240008952400089524000895240008AC
:10005000952400089524000895240008952400089C
:10006000952400089524000895240008952400088C
:10007000952400089524000895240008952400087C
:10008000952400089524000895240008952400086C
:10009000952400089524000895240008952400085C
:1000A000952400089524000895240008952400084C
:1000B000AD22000895240008952400089524000826
:1000C000952400089524000895240008952400082C
:1000D000952400089524000895240008952400081C
:1000E000952400089524000895240008952400080C
:1000F00095240008952400089524000895240008FC
:1001000095240008952400089524000895240008EB
:1001100095240008952400089524000895240008DB
:1001200095240008952400089524000895240008CB
:1001300095240008952400089524000895240008BB
:1001400095240008952400089524000895240008AB
:10015000952400089524000895240008952400089B
:10016000952400089524000895240008952400088B
:10017000952400089524000895240008000000003C
:080180009524000895240008F5
:1001880010B5054C237833B9044B13B10448AFF3C9
:1001980000800123237010BD14000020000000001F
:1001A8000C5D000808B5034B1BB103490348AFF3C6
:1001B800008008BD00000000180000200C5D000849
:1001C80053B94AB9002908BF00281CBF4FF0FF31B6
:1001D8004FF0FF3000F06AB9ADF1080C6DE904CEBC
:1001E80000F006F8DDF804E0DDE9022304B070470A
:1001F8002DE9F047089D0C46002B4ED194468C45BE
:100208008646B2FA82F262D94AB1C2F1200391401D
:1002180020FA03F30CFA02FC194300FA02FE4FEA33
:100228001C471FFA8CF6B1FBF7F44FEA1E4307FB95
:10023800141143EA014304FB06F199420AD91CEB65
:10024800030304F1FF3080F01281994240F20F81DC
:10025800023C6344591A1FFA8EF3B1FBF7F007FB0F
:10026800101143EA014300FB06F69E420AD91CEB33
:10027800030300F1FF3180F0FC809E4240F2F980D8
:10028800634402389B1B40EA044000211DB1D3405F
:100298000022C5E90032BDE8F0878B4205D90DB1CF
:1002A800C5E9000100210846F5E7B3FA83F1002902
:1002B80046D1A34202D39042C0F0F080861A64EB84
:1002C80003030120002DE6D0C5E90063E3E7002A17
:1002D80040F09080A1EB0C044FEA1C481FFA8CF701
:1002E8000121B4FBF8F64FEA1E4308FB164443EA23
:1002F800044307FB06F0984208D91CEB030306F1F8
:10030800FF3402D2984200F2CD8026461C1A1FFA0A
:100318008EF3B4FBF8F008FB104443EA044300FBF7
:1003280007F79F4208D91CEB030300F1FF3402D200
:100338009F4200F2B0802046DB1B40EA0640A5E75A
:10034800C1F120068B4022FA06F71F4320FA06FC6B
:1003580004FA01F343EA0C03F44000FA01F8380CFC
:100368004FEA1349B4FBF0FE1FFA87FC00FB1E445A
:1003780049EA04440EFB0CF9A14502FA01F20AD934
:100388003C190EF1FF3A80F08480A14540F281804B
:10039800AEF1020E3C44A4EB09041FFA83F9B4FB46
:1003A800F0F300FB134449EA044403FB0CFCA445A6
:1003B80007D93C1903F1FF3067D2A44565D9023B40
:1003C8003C4443EA0E40A0FB0293A4EB0C049C427D
:1003D800CE469C4651D34ED055B1B8EB0E0364EBD4
:1003E8000C0404FA06F6CB401E43CC40C5E9006471
:1003F800002150E7C2F1200320FA03F10CFA02FCB5
:1004080024FA03F394400C434FEA1C4800FA02FE16
:100418001FFA8CF7B3FBF8F008FB1031230C43EA02
:10042800014300FB07F1994208D91CEB030300F1D3
:10043800FF362CD299422AD9023863445B1AA4B2F7
:10044800B3FBF8F108FB113344EA034401FB07F35B
:10045800A34208D91CEB040401F1FF3613D2A342CE
:1004680011D902396444E41A41EA004139E70446E3
:10047800F0E6084606E7C845AED2B9EB020E63EBD4
:10048800070C0138A8E73146EDE7034699E73046FF
:10049800D4E7D6467FE7634402384DE7064623464D
:1004A80008460FE7023E634430E700BF704700BFCD
:1004B80080B500AF01220821024802F02DFB00BFE1
:1004C80080BD00BF000C024080B584B000AF0022A0
:1004D80008212F4802F020FB012208212C4802F0B5
:1004E8001BFB0A2302222B492B4804F066FA00233F
:1004F800FB604FF400437B8100237B603FE07B6817
:10050800002B06DB7B68032B03DC7B680433FB6072
:1005180018E07B68032B07DD7B68072B04DC7B680E
:10052800C3F10703FB600DE07B68072B06DD7B68E2
:100538000B2B03DC7B680433FB6003E07B68C3F1AF
:100548001703FB60134B1A887B8913409BB2002B5F
:1005580005D0124AFB68002122F8131009E00F4A5F
:10056800FB6832F81330013399B20C4AFB6822F861
:1005780013107B895B087B817B6801337B607B6818
:100588000F2BBCDD00BF00BF1037BD4680BD00BFCC
:10059800000C0240500000202C01002030000020F8
:1005A80080B500AF012001F025FF03461A461C4B19
:1005B8001A70022001F01EFF03461A46184B5A70A3
:1005C800012001F017FF03461A46154B9A700620C2
:1005D80001F010FF03461A46114BDA700F2001F0A4
:1005E80009FF03461A460E4B1A71092001F002FF53
:1005F80003461A460A4B5A71172001F0FBFE0346C0
:100608001A46074B9A7132230322D021054802F07B
:1006180001FF0346002B01D000BFFDE700BF80BDEE
:1006280054000020B800002080B588B004AF03460D
:100638000A46FB711346BB71BB79184601F0DAFE16
:100648000346FB73FB799AB20A23029301230193B1
:1006580007F10F0300930123D021034802F0BAFBEE
:1006680000BF1037BD4680BDB800002080B584B0FB
:1006780004AF0A23029307230193254B0093012318
:100688000022D021234802F09FFC214B1B781846FA
:1006980001F096FE03461A461F4B1A701C4B5B78F6
:1006A800184601F08DFE03461A461C4B1A70184B6B
:1006B8009B78184601F084FE03461A46184B1A70B8
:1006C800134BDB78184601F07BFE03461A46154BA0
:1006D8001A700F4B1B79184601F072FE03461A4632
:1006E800114B1A700A4B5B79184601F069FE0346F4
:1006F8001A460E4B1A70064B9B79184601F060FE9D
:1007080003461A460A4B1A7000BFBD4680BD00BF9B
:1007180054000020B80000205D0000205C0000208C
:100728005B0000205F0000205E00002060000020C9
:100738006100002080B58EB000AF07F11C030022D5
:100748001A605A609A60DA601A615A619A613B4687
:1007580000221A605A609A60DA601A615A619A61D6
:100768002F4B4FF020421A602D4B2E4A5A602C4BCB
:1007780000229A602A4B0022DA60294B00221A6173
:10078800274B10225A61264B00229A61244B0022E3
:10079800DA61234B00221A62214B00225A62204B55
:1007A8004FF480529A621E4B0022DA621C4B4FF4BF
:1007B80080421A631A4B00225A63194B00229A632B
:1007C800174B00225A640F23FB610F233B623C2323
:1007D8007B620023BB621023FB6211233B6300236F
:1007E8007B6308233B600F237B600923BB600023E6
:1007F800FB6010233B6111237B610023BB613A46F8
:1008080007F11C031946064804F0BAFC0346002BFE
:1008180001D001F0FFFB00BF3837BD4680BD00BFE7
:1008280064000020040100A080B586B000AF3B1D25
:1008380000221A605A609A60DA601A611C4B1B68C1
:10084800002B31D11A4B01221A6000233B60194B4F
:100858009B6B184A43F001039363164B9B6B03F0A1
:1008680001033B603B684FF688737B600223BB60E3
:100878000023FB6003233B610C237B613B1D19466E
:100888000D4801F0ADFF4CF2B3737B600223BB60EF
:100898000023FB6003233B610C237B613B1D19464E
:1008A800064801F09DFF00E000BF1837BD4680BD37
:1008B800B40000200038024000100240000C024042
:1008C80080B582B000AF7860FFF7AEFF00BF083791
:1008D800BD4680BD80B58CB000AF07F11C03002277
:1008E8001A605A609A60DA601A610023BB616F4B24
:1008F8001B6B6E4A43F0100313636C4B1B6B03F0C6
:100908001003BB61BB6900237B61684B1B6B674AA3
:1009180043F004031363654B1B6B03F004037B6113
:100928007B6900233B61614B1B6B604A43F080038A
:1009380013635E4B1B6B03F080033B613B69002331
:10094800FB605A4B1B6B594A43F001031363574B27
:100958001B6B03F00103FB60FB680023BB60534B78
:100968001B6B524A43F008031363504B1B6B03F095
:100978000803BB60BB6800237B604C4B1B6B4B4A76
:1009880043F040031363494B1B6B03F040037B6048
:100998007B6800233B60454B1B6B444A43F00203D2
:1009A8001363424B1B6B03F002033B603B6800225E
:1009B80070213F4802F0B0F800224FF400513D4842
:1009C80002F0AAF8002240213B4802F0A5F80022D4
:1009D8004FF48071394802F09FF800220821384806
:1009E80002F09AF87023FB6101233B6200237B62CB
:1009F8000023BB6207F11C0319462D4801F0F0FEE5
:100A08004FF40053FB6101233B6200237B62002308
:100A1800BB6207F11C031946264801F0E1FEC0231A
:100A2800FB6100233B6200237B6207F11C0319462C
:100A3800224801F0D5FE3023FB6100233B620023EE
:100A48007B6207F11C0319461A4801F0C9FE4023CE
:100A5800FB6101233B6200237B620023BB6207F139
:100A68001C031946144801F0BBFE4FF48073FB6168
:100A780001233B6200237B620023BB6207F11C0356
:100A880019460E4801F0ACFE0823FB6101233B62C6
:100A980000237B620023BB6207F11C031946084848
:100AA80001F09EFE00BF3037BD4680BD00380240D1
:100AB80000100240000802400018024000000240F6
:100AC800000C024080B500AF124B134A1A60114B5C
:100AD800124A5A600F4B00229A600E4B0022DA60CD
:100AE8000C4B4FF480421A610A4B00225A61094BA1
:100AF80000229A61074B0022DA61064B00221A6233
:100B0800044802F023F80346002B01D001F082FAD2
:100B180000BF80BDB800002000540040A08601003E
:100B280080B58AB000AF786007F1140300221A601C
:100B38005A609A60DA601A617B681B68194A9342A6
:100B48002BD100233B61184B1B6B174A43F0020360
:100B58001363154B1B6B03F002033B613B69C02316
:100B68007B611223BB610023FB6103233B620423E7
:100B78007B6207F1140319460C4801F031FE00238B
:100B8800FB60094B1B6C084A43F400131364064BC3
:100B98001B6C03F40013FB60FB6800BF2837BD46DD
:100BA80080BD00BF005400400038024000040240ED
:100BB80080B483B000AF0346FB80044AFB881380EF
:100BC80000BF0C37BD465DF8047B7047FEFF0F6021
:100BD80080B483B000AF0346FB80044AFB8853808F
:100BE80000BF0C37BD465DF8047B7047FEFF0F6001
:100BF80080B483B000AF064B5B889BB2FB80FB8858
:100C08009BB218460C37BD465DF8047B704700BFA1
:100C1800FEFF0F6090B583B000AF0446084611464A
:100C28001A462346FB800346BB800B467B8013464F
:100C38003B802A20FFF7BCFFFB881B0A9BB21846A3
:100C4800FFF7C6FFFB88DBB29BB21846FFF7C0FF71
:100C58007B881B0A9BB21846FFF7BAFF7B88DBB27A
:100C68009BB21846FFF7B4FF2B20FFF7A1FFBB8804
:100C78001B0A9BB21846FFF7ABFFBB88DBB29BB2DF
:100C88001846FFF7A5FF3B881B0A9BB21846FFF7DB
:100C98009FFF3B88DBB29BB21846FFF799FF2C20D9
:100CA800FFF786FF00BF0C37BD4690BD80B584B006
:100CB80000AF0346FB80FB881B0A9BB2DBB23B728A
:100CC800FB88DBB27B72154B1B88013B9AB2134B36
:100CD8005B88013B9BB200210020FFF79BFF0023AC
:100CE800FB8111E00023BB8106E0FB881846FFF773
:100CF8006FFFBB890133BB81084B5B88BA899A4275
:100D0800F3D3FB890133FB81044B1B88FA899A4290
:100D1800E8D300BF00BF1037BD4680BD0C010020DE
:100D280090B585B000AF0446084611461A462346DA
:100D3800FB800346BB800B467B8013463B807B8849
:100D4800013B9AB23B88013B9BB2B988F888FFF710
:100D580061FFBB88FB8110E0FB88BB8106E03B8C10
:100D68001846FFF735FFBB890133BB81BA897B88F9
:100D78009A42F4D3FB890133FB81FA893B889A4272
:100D8800EAD300BF00BF1437BD4690BD80B582B01E
:100D980000AF0346FB800B46BB8013467B80BB88B5
:100DA800FA88B988F888FFF735FF7B881846FFF777
:100DB8000FFF00BF0837BD4680BD000090B587B063
:100DC80000AF0446084611461A462346FB800346F0
:100DD800BB800B46FB7013463B8000237B75FB886A
:100DE8003B8297F82C305B08FB73FB7BDB08DBB29C
:100DF8001A46FB7B03F00703DBB2002B14BF012369
:100E08000023DBB213449AB297F82C309BB212FB42
:100E180003F3BB81FB78203BFB70FB7B9AB2FB881A
:100E280013449BB2013B9CB297F82C309AB2BB8812
:100E380013449BB2013B9BB2B988F8882246FFF75E
:100E4800E9FE00237B827AE097F82C300C2B28D01F
:100E580097F82C30102B08D1FA787B8A3C4912017C
:100E68000A4413441B78FB751BE097F82C30182BA9
:100E78000BD1FA78798A374813465B0013441B0173
:100E880003440B441B78FB750BE097F82C30202BA0
:100E98005AD1FA787B8A304992010A4413441B7864
:100EA800FB750023BB7544E097F83030002B20D148
:100EB800FA7DBB7D42FA03F303F00103002B04D053
:100EC8003B881846FFF784FE03E03B8D1846FFF782
:100ED8007FFE7B7D01337B757B7DFA7BB3FBF2F173
:100EE80001FB02F29B1ADBB2002B1FD100237B759A
:100EF80022E0FA7DBB7D42FA03F303F00103002BE5
:100F080005D03A88B988FB881846FFF73FFFFB8869
:100F18000133FB80FA883B8AD21AFB7B9A4205D1BF
:100F28003B8AFB80BB880133BB8005E0BB7D013376
:100F3800BB75BB7D072BB7D97B8A01337B827A8A45
:100F4800BB899A4280D300E000BF1C37BD4690BDE4
:100F5800245D000814630008E474000880B485B0B8
:100F680000AF03460A46FB711346BB710123FB60C1
:100F780004E0FA79FB6802FB03F3FB60BB795A1EB5
:100F8800BA71002BF5D1FB6818461437BD465DF8D9
:100F9800047B704790B589B004AF044608461146F3
:100FA8001A462346FB800346BB800B467B801346CC
:100FB8007B700023BB7397F828305B087B73002392
:100FC800FB7359E07C887A78FB7BD31ADBB2013B50
:100FD800DBB219460A20FFF7C1FF0346B4FBF3F161
:100FE8002A4BA3FB0123DA0813469B0013445B003A
:100FF800CA1A13463B73BB7B002B21D1FA7B7B7843
:10100800013B9A421CDA3B7B002B17D1FB7B9AB23F
:101018007B7B9BB212FB03F39AB2FB88134498B212
:101028003A8CB9880023029397F828300193BB8C37
:10103800009313462022FFF7C1FE1AE00123BB7379
:10104800FB7B9AB27B7B9BB212FB03F39AB2FB88C1
:10105800134498B23B7B3033DAB23C8CB988002316
:10106800029397F828300193BB8C00932346FFF72F
:10107800A5FEFB7B0133FB73FA7B7B789A42A1D3F5
:1010880000BF00BF1437BD4690BD00BFCDCCCCCC4F
:1010980080B483B000AF0346FB71FB791B09DBB258
:1010A80003F00303DBB2002B07D00A4B4FF4A07206
:1010B8001A80084BF0225A8006E0064BF0221A806C
:1010C800044B4FF4A0725A8000BF0C37BD465DF840
:1010D800047B70470C01002080B500AF00224FF45C
:1010E8000051AA4801F018FD4FF4FA7001F042FAD5
:1010F80001224FF40051A54801F00EFD4FF4FA709B
:1011080001F038FA0020FFF7C3FFD320FFF750FDA6
:10111800FFF76EFD03461A469D4B9A80FFF768FD60
:1011280003461A469A4B9A80FFF762FD03461A4611
:10113800974B9A80964B9B881B029AB2944B9A8045
:10114800FFF756FD03461A46914B9B8813439AB204
:101158008F4B9A80CF20FFF72BFD0020FFF738FD3B
:10116800C120FFF735FD3020FFF732FDED20FFF7F6
:101178001FFD6420FFF72CFD0320FFF729FD122037
:10118800FFF726FD8120FFF723FDE820FFF710FD7C
:101198008520FFF71DFD1020FFF71AFD7A20FFF7C5
:1011A80017FDCB20FFF704FD3920FFF711FD2C2098
:1011B800FFF70EFD0020FFF70BFD3420FFF708FDB9
:1011C8000220FFF705FDF720FFF7F2FC2020FFF7CC
:1011D800FFFCEA20FFF7ECFC0020FFF7F9FC0020F9
:1011E800FFF7F6FCC020FFF7E3FC1B20FFF7F0FC3D
:1011F800C120FFF7DDFC0120FFF7EAFCC520FFF75F
:10120800D7FC3020FFF7E4FC3020FFF7E1FCC720D3
:10121800FFF7CEFCB720FFF7DBFC3620FFF7C8FC52
:101228000820FFF7D5FC3A20FFF7C2FC5520FFF74E
:10123800CFFCB120FFF7BCFC0020FFF7C9FC1A2047
:10124800FFF7C6FCB620FFF7B3FC0A20FFF7C0FC87
:10125800A220FFF7BDFCF220FFF7AAFC0020FFF751
:10126800B7FC2620FFF7A4FC0120FFF7B1FCE02023
:10127800FFF79EFC0F20FFF7ABFC2A20FFF7A8FC26
:101288002820FFF7A5FC0820FFF7A2FC0E20FFF797
:101298009FFC0820FFF79CFC5420FFF799FCA9202D
:1012A800FFF796FC4320FFF793FC0A20FFF790FC1A
:1012B8000F20FFF78DFC0020FFF78AFC0020FFF7C6
:1012C80087FC0020FFF784FC0020FFF781FCE12069
:1012D800FFF76EFC0020FFF77BFC1520FFF778FC7A
:1012E8001720FFF775FC0720FFF772FC1120FFF7A6
:1012F8006FFC0620FFF76CFC2B20FFF769FC5620DB
:10130800FFF766FC3C20FFF763FC0520FFF760FC55
:101318001020FFF75DFC0F20FFF75AFC3F20FFF776
:1013280057FC3F20FFF754FC0F20FFF751FC2B2000
:10133800FFF73EFC0020FFF74BFC0020FFF748FCBE
:101348000120FFF745FC3F20FFF742FC2A20FFF76A
:101358002FFC0020FFF73CFC0020FFF739FC0020A1
:10136800FFF736FCEF20FFF733FC1120FFF720FCD6
:10137800782001F0FFF82920FFF71AFC01224FF42A
:101388008071044801F0C8FB00BF80BD000802401E
:101398000C0100200000024080B500AF012240216E
:1013A800024801F0B9FB00BF80BD00BF0018024031
:1013B80080B500AF3F4B1B88DBB29AB23D4B1A8019
:1013C8003D4B1B683D4AD35C1B021AB2394B1B8844
:1013D8001BB213431BB29AB2364B1A80364B1B68AA
:1013E800032B47D801A252F823F000BF05140008C8
:1013F80023140008411400085F1400082D4B1B88B3
:1014080043F0B0039AB22B4B1A802A4B1B8823F067
:1014180040039AB2274B1A802DE0264B1B8843F0D5
:10142800D0039AB2234B1A80224B1B8823F0200347
:101438009AB2204B1A801EE01E4B1B8843F0E00333
:101448009AB21C4B1A801B4B1B8823F010039AB2CC
:10145800184B1A800FE0174B1B8843F070039AB2A1
:10146800144B1A80134B1B8823F080039AB2114B3C
:101478001A8000E000BF104B1B6801335A4203F08A
:10148800030302F0030258BF53420B4A13600022C1
:1014980040210B4801F040FB01230222054909487D
:1014A80003F04FF901224021054801F035FB00BF48
:1014B80080BD00BF040000201401002000000020AF
:1014C800001802402C01002080B500AF00F0E0FFBA
:1014D80000F054F8FFF7FEF900F000FF00F00CFEF2
:1014E800FFF728F9FFF7EEFA00F0B2F80020FFF74F
:1014F800DDFB00F0CFF800BF1C4B1B88002BFBD096
:101508001A4B00221A80FEF7DFFF00F003F9184B90
:101518001B88012B11D1174B1A78174BA3FB021309
:1015280059080B465B000B44D31ADBB20133DAB21D
:10153800104B1A700020FFF7B9FB0E4B1B78022BDB
:1015480010D0022BD7DC002B02D0012B07D00CE0E7
:10155800FFF78CF800F000F900F01AFD05E000F044
:1015680079F902E000F096FC00BFC4E720010020F2
:101578003000002018010020ABAAAAAA80B594B0B8
:1015880000AF07F1200330220021184604F08EFB3B
:1015980007F10C0300221A605A609A60DA601A6137
:1015A8000023BB60284B1B6C274A43F0805313640D
:1015B800254B1B6C03F08053BB60BB6800237B602A
:1015C800224B1B68214A43F4804313601F4B1B685E
:1015D80003F480437B607B6802233B620123FB6248
:1015E80010233B630223BB630023FB6308233B6494
:1015F800A8237B640223BB640423FB6407F1200354
:10160800184602F091FB0346002B01D000F002FDC2
:101618000F23FB6002233B6100237B614FF4A0533F
:10162800BB614FF4A053FB6107F10C030521184679
:1016380002F0F2FD0346002B01D000F0EBFC00BFE6
:101648005037BD4680BD00BF0038024000700040E2
:1016580080B500AF002220210D4801F05DFA00227C
:1016680040210B4801F058FA00221021084801F0E7
:1016780053FA00F0D5FCFFF78FFEFEF719FFFFF7CE
:101688002BFDFEF78DFF322000F0D4FC00BF80BD9B
:101698000010024080B500AF19210620FEF7C4FFF4
:1016A8000B210520FEF7C0FF05210420FEF7BCFF33
:1016B80004210320FEF7B8FF09210220FEF7B4FF3A
:1016C8002D210120FEF7B0FF1E210020FEF7ACFF00
:1016D80000BF80BD80B400AF054BDB88012B01D172
:1016E800012300E000231846BD465DF8047B7047DF
:1016F8003000002080B400AF054BDB89012B01D1FD
:10170800012300E000231846BD465DF8047B7047BE
:101718003000002080B400AF0D4B9B88072B0ED9FA
:101728000B4B9B88283B03F00303002B03D1094B89
:1017380001221A7006E0074B00221A7002E0054BDE
:1017480000221A7000BFBD465DF8047B704700BFD9
:10175800300000201C01002080B584B004AF364B57
:101768001B781A4618230293002301934FF4FC6355
:101778000093022364214620FFF70CFC2F4B1B78B3
:101788001A4618230293002301934FF4FC63009335
:10179800022364216E20FFF7FDFB294B1B781A46B4
:1017A80018230293002301934FF4FC630093022350
:1017B80064219620FFF7EEFB224B1B781A4618236C
:1017C8000293002301934FF6E073009302238221D2
:1017D8001420FFF7DFFB1C4B1B781A4618230293D3
:1017E800002301934FF6E0730093022382214620E1
:1017F800FFF7D0FB154B1B781A46182302930023DA
:1018080001934FF6E0730093022382216E20FFF7C5
:10181800C1FB0F4B1B781A46182302930023019330
:101828004FF6E0730093022382219620FFF7B2FB64
:1018380000BFBD4680BD00BF5B0000205C000020EB
:101848005D0000205F0000205E0000206000002096
:101858006100002080B584B004AF974B1B785A1CF8
:10186800964B83FB02139910D317C91A0B469B009A
:101878000B445B00D11ACAB28F4B1A70FFF72AFFCC
:101888000346002B00F08E808D4B1B78002B11D166
:101898008C4B1B785A1C8C4B83FB02139910D31763
:1018A800C91A0B465B000B44DB00D11ACAB2854B40
:1018B8001A7077E0824B1B78012B12D1834B1B786F
:1018C8005A1C834B83FB021313445911D317C91AAB
:1018D8000B461B015B1A9B00D11ACAB27B4B1A70CC
:1018E80060E0774B1B78022B12D17A4B1B785A1C7D
:1018F800774B83FB021313445911D317C91A0B46AC
:101908001B015B1A9B00D11ACAB2724B1A7049E0CC
:101918006B4B1B78032B11D16F4B1B785A1C6F4BE9
:1019280083FB021313449910D317C91A0B46DB0023
:101938005B1AD11ACAB2684B1A7033E0604B1B7835
:10194800042B10D1664B1A78614BA3FB02131909BB
:101958000B461B015B1A5B00D31ADBB20133DAB208
:101968005F4B1A701EE0564B1B78052B10D15D4B50
:101978001A785D4BA3FB0213D9080B465B000B4496
:101988009B00D31ADBB20133DAB2564B1A7009E066
:101998004B4B1B78062B05D1544B1B780133DAB21D
:1019A800524B1A70524B1B78002B00F0AD80444B01
:1019B8001B78002B11D1434B1B785A1C424B83FBDD
:1019C80002139910D317C91A0B465B000B44DB00AE
:1019D800D11ACAB23B4B1A7096E0394B1B78012BCF
:1019E80012D13A4B1B785A1C394B83FB0213134410
:1019F8005911D317C91A0B461B015B1A9B00D11A40
:101A0800CAB2324B1A707FE02D4B1B78022B12D1D1
:101A1800304B1B785A1C2E4B83FB0213134459116D
:101A2800D317C91A0B461B015B1A9B00D11ACAB2FD
:101A3800284B1A7068E0224B1B78032B11D1264BD8
:101A48001B785A1C254B83FB021313449910D31798
:101A5800C91A0B46DB005B1AD11ACAB21E4B1A70A0
:101A680052E0174B1B78042B10D11D4B1A78184BDA
:101A7800A3FB021319090B461B015B1A5B00D31A5F
:101A8800DBB20133DAB2164B1A703DE00C4B1B780F
:101A9800052B2FD1134B1A78134BA3FB0213D9082C
:101AA8000B465B000B449B00D31ADBB20133DAB25E
:101AB8000C4B1A7028E000BF1D010020676666669F
:101AC800190100205B000020ABAAAA2A5C000020B4
:101AD800898888885D0000205F000020932449924F
:101AE8005E00002060000020ABAAAAAA61000020C6
:101AF8001C010020A34B1B78062B05D1A24B1B7899
:101B08000133DAB2A04B1A70FFF7F4FD0346002B3D
:101B180041D09C4B1B785A1C9C4B83FB02131344EB
:101B28009910D317C91A0B46DB005B1AD11ACAB22F
:101B3800944B1A70934B1B78002B2CD1944B1B7829
:101B480019460220FEF770FD924B1B7819460120BA
:101B5800FEF76AFD904B1B7819460020FEF764FDDE
:101B68008E4B1B7819460320FEF75EFD8C4B1B78C5
:101B780019460420FEF758FD8A4B1B7819460520A4
:101B8800FEF752FD804B1B7819460620FEF74CFDE8
:101B9800854B00221A70FFF7DFFD7A4B1B78002B6C
:101BA8002CD1824B1B78002B16D1814B1B78002B34
:101BB80012D1774B1B781A461823029300230193FE
:101BC8004FF4FC630093022364214620FFF7E2F9F7
:101BD800774B01221A704FE16D4B1B781A46182378
:101BE80002930023019300230093022364214620DB
:101BF800FFF7D0F96E4B00221A703DE1614B1B785C
:101C0800012B2CD1694B1B78002B16D1684B1B7804
:101C1800002B12D15F4B1B781A461823029300231E
:101C280001934FF4FC630093022364216E20FFF7B5
:101C3800B1F95F4B01221A701EE1564B1B781A4608
:101C480018230293002301930023009302236421A5
:101C58006E20FFF79FF9564B00221A700CE1494B92
:101C68001B78022B2CD1514B1B78002B16D1504BD3
:101C78001B78002B12D1484B1B781A461823029365
:101C8800002301934FF4FC63009302236421962000
:101C9800FFF780F9464B01221A70EDE03E4B1B78A6
:101CA8001A4618230293002301930023009302236A
:101CB80064219620FFF76EF93D4B00221A70DBE095
:101CC800304B1B78032B2CD1384B1B78002B16D1AB
:101CD800374B1B78002B12D1304B1B781A46182330
:101CE8000293002301934FF6E073009302238221AD
:101CF8001420FFF74FF92E4B01221A70BCE0274B36
:101D08001B781A461823029300230193002300939B
:101D1800022382211420FFF73DF9254B00221A7077
:101D2800AAE0184B1B78042B44D1204B1B78002BBE
:101D380016D11F4B1B78002B12D1194B1B781A4652
:101D480018230293002301934FF6E07300930223B4
:101D580082214620FFF71EF9154B01221A708BE0ED
:101D68000F4B1B781A461823029300230193002374
:101D78000093022382214620FFF70CF90C4B002226
:101D88001A7079E01901002061000020932449921B
:101D98005B0000205C0000205D0000205F00002048
:101DA8005E00002060000020180100201D010020B6
:101DB8001E010020324B1B78052B2CD1314B1B7890
:101DC800002B16D1304B1B78002B12D12F4B1B78D0
:101DD8001A4618230293002301934FF6E0730093E9
:101DE800022382216E20FFF7D5F8274B01221A70B3
:101DF80042E0264B1B781A461823029300230193CE
:101E080000230093022382216E20FFF7C3F81E4BA4
:101E180000221A7030E01A4B1B78062B2CD1194B74
:101E28001B78002B16D1184B1B78002B12D1184B9E
:101E38001B781A4618230293002301934FF6E07388
:101E48000093022382219620FFF7A4F80E4B01226B
:101E58001A7011E00E4B1B781A46182302930023C0
:101E6800019300230093022382219620FFF792F822
:101E7800054B00221A70FFE700BFBD4680BD00BFBA
:101E8800190100201D0100201E0100206000002013
:101E98006100002080B584B004AFFFF71BFC034647
:101EA800002B2BD0334B1B78002B11D1324B1B78D6
:101EB8005A1C324B83FB02139910D317C91A0B46CD
:101EC8005B000B44DB00D11ACAB22B4B1A7015E029
:101ED800284B1B78012B11D1294B1B785A1C294BF5
:101EE80083FB021313445911D317C91A0B461B015C
:101EF8005B1A9B00D11ACAB2214B1A70FFF7FAFB82
:101F08000346002B14D01B4B1B780133002B03F026
:101F18000103B8BF5B42DAB2164B1A70154B1B7837
:101F2800002B05D1184B00221A70184B01221A7089
:101F3800114B1B781A4618230293002301934FF67E
:101F4800E0730093022364214620FFF723F80C4B2B
:101F58001B781A4618230293002301934FF6E07367
:101F68000093022364216E20FFF714F800BFBD46DA
:101F780080BD00BF190100201A010020ABAAAA2ABF
:101F88001B0100208988888818010020060000208D
:101F980080B582B002AFFEF769FB194B1A78194B6E
:101FA8001B789A4224D1184B1A78184B1B789A42FE
:101FB8001ED1174B1B780133DAB2154B1A70144B2C
:101FC8001B78132B18D94FF4784300934FF4A07360
:101FD800F02200210020FEF7A3FE0D4B00221A700C
:101FE8000B4B1B78002B07D10020FEF75FFE03E0A8
:101FF800074B00221A7000E000BF00BFBD4680BD3D
:102008005B0000201A0100205C0000201B0100205A
:102018001F01002080B400AF72B600BF00BFFDE70B
:1020280080B500AF024803F03FF900BF80BD00BF94
:102038008401002080B483B000AF0346FB80084AC7
:10204800FB881380064B1A88064B1A80064B002221
:102058001A8000BF0C37BD465DF8047B704700BF8F
:1020680024010020220100202001002080B582B038
:1020780000AF78607B681B68B3F1804F2BD1184B99
:102088001B88002B10D0164B1B88013B9AB2144BAF
:102098001A80134B1B88002B06D1124B01221A8081
:1020A800114B1A880E4B1A80104B1B88002B10D02E
:1020B8000E4B1B88013B9AB20C4B1A800B4B1B88AA
:1020C800002B06D10A4B01221A800A4B1A88074BAB
:1020D8001A80FFF76DF900BF0837BD4680BD00BF05
:1020E80022010020200100202401002028010020D6
:1020F800260100202A01002080B500AF174B184A9E
:102108001A60164B4FF482725A60144B00229A6080
:10211800124B0022DA60114B00221A610F4B002289
:102128005A610E4B4FF400729A610C4B0022DA612F
:102138000A4B00221A62094B00225A62074B0022FE
:102148009A62064B0A22DA62044802F071FA0346E0
:10215800002B01D0FFF75EFF00BF80BD2C010020DF
:102168000030014080B58AB000AF786007F11403F1
:1021780000221A605A609A60DA601A617B681B68EC
:10218800194A93422BD100233B61184B5B6C174AC9
:1021980043F480535364154B5B6C03F480533B61E9
:1021A8003B690023FB60114B1B6B104A43F0020391
:1021B80013630E4B1B6B03F00203FB60FB683823B1
:1021C8007B610223BB610023FB6103233B62052380
:1021D8007B6207F114031946054800F001FB00BFB4
:1021E8002837BD4680BD00BF00300140003802409E
:1021F8000004024080B483B000AF00237B60104B22
:102208005B6C0F4A43F4804353640D4B5B6C03F4DF
:1022180080437B607B6800233B60094B1B6C084A4A
:1022280043F080531364064B1B6C03F080533B60F0
:102238003B6800BF0C37BD465DF8047B704700BFA4
:102248000038024080B400AF00BFFDE780B400AFA3
:1022580000BFFDE780B400AF00BFFDE780B400AF6A
:1022680000BFFDE780B400AF00BFFDE780B400AF5A
:1022780000BFBD465DF8047B704780B400AF00BF67
:10228800BD465DF8047B704780B400AF00BFBD4613
:102298005DF8047B704780B500AF00F04BF900BFD4
:1022A80080BD000080B500AF024803F06DF800BFA4
:1022B80080BD00BF8401002080B400AF064BD3F876
:1022C8008830054A43F47003C2F8883000BFBD4621
:1022D8005DF8047B704700BF00ED00E080B586B074
:1022E80000AF07F1080300221A605A609A60DA60AA
:1022F8003B4600221A605A601D4B4FF080421A601C
:102308001B4B40F247325A60194B00229A60184B17
:102318006322DA60164B00221A61154B00229A617B
:10232800134802F071FF0346002B01D0FFF772FE3D
:102338004FF48053BB6007F1080319460C4803F0BB
:102348002BF90346002B01D0FFF764FE00233B6006
:1023580000237B603B461946054803F047FB0346CC
:10236800002B01D0FFF756FE00BF1837BD4680BDD1
:102378008401002080B584B000AF78607B681B685A
:10238800B3F1804F15D10023FB600C4B1B6C0B4A3B
:1023980043F001031364094B1B6C03F00103FB605A
:1023A800FB68002200211C2000F0E3F91C2000F04B
:1023B800FCF900BF1037BD4680BD00BF00380240A1
:1023C80080B483B000AF0346FB71FB791B09DBB215
:1023D8001A46920013445B00DAB2FB7903F00F034C
:1023E800DBB21344DBB218460C37BD465DF8047BFC
:1023F8007047000080B483B000AF0346FB71FB79DF
:102408000D4AA2FB0323DB08DBB21B0158B2FA79A1
:10241800094BA3FB0213D9080B469B000B445B0036
:10242800D31ADBB25BB203435BB2DBB218460C379C
:10243800BD465DF8047B7047CDCCCCCCDFF834D0FA
:102448000D480E490E4A002302E0D458C450043304
:10245800C4188C42F9D30B4A0B4C002301E01360DB
:102468000432A242FBD3FFF727FF03F027FCFFF754
:102478002BF8704700000220000000201400002004
:10248800CC8C000814000020D0010020FEE70000DA
:1024980080B500AF0E4B1B680D4A43F40073136000
:1024A8000B4B1B680A4A43F480631360084B1B6894
:1024B800074A43F480731360032000F04FF90F209C
:1024C80000F008F8FFF796FE0023184680BD00BF0D
:1024D800003C024080B582B000AF7860124B1A68A9
:1024E800124B1B7819464FF47A73B3FBF1F3B2FB26
:1024F800F3F3184600F067F90346002B01D00123D7
:102508000EE07B680F2B0AD8002279684FF0FF3065
:1025180000F02FF9064A7B681360002300E00123CE
:1025280018460837BD4680BD08000020100000206E
:102538000C00002080B400AF064B1B781A46064BEF
:102548001B681344044A136000BFBD465DF8047B52
:10255800704700BF10000020CC01002080B400AFFD
:10256800034B1B681846BD465DF8047B704700BFE7
:10257800CC01002080B584B000AF7860FFF7EEFF93
:10258800B8607B68FB60FB68B3F1FF3F05D00A4B7E
:102598001B781A46FB681344FB6000BFFFF7DEFF99
:1025A8000246BB68D31AFA689A42F7D800BF00BF40
:1025B8001037BD4680BD00BF1000002080B485B034
:1025C80000AF78607B6803F00703FB600C4BDB68A7
:1025D800BB60BA684FF6FF031340BB60FB681A0282
:1025E800BB68134343F0BF6343F40033BB60044A42
:1025F800BB68D36000BF1437BD465DF8047B7047E5
:1026080000ED00E080B400AF044BDB681B0A03F068
:1026180007031846BD465DF8047B704700ED00E0EF
:1026280080B483B000AF0346FB7197F90730002BE5
:102638000BDBFB7903F01F02074997F907305B09A9
:10264800012000FA02F241F8232000BF0C37BD46F2
:102658005DF8047B704700BF00E100E080B483B000
:1026680000AF03463960FB7197F90730002B0ADB8E
:102678003B68DAB20C4997F907301201D2B20B4421
:1026880083F800230AE03B68DAB20849FB7903F0D3
:102698000F03043B1201D2B20B441A7600BF0C3769
:1026A800BD465DF8047B704700E100E000ED00E006
:1026B80080B489B000AFF860B9607A60FB6803F055
:1026C8000703FB61FB69C3F10703042B28BF04233D
:1026D800BB61FB690433062B02D9FB69033B00E0AD
:1026E80000237B614FF0FF32BB6902FA03F3DA4340
:1026F800BB681A407B699A404FF0FF317B6901FA49
:1027080003F3D9437B680B40134318462437BD466F
:102718005DF8047B7047000080B582B000AF786038
:102728007B68013BB3F1807F01D301230FE00A4AA4
:102738007B68013B53600F214FF0FF30FFF78EFF9E
:10274800054B00229A60044B07221A6000231846A2
:102758000837BD4680BD00BF10E000E080B582B0FC
:1027680000AF78607868FFF729FF00BF0837BD46DB
:1027780080BD80B586B000AF0346B9607A60FB7350
:1027880000237B61FFF73EFF78617A68B968786952
:10279800FFF78EFF024697F90F3011461846FFF7EC
:1027A8005DFF00BF1837BD4680BD80B582B000AF61
:1027B8000346FB7197F907301846FFF731FF00BF52
:1027C8000837BD4680BD80B582B000AF78607868B4
:1027D800FFF7A2FF034618460837BD4680BD000034
:1027E80080B489B000AF7860396000237B61002332
:1027F8003B610023BB610023FB616BE10122FB69A4
:1028080002FA03F37B613B681B687A6913403B61FA
:102818003A697B699A4240F05A813B685B6803F0E9
:102828000303012B05D03B685B6803F00303022B0D
:1028380030D17B689B68BB61FB695B00032202FAAD
:1028480003F3DB43BA691340BB613B68DA68FB6991
:102858005B0002FA03F3BA691343BB617B68BA6988
:102868009A607B685B68BB610122FB6902FA03F32B
:10287800DB43BA691340BB613B685B681B0903F023
:102888000102FB6902FA03F3BA691343BB617B686F
:10289800BA695A603B685B6803F00303032B17D0DF
:1028A8007B68DB68BB61FB695B00032202FA03F308
:1028B800DB43BA691340BB613B689A68FB695B00FC
:1028C80002FA03F3BA691343BB617B68BA69DA6039
:1028D8003B685B6803F00303022B23D1FB69DA082A
:1028E8007B68083253F82230BB61FB6903F00703A9
:1028F8009B000F2202FA03F3DB43BA691340BB6162
:102908003B681A69FB6903F007039B0002FA03F3AB
:10291800BA691343BB61FB69DA087B680832B96995
:1029280043F822107B681B68BB61FB695B000322CC
:1029380002FA03F3DB43BA691340BB613B685B6887
:1029480003F00302FB695B0002FA03F3BA6913435D
:10295800BB617B68BA691A603B685B6803F4403303
:10296800002B00F0B4800023FB60604B5B6C5F4A77
:1029780043F4804353645D4B5B6C03F48043FB601A
:10298800FB685B4AFB699B08023352F82330BB6142
:10299800FB6903F003039B000F2202FA03F3DB43F6
:1029A800BA691340BB617B68524A93422BD07B685B
:1029B800514A934225D07B68504A93421FD07B6886
:1029C8004F4A934219D07B684E4A934213D07B6892
:1029D8004D4A93420DD07B684C4A934207D07B689E
:1029E8004B4A934201D107230EE008230CE006234B
:1029F8000AE0052308E0042306E0032304E0022399
:102A080002E0012300E00023FA6902F003029200C9
:102A18009340BA691343BB613549FB699B0802338C
:102A2800BA6941F823203B4B1B68BB613B69DB4318
:102A3800BA691340BB613B685B6803F48033002BC1
:102A480003D0BA693B691343BB61324ABB6913605F
:102A5800304B5B68BB613B69DB43BA691340BB61C0
:102A68003B685B6803F40033002B03D0BA693B6909
:102A78001343BB61274ABB695360264B9B68BB6104
:102A88003B69DB43BA691340BB613B685B6803F48D
:102A98008013002B03D0BA693B691343BB611D4AFD
:102AA800BB6993601B4BDB68BB613B69DB43BA695D
:102AB8001340BB613B685B6803F40013002B03D031
:102AC800BA693B691343BB61124ABB69D360FB69AE
:102AD8000133FB61FB690F2B7FF690AE00BF00BF8F
:102AE8002437BD465DF8047B704700BF00380240BC
:102AF8000038014000000240000402400008024083
:102B0800000C02400010024000140240001802406D
:102B1800001C0240003C014080B483B000AF7860E4
:102B28000B467B8013467B707B78002B03D07A881A
:102B38007B689A6103E07B881A047B689A6100BF0E
:102B48000C37BD465DF8047B7047000080B584B043
:102B580000AF78607B68002B01D101232BE17B68F3
:102B680093F83D30DBB2002B06D17B68002283F856
:102B78003C207868FDF7D4FF7B68242283F83D2049
:102B88007B681B681A687B681B6822F001021A6060
:102B98007B681B681A687B681B6842F400421A60ED
:102BA8007B681B681A687B681B6822F400421A60FD
:102BB80001F02AFDF8607B685B68814A934207D878
:102BC800FB68804A934294BF01230023DBB206E0EE
:102BD800FB687D4A934294BF01230023DBB2002B9C
:102BE80001D00123E7E0FB68784AA2FB03239B0C92
:102BF800BB607B681B685B6823F03F017B681B68D0
:102C0800BA680A435A607B681B681B6A23F03F0155
:102C18007B685B686A4A934202D8BB68013309E063
:102C2800BB684FF4967202FB03F3694AA2FB0323C5
:102C38009B0901337A6812680B4313627B681B682F
:102C4800DB6923F44F4222F0FF027B685B685C4932
:102C58008B4219D8FB68591E7B685B685B00B1FB27
:102C6800F3F3591C40F6FC730B40002B0AD0FB68A9
:102C7800591E7B685B685B00B1FBF3F30133C3F358
:102C88000B0351E004234FE07B689B68002B11D1B4
:102C9800FB68581E7B6859680B465B000B44B0FB09
:102CA800F3F30133C3F30B03002B0CBF0123002301
:102CB800DBB212E0FB68581E7B6859680B469B0024
:102CC8000B4499000B44B0FBF3F30133C3F30B033C
:102CD800002B0CBF01230023DBB2002B01D0012302
:102CE80022E07B689B68002B0ED1FB68581E7B682E
:102CF80059680B465B000B44B0FBF3F30133C3F395
:102D08000B0343F400430FE0FB68581E7B685968C7
:102D18000B469B000B4499000B44B0FBF3F30133C3
:102D2800C3F30B0343F44043796809681343CB6149
:102D38007B681B681B6823F0C0017B68DA697B68C5
:102D48001B6A1A437B681B680A431A607B681B6806
:102D58009B6823F4034323F0FF037A6811697A68B8
:102D6800D26811437A6812680B4393607B681B68CA
:102D7800DB6823F0FF017B685A697B689B691A430B
:102D88007B681B680A43DA607B681B681A687B6883
:102D98001B6842F001021A607B6800221A647B6893
:102DA800202283F83D207B6800221A637B6800227A
:102DB80083F83E20002318461037BD4680BD00BF6B
:102DC800A08601007F841E00FF083D0083DE1B43B0
:102DD800D34D621080B588B002AFF860084611463E
:102DE8001A4603467B810B463B811346FB80FFF75F
:102DF800B5FB7861FB6893F83D30DBB2202B40F0DF
:102E0800D9807B690093192301226D49F86800F085
:102E1800ADFD0346002B01D00223CCE0FB6893F8FC
:102E28003C30012B01D10223C5E0FB68012283F865
:102E38003C20FB681B681B6803F00103012B07D0CB
:102E4800FB681B681A68FB681B6842F001021A607D
:102E5800FB681B681A68FB681B6822F400621A602A
:102E6800FB68212283F83D20FB68402283F83E203E
:102E7800FB6800221A64FB683A6A5A62FB68BA8CDB
:102E88005A85FB685B8D9AB2FB681A85FB684D4AC8
:102E9800DA62F8883A8979897B690193BB6A009379
:102EA8000346F86800F0E4FB0346002B52D00123E8
:102EB80081E07A69B96AF86800F02EFE0346002BB3
:102EC8000DD0FB681B6C042B07D1FB681B681A68C4
:102ED800FB681B6842F400721A6001236BE0FB6810
:102EE8005B6A1A78FB681B681A61FB685B6A5A1C84
:102EF800FB685A62FB681B8D013B9AB2FB681A8516
:102F0800FB685B8D9BB2013B9AB2FB685A85FB68F4
:102F18001B685B6903F00403042B1BD1FB681B8D42
:102F2800002B17D0FB685B6A1A78FB681B681A616C
:102F3800FB685B6A5A1CFB685A62FB681B8D013B85
:102F48009AB2FB681A85FB685B8D9BB2013B9AB20B
:102F5800FB685A85FB681B8D002BAAD17A69B96A70
:102F6800F86800F01AFE0346002B0DD0FB681B6CB6
:102F7800042B07D1FB681B681A68FB681B6842F4BE
:102F880000721A60012316E0FB681B681A68FB6868
:102F98001B6842F400721A60FB68202283F83D2007
:102FA800FB68002283F83E20FB68002283F83C205F
:102FB800002300E0022318461837BD4680BD00BF35
:102FC800020010000000FFFF80B58CB002AFF8606F
:102FD800084611461A4603467B810B463B81134639
:102FE800FB80FFF7BBFA7862FB6893F83D30DBB2F1
:102FF800202B40F008827B6A0093192301227B4929
:10300800F86800F0B3FC0346002B01D00223FBE173
:10301800FB6893F83C30012B01D10223F4E1FB68F3
:10302800012283F83C20FB681B681B6803F001033E
:10303800012B07D0FB681B681A68FB681B6842F005
:1030480001021A60FB681B681A68FB681B6822F497
:1030580000621A60FB68222283F83D20FB68402248
:1030680083F83E20FB6800221A64FB683A6B5A62B8
:10307800FB68BA8E5A85FB685B8D9AB2FB681A8525
:10308800FB685B4ADA62F8883A8979897B6A019336
:10309800BB6B00930346F86800F080FB0346002BE7
:1030A80001D00123B0E1FB681B8D002B13D1002355
:1030B8003B62FB681B685B693B62FB681B689B693A
:1030C8003B623B6AFB681B681A68FB681B6842F432
:1030D80000721A6084E1FB681B8D012B1BD1FB6811
:1030E8001B681A68FB681B6822F480621A60002358
:1030F800FB61FB681B685B69FB61FB681B689B697C
:10310800FB61FB69FB681B681A68FB681B6842F473
:1031180000721A6064E1FB681B8D022B1BD1FB68EF
:103128001B681A68FB681B6822F480621A60FB68D7
:103138001B681A68FB681B6842F400621A60002367
:10314800BB61FB681B685B69BB61FB681B689B69AB
:10315800BB61BB6944E100237B61FB681B685B6959
:103168007B61FB681B689B697B617B6938E1FB6855
:103178001B8D032B00F2F180FB681B8D012B23D1E3
:103188007A6AB96BF86800F049FD0346002B01D054
:10319800012339E1FB681B681A69FB685B6AD2B2D4
:1031A8001A70FB685B6A5A1CFB685A62FB681B8DC5
:1031B800013B9AB2FB681A85FB685B8D9BB2013BA9
:1031C8009AB2FB685A850BE1FB681B8D022B4ED126
:1031D8007B6A0093BB6B00220649F86800F0C6FBC7
:1031E8000346002B08D001230EE100BF02001000A7
:1031F8000000FFFF04000100FB681B681A68FB68F9
:103208001B6842F400721A60FB681B681A69FB6845
:103218005B6AD2B21A70FB685B6A5A1CFB685A6216
:10322800FB681B8D013B9AB2FB681A85FB685B8DB6
:103238009BB2013B9AB2FB685A85FB681B681A6906
:10324800FB685B6AD2B21A70FB685B6A5A1CFB683F
:103258005A62FB681B8D013B9AB2FB681A85FB68B2
:103268005B8D9BB2013B9AB2FB685A85B8E07B6ADA
:103278000093BB6B00226649F86800F077FB0346B1
:10328800002B01D00123BFE0FB681B681A68FB68AC
:103298001B6822F480621A60FB681B681A69FB6865
:1032A8005B6AD2B21A70FB685B6A5A1CFB685A6286
:1032B800FB681B8D013B9AB2FB681A85FB685B8D26
:1032C8009BB2013B9AB2FB685A857B6A0093BB6B41
:1032D80000224F49F86800F049FB0346002B01D053
:1032E800012391E0FB681B681A68FB681B6842F4BD
:1032F80000721A60FB681B681A69FB685B6AD2B2C5
:103308001A70FB685B6A5A1CFB685A62FB681B8D63
:10331800013B9AB2FB681A85FB685B8D9BB2013B47
:103328009AB2FB685A85FB681B681A69FB685B6A76
:10333800D2B21A70FB685B6A5A1CFB685A62FB6857
:103348001B8D013B9AB2FB681A85FB685B8D9BB2AB
:10335800013B9AB2FB685A8542E07A6AB96BF86811
:1033680000F05CFC0346002B01D001234CE0FB6815
:103378001B681A69FB685B6AD2B21A70FB685B6AE1
:103388005A1CFB685A62FB681B8D013B9AB2FB68AA
:103398001A85FB685B8D9BB2013B9AB2FB685A8524
:1033A800FB681B685B6903F00403042B18D1FB68F6
:1033B8001B681A69FB685B6AD2B21A70FB685B6AA1
:1033C8005A1CFB685A62FB681B8D013B9AB2FB686A
:1033D8001A85FB685B8D9BB2013B9AB2FB685A85E4
:1033E800FB681B8D002B7FF4C2AEFB68202283F89C
:1033F8003D20FB68002283F83E20FB68002283F80A
:103408003C20002300E0022318462837BD4680BD33
:103418000400010080B58AB002AFF8607A603B60B2
:103428000B467B81FFF79AF8F8610123BB61FB68C3
:1034380093F83D30DBB2202B40F01181FB690093FB
:10344800192301228849F86800F090FA0346002BF6
:1034580001D0022304E1FB6893F83C30012B01D131
:103468000223FDE0FB68012283F83C20FB681B680F
:103478001B6803F00103012B07D0FB681B681A685F
:10348800FB681B6842F001021A60FB681B681A6837
:10349800FB681B6822F400621A60FB68242283F828
:1034A8003D20FB6800221A64FB68704ADA62FB68F8
:1034B8001B681A68FB681B6842F480721A60FB6913
:1034C80000933B6800224FF00111F86800F04EFAB3
:1034D8000346002B0DD0FB681B681B6803F4807340
:1034E800B3F5807F03D1FB684FF400721A6403239D
:1034F800B6E07B89DBB21A46FB681B6802F0FE0265
:103508001A61FFF72BF8F861FB681B685B6903F029
:103518000203022B0CBF01230023DBB2FB75FB68FF
:103528001B685B6903F48063B3F5806F0CBF0123EC
:103538000023DBB2BB7525E0FFF710F80246FB69F4
:10354800D31A3A689A4202D33B68002B03D1FB682E
:10355800A02283F83D20FB681B685B6903F0020327
:10356800022B0CBF01230023DBB2FB75FB681B6831
:103578005B6903F48063B3F5806F0CBF01230023FC
:10358800DBB2BB75FB6893F83D30DBB2A02B05D0EE
:10359800FB7D002B02D1BB7D002BCDD0FB68202208
:1035A80083F83D20FB681B685B6903F00203022B6C
:1035B80029D1FB681B681A68FB681B6842F4007213
:1035C8001A6000233B61FB681B685B693B61FB6811
:1035D8001B689B693B613B69FB69009319230122C6
:1035E8002149F86800F0C2F90346002B01D00123F5
:1035F80036E0FB68202283F83D20FB68002283F830
:103608003C2000232CE0FB681B681A68FB681B68D9
:1036180042F400721A60FB681B686FF480625A619A
:10362800FB690093192301220F49F86800F09EF9FD
:103638000346002B01D0012312E0BB690133BB61B3
:10364800BA697B689A42FFF432AFFB68202283F89C
:103658003D20FB68002283F83C20012300E0022380
:1036680018462037BD4680BD020010000000FFFF4D
:1036780080B588B002AFF860084611461A4603467E
:103688007B810B463B811346FB80FB681B681A68ED
:10369800FB681B6842F480721A607B6A00933B6A7D
:1036A80000224FF00111F86800F060F90346002B82
:1036B8000DD0FB681B681B6803F48073B3F5807F2B
:1036C80003D1FB684FF400721A6403235FE07B891F
:1036D800DBB21A46FB681B6802F0FE021A617B6ABD
:1036E8003A6A2D49F86800F098F90346002B01D092
:1036F80001234CE000237B61FB681B685B697B61ED
:10370800FB681B689B697B617B697A6A396AF86820
:1037180000F002FA0346002B0DD0FB681B6C042B4B
:1037280007D1FB681B681A68FB681B6842F40072C3
:103738001A6001232BE0FB88012B05D13B89DAB203
:10374800FB681B681A6121E03B891B0A9BB2DAB24D
:10375800FB681B681A617A6A396AF86800F0DCF954
:103768000346002B0DD0FB681B6C042B07D1FB68AC
:103778001B681A68FB681B6842F400721A60012310
:1037880005E03B89DAB2FB681B681A61002318461A
:103798001837BD4680BD00BF0200010080B588B063
:1037A80002AFF860084611461A4603467B810B466D
:1037B8003B811346FB80FB681B681A68FB681B6823
:1037C80042F480621A60FB681B681A68FB681B6811
:1037D80042F480721A607B6A00933B6A00224FF0C1
:1037E8000111F86800F0C2F80346002B0DD0FB6801
:1037F8001B681B6803F48073B3F5807F03D1FB68F3
:103808004FF400721A640323AAE07B89DBB21A46DC
:10381800FB681B6802F0FE021A617B6A3A6A524929
:10382800F86800F0FAF80346002B01D0012397E06E
:1038380000237B61FB681B685B697B61FB681B6815
:103848009B697B617B697A6A396AF86800F064F978
:103858000346002B0DD0FB681B6C042B07D1FB68BB
:103868001B681A68FB681B6842F400721A6001231F
:1038780076E0FB88012B05D13B89DAB2FB681B682F
:103888001A6121E03B891B0A9BB2DAB2FB681B680C
:103898001A617A6A396AF86800F03EF90346002B23
:1038A8000DD0FB681B6C042B07D1FB681B681A68DA
:1038B800FB681B6842F400721A60012350E03B89E0
:1038C800DAB2FB681B681A617A6A396AF86800F02C
:1038D80023F90346002B0DD0FB681B6C042B07D182
:1038E800FB681B681A68FB681B6842F400721A6060
:1038F800012335E0FB681B681A68FB681B6842F403
:1039080080721A607B6A00933B6A00224FF00111B3
:10391800F86800F02BF80346002B0DD0FB681B68F5
:103928001B6803F48073B3F5807F03D1FB684FF401
:1039380000721A64032313E07B89DBB243F00103AE
:10394800DAB2FB681B681A617B6A3A6A0649F8684A
:1039580000F063F80346002B01D0012300E00023A8
:1039680018461837BD4680BD0200010080B584B0F6
:1039780000AFF860B9603B601346FB7125E03B6817
:10398800B3F1FF3F21D0FEF7E9FD0246BB69D31A28
:103998003A689A4202D33B68002B16D1FB68002292
:1039A8001A63FB68202283F83D20FB68002283F815
:1039B8003E20FB681B6C43F02002FB681A64FB681E
:1039C800002283F83C20012323E0BB681B0CDBB2F8
:1039D800012B0DD1FB681B685B69DA43BB68134098
:1039E8009BB2002B0CBF01230023DBB21A460CE06C
:1039F800FB681B689B69DA43BB6813409BB2002BCA
:103A08000CBF01230023DBB21A46FB799A42B6D0D9
:103A1800002318461037BD4680BD80B584B000AF7E
:103A2800F860B9607A603B6051E0FB681B685B69CD
:103A380003F48063B3F5806F23D1FB681B681A68B1
:103A4800FB681B6842F400721A60FB681B686FF41D
:103A580080625A61FB6800221A63FB68202283F89F
:103A68003D20FB68002283F83E20FB681B6C43F076
:103A78000402FB681A64FB68002283F83C200123D7
:103A880046E07B68B3F1FF3F21D0FEF767FD0246B1
:103A98003B68D31A7A689A4202D37B68002B16D106
:103AA800FB6800221A63FB68202283F83D20FB682C
:103AB800002283F83E20FB681B6C43F02002FB6861
:103AC8001A64FB68002283F83C20012320E0BB68CD
:103AD8001B0CDBB2012B0CD1FB681B685B69DA435A
:103AE800BB6813409BB2002B14BF01230023DBB239
:103AF8000BE0FB681B689B69DA43BB6813409BB209
:103B0800002B14BF01230023DBB2002B8DD100232F
:103B180018461037BD4680BD80B584B000AFF86048
:103B2800B9607A602DE0F86800F0CEF80346002B03
:103B380001D001232DE0BB68B3F1FF3F21D0FEF790
:103B48000DFD02467B68D31ABA689A4202D3BB6855
:103B5800002B16D1FB6800221A63FB68202283F829
:103B68003D20FB68002283F83E20FB681B6C43F075
:103B78002002FB681A64FB68002283F83C200123BA
:103B880007E0FB681B685B6903F08003802BCAD1E0
:103B9800002318461037BD4680BD80B584B000AFFD
:103BA800F860B9607A602DE0F86800F08DF8034697
:103BB800002B01D001232DE0BB68B3F1FF3F21D0DA
:103BC800FEF7CCFC02467B68D31ABA689A4202D345
:103BD800BB68002B16D1FB6800221A63FB68202201
:103BE80083F83D20FB68002283F83E20FB681B6CAD
:103BF80043F02002FB681A64FB68002283F83C202B
:103C0800012307E0FB681B685B6903F00403042BCE
:103C1800CAD1002318461037BD4680BD80B584B090
:103C280000AFF860B9607A6042E0FB681B685B69C6
:103C380003F01003102B19D1FB681B686FF01002FA
:103C48005A61FB6800221A63FB68202283F83D2032
:103C5800FB68002283F83E20FB681A6CFB681A6434
:103C6800FB68002283F83C20012329E0FEF776FC5C
:103C780002467B68D31ABA689A4202D3BB68002B03
:103C880016D1FB6800221A63FB68202283F83D20C6
:103C9800FB68002283F83E20FB681B6C43F020027F
:103CA800FB681A64FB68002283F83C20012307E0C4
:103CB800FB681B685B6903F04003402BB5D1002308
:103CC80018461037BD4680BD80B483B000AF786019
:103CD8007B681B685B6903F48063B3F5806F1BD155
:103CE8007B681B686FF480625A617B6800221A63E4
:103CF8007B68202283F83D207B68002283F83E20E1
:103D08007B681B6C43F004027B681A647B680022A2
:103D180083F83C20012300E0002318460C37BD46F9
:103D28005DF8047B7047000080B586B000AF78600E
:103D38007B68002B01D1012367E27B681B6803F0D5
:103D48000103002B75D0884B9B6803F00C03042BF0
:103D58000CD0854B9B6803F00C03082B12D1824BC7
:103D68005B6803F48003B3F5800F0BD17E4B1B68AF
:103D780003F40033002B5BD07B685B68002B57D1C2
:103D8800012342E27B685B68B3F5803F06D1764B3E
:103D98001B68754A43F4803313601DE07B685B68D9
:103DA800B3F5A02F0CD1704B1B686F4A43F48023E6
:103DB80013606D4B1B686C4A43F4803313600BE04F
:103DC800694B1B68684A23F480331360664B1B6891
:103DD800654A23F4802313607B685B68002B13D04B
:103DE800FEF7BCFB386108E0FEF7B8FB02463B690A
:103DF800D31A642B01D9032307E25B4B1B6803F436
:103E08000033002BF0D014E0FEF7A8FB386108E07F
:103E1800FEF7A4FB02463B69D31A642B01D903239E
:103E2800F3E1514B1B6803F40033002BF0D100E0A1
:103E380000BF7B681B6803F00203002B63D04A4B6A
:103E48009B6803F00C03002B0BD0474B9B6803F0D7
:103E58000C03082B1CD1444B5B6803F48003002B34
:103E680016D1414B1B6803F00203002B05D07B6879
:103E7800DB68012B01D00123C7E13B4B1B6823F012
:103E8800F8027B681B69DB00374913430B603AE093
:103E98007B68DB68002B20D0344B01221A60FEF7C8
:103EA8005DFB386108E0FEF759FB02463B69D31A0F
:103EB800022B01D90323A8E12B4B1B6803F0020353
:103EC800002BF0D0284B1B6823F0F8027B681B6995
:103ED800DB00254913430B6015E0244B00221A60D0
:103EE800FEF73CFB386108E0FEF738FB02463B6909
:103EF800D31A022B01D9032387E11B4B1B6803F05C
:103F08000203002BF0D17B681B6803F00803002B29
:103F180036D07B685B69002B16D0154B01221A60DE
:103F2800FEF71CFB386108E0FEF718FB02463B6908
:103F3800D31A022B01D9032367E10B4B5B6F03F004
:103F48000203002BF0D01BE0094B00221A60FEF799
:103F580005FB38610EE0FEF701FB02463B69D31A08
:103F6800022B07D9032350E10038024000004742E2
:103F7800800E4742884B5B6F03F00203002BEAD1A7
:103F88007B681B6803F00403002B00F09780002374
:103F9800FB75814B1B6C03F08053002B0FD1002362
:103FA800BB607D4B1B6C7C4A43F0805313647A4B97
:103FB8001B6C03F08053BB60BB680123FB75774B18
:103FC8001B6803F48073002B18D1744B1B68734A69
:103FD80043F480731360FEF7C1FA386108E0FEF716
:103FE800BDFA02463B69D31A022B01D903230CE11F
:103FF8006A4B1B6803F48073002BF0D07B689B68C6
:10400800012B06D1644B1B6F634A43F0010313670E
:104018001CE07B689B68052B0CD15F4B1B6F5E4ACD
:1040280043F0040313675C4B1B6F5B4A43F00103C7
:1040380013670BE0584B1B6F574A23F001031367B4
:10404800554B1B6F544A23F0040313677B689B6826
:10405800002B15D0FEF782FA38610AE0FEF77EFAE7
:1040680002463B69D31A41F28832934201D90323AD
:10407800CBE0494B1B6F03F00203002BEED014E09A
:10408800FEF76CFA38610AE0FEF768FA02463B6907
:10409800D31A41F28832934201D90323B5E03E4B4B
:1040A8001B6F03F00203002BEED1FB7D012B05D122
:1040B800394B1B6C384A23F0805313647B689B6927
:1040C800002B00F0A180344B9B6803F00C03082BF5
:1040D8005CD07B689B69022B41D1314B00221A606E
:1040E800FEF73CFA386108E0FEF738FA02463B6909
:1040F800D31A022B01D9032387E0274B1B6803F04F
:104108000073002BF0D17B68DA697B681B6A1A435D
:104118007B685B6A9B011A437B689B6A5B08013B6F
:104128001B041A437B68DB6A1B061B4913434B605D
:104138001B4B01221A60FEF711FA386108E0FEF7FE
:104148000DFA02463B69D31A022B01D903235CE01E
:10415800114B1B6803F00073002BF0D054E0104B98
:1041680000221A60FEF7FAF9386108E0FEF7F6F95E
:1041780002463B69D31A022B01D9032345E0064BBB
:104188001B6803F00073002BF0D13DE07B689B694E
:10419800012B07D1012338E00038024000700040AD
:1041A800600047421B4B5B68FB607B689B69012B87
:1041B80028D0FB6803F480027B68DB699A4221D12E
:1041C800FB6803F03F027B681B6A9A421AD1FA68BF
:1041D80047F6C07313407A68526A9201934211D12C
:1041E800FB6803F440327B689B6A5B08013B1B0455
:1041F8009A4207D1FB6803F070627B68DB6A1B0692
:104208009A4201D0012300E0002318461837BD4622
:1042180080BD00BF0038024080B584B000AF786030
:1042280039607B68002B01D10123CCE0684B1B6807
:1042380003F007033A689A420CD9654B3A68D2B240
:104248001A70634B1B6803F007033A689A4201D05F
:104258000123B8E07B681B6803F00203002B20D021
:104268007B681B6803F00403002B05D0594B9B683F
:10427800584A43F4E05393607B681B6803F00803D3
:10428800002B05D0534B9B68524A43F4604393601C
:10429800504B9B6823F0F0027B689B684D491343A1
:1042A8008B607B681B6803F00103002B44D07B689C
:1042B8005B68012B07D1474B1B6803F40033002BC5
:1042C80019D101237FE07B685B68022B03D07B68F0
:1042D8005B68032B07D13F4B1B6803F00073002B6F
:1042E80009D101236FE03B4B1B6803F00203002B4D
:1042F80001D1012367E0374B9B6823F003027B68F9
:104308005B68344913438B60FEF728F9F8600AE0CC
:10431800FEF724F90246FB68D31A41F28832934229
:1043280001D903234FE02B4B9B6803F00C027B68F9
:104338005B689B009A42EBD1254B1B6803F007038F
:104348003A689A420CD2224B3A68D2B21A70204B81
:104358001B6803F007033A689A4201D0012332E050
:104368007B681B6803F00403002B08D0194B9B687B
:1043780023F4E0527B68DB68164913438B607B6843
:104388001B6803F00803002B09D0124B9B6823F429
:1043980060427B681B69DB000E4913438B6000F0A9
:1043A80021F802460B4B9B681B0903F00F030A49CF
:1043B800CB5C22FA03F3094A1360094B1B681846C1
:1043C800FEF788F8002318461037BD4680BD00BFA9
:1043D800003C024000380240A48C0008080000207D
:1043E8000C0000202DE9B04F94B000AF00237B648F
:1043F8000023FB6400233B640023BB64794B9B6868
:1044080003F00C03082B0DD0082B00F2E180002BE1
:1044180002D0042B03D0DBE0734BBB64DBE0734BAF
:10442800BB64D8E06F4B5B6803F03F037B646D4B64
:104438005B6803F48003002B63D06A4B5B689B09BD
:104448000022BB63FA63BB6BC3F308033B6300231F
:104458007B63D7E90C4522462B464FF000004FF00E
:104468000001590141EAD261500102460B4621463A
:10447800511A3961294663EB01037B614FF0000251
:104488004FF00003D7E904AB59468B01514643EA84
:10449800916351468A015146B2EB0108594663EBD4
:1044A80001094FF000024FF000034FEAC90343EA45
:1044B80058734FEAC80290469946234618EB0303FF
:1044C800BB602B4649EB0303FB604FF000024FF043
:1044D8000003D7E9024529464B02214643EAD15356
:1044E80021464A02104619467B6C0022BB62FA62DA
:1044F800D7E90A23FBF764FE02460B461346FB6422
:1045080058E0384B5B689B09002218461146C0F3F7
:1045180008033B6200237B62D7E9088942464B4681
:104528004FF000004FF00001590141EAD2615001FB
:1045380002460B464146B2EB010A494663EB010BC2
:104548004FF000024FF000034FEA8B1343EA9A63DF
:104558004FEA8A12B2EB0A0463EB0B054FF0000234
:104568004FF00003EB0043EA5473E20014461D4683
:104578004346E3183B604B4645EB03037B604FF033
:1045880000024FF00003D7E9004529468B02214677
:1045980043EA915321468A02104619467B6C002251
:1045A800BB61FA61D7E90623FBF70AFE02460B4610
:1045B8001346FB640B4B5B681B0C03F003030133CE
:1045C8005B003B64FA6C3B6CB2FBF3F3BB6402E048
:1045D800054BBB6400BFBB6C18465037BD46BDE8F1
:1045E800B08F00BF003802400024F40000127A00A7
:1045F80080B400AF034B1B681846BD465DF8047BCA
:10460800704700BF0800002080B500AFFFF7F0FF3B
:104618000246054B9B689B0A03F007030349CB5CE2
:1046280022FA03F3184680BD00380240B48C000813
:1046380080B582B000AF78607B68002B01D1012380
:104648007BE07B685B6A002B08D17B685B68B3F50D
:10465800827F09D07B680022DA6105E07B6800224E
:104668001A617B6800225A617B6800229A627B6823
:1046780093F85130DBB2002B06D17B68002283F817
:1046880050207868FDF76EFD7B68022283F8512080
:104698007B681B681A687B681B6822F040021A60F6
:1046A8007B685B6803F482727B689B6803F404434D
:1046B8001A437B68DB6803F400631A437B681B6951
:1046C80003F002031A437B685B6903F001031A4392
:1046D8007B689B6903F400731A437B68DB6903F00A
:1046E80038031A437B681B6A03F0800342EA03011C
:1046F8007B689B6A03F400527B681B680A431A6054
:104708007B689B691B0C03F004017B685B6A03F000
:1047180010027B681B680A435A607B681B68DA6969
:104728007B681B6822F40062DA617B6800225A65A4
:104738007B68012283F85120002318460837BD46BC
:1047480080BD80B588B000AFF860B9603B601346A3
:10475800FB800023FB77FB6893F85030012B01D1D5
:10476800022326E1FB68012283F85020FDF7F6FEBC
:10477800B861FB88FB82FB6893F85130DBB2012BF0
:1047880002D00223FB770BE1BB68002B02D0FB8829
:10479800002B02D10123FB7702E1FB68032283F897
:1047A8005120FB6800225A65FB68BA681A63FB68E7
:1047B800FA889A86FB68FA88DA86FB6800229A6388
:1047C800FB6800229A87FB680022DA87FB680022D0
:1047D8005A64FB6800221A64FB689B68B3F5004FB3
:1047E8000FD1FB681B681A68FB681B6822F040023F
:1047F8001A60FB681B681A68FB681B6842F48042F1
:104808001A60FB681B681B6803F04003402B07D045
:10481800FB681B681A68FB681B6842F040021A6054
:10482800FB68DB68B3F5006F4BD1FB685B68002B56
:1048380002D0FB8A012B3ED1FB681B6B1A88FB68F0
:104848001B68DA60FB681B6B9A1CFB681A63FB68C1
:10485800DB8E9BB2013B9AB2FB68DA862BE0FB68E1
:104868001B689B6803F00203022B12D1FB681B6BC9
:104878001A88FB681B68DA60FB681B6B9A1CFB686C
:104888001A63FB68DB8E9BB2013B9AB2FB68DA863F
:1048980011E0FDF763FE0246BB69D31A3A689A42F3
:1048A80003D83B68B3F1FF3F02D13B68002B02D12C
:1048B8000323FB7774E0FB68DB8E9BB2002BCED121
:1048C8004CE0FB685B68002B02D0FB8A012B40D1CF
:1048D800FB681A6BFB681B680C3312781A70FB684C
:1048E8001B6B5A1CFB681A63FB68DB8E9BB2013B8F
:1048F8009AB2FB68DA862CE0FB681B689B6803F0B9
:104908000203022B13D1FB681A6BFB681B680C337C
:1049180012781A70FB681B6B5A1CFB681A63FB68D9
:10492800DB8E9BB2013B9AB2FB68DA8611E0FDF799
:1049380015FE0246BB69D31A3A689A4203D83B6807
:10494800B3F1FF3F02D13B68002B02D10323FB7771
:1049580026E0FB68DB8E9BB2002BCDD1BA693968A3
:10496800F86800F0CBFB0346002B02D0FB6820223E
:104978005A65FB689B68002B0AD100233B61FB68E2
:104988001B68DB683B61FB681B689B683B613B6994
:10499800FB685B6D002B02D00123FB7700E000BFB2
:1049A800FB68012283F85120FB68002283F850201D
:1049B800FB7F18462037BD4680BD80B588B002AF62
:1049C800F860B9603B601346FB800023FB75FB6809
:1049D8005B68B3F5827F12D1FB689B68002B0ED110
:1049E800FB68042283F85120FA883B680093134639
:1049F800BA68B968F86800F0F1F80346EAE0FB68BD
:104A080093F85030012B01D10223E3E0FB68012227
:104A180083F85020FDF7A2FD3861FB6893F8513008
:104A2800DBB2012B02D00223FB75CAE0BB68002B66
:104A380002D0FB88002B02D10123FB75C1E0FB6883
:104A4800042283F85120FB6800225A65FB68BA6883
:104A58009A63FB68FA889A87FB68FA88DA87FB68A2
:104A680000221A63FB6800229A86FB680022DA8615
:104A7800FB6800221A64FB6800225A64FB689B6882
:104A8800B3F5004F0FD1FB681B681A68FB681B68F9
:104A980022F040021A60FB681B681A68FB681B68F2
:104AA80022F480421A60FB681B681B6803F040030D
:104AB800402B07D0FB681B681A68FB681B6842F02C
:104AC80040021A60FB68DB68002B62D12EE0FB68AD
:104AD8001B689B6803F00103012B15D1FB681B6859
:104AE80003F10C02FB689B6B1278D2B21A70FB6858
:104AF8009B6B5A1CFB689A63FB68DB8F9BB2013B7C
:104B08009AB2FB68DA8711E0FDF728FD02463B6997
:104B1800D31A3A689A4203D83B68B3F1FF3F02D1EF
:104B28003B68002B02D10323FB754AE0FB68DB8F4F
:104B38009BB2002BCBD131E0FB681B689B6803F06C
:104B48000103012B13D1FB681B68DA68FB689B6BB8
:104B580092B21A80FB689B6B9A1CFB689A63FB688D
:104B6800DB8F9BB2013B9AB2FB68DA8711E0FDF755
:104B7800F5FC02463B69D31A3A689A4203D83B6867
:104B8800B3F1FF3F02D13B68002B02D10323FB7531
:104B980017E0FB68DB8F9BB2002BCDD13A693968EF
:104BA800F86800F045FA0346002B02D0FB68202283
:104BB8005A65FB685B6D002B02D00123FB7500E092
:104BC80000BFFB68012283F85120FB68002283F8AC
:104BD8005020FB7D18461837BD4680BD80B58CB087
:104BE80000AFF860B9607A607B800123FB62002324
:104BF80087F82B30FB6893F85030012B01D1022342
:104C08008AE1FB68012283F85020FDF7A7FC78624F
:104C1800FB6893F8513087F82330FB685B68FB61C9
:104C28007B887B8397F82330012B0FD0FB69B3F582
:104C3800827F07D1FB689B68002B03D197F823304C
:104C4800042B03D0022387F82B305BE1BB68002BD1
:104C580005D07B68002B02D07B88002B03D1012371
:104C680087F82B304EE1FB6893F85130DBB2042B08
:104C780003D0FB68052283F85120FB6800225A659F
:104C8800FB687A689A63FB687A88DA87FB687A88AF
:104C98009A87FB68BA681A63FB687A88DA86FB68C1
:104CA8007A889A86FB6800221A64FB6800225A6494
:104CB800FB681B681B6803F04003402B07D0FB68A8
:104CC8001B681A68FB681B6842F040021A60FB68A0
:104CD800DB68B3F5006F78D1FB685B68002B02D006
:104CE8007B8B012B66D1FB681B6B1A88FB681B68E2
:104CF800DA60FB681B6B9A1CFB681A63FB68DB8E27
:104D08009BB2013B9AB2FB68DA8653E0FB681B68EA
:104D18009B6803F00203022B1BD1FB68DB8E9BB25E
:104D2800002B16D0FB6A012B13D1FB681B6B1A886A
:104D3800FB681B68DA60FB681B6B9A1CFB681A63CC
:104D4800FB68DB8E9BB2013B9AB2FB68DA860023D4
:104D5800FB62FB681B689B6803F00103012B19D1F8
:104D6800FB68DB8F9BB2002B14D0FB681B68DA68EA
:104D7800FB689B6B92B21A80FB689B6B9A1CFB6862
:104D88009A63FB68DB8F9BB2013B9AB2FB68DA87B8
:104D98000123FB62FDF7E2FB02467B6AD31ABA6B7A
:104DA8009A4207D8BB6BB3F1FF3F03D0032387F8C0
:104DB8002B30A7E0FB68DB8E9BB2002BA6D1FB68EB
:104DC800DB8F9BB2002BA1D17CE0FB685B68002BDA
:104DD80002D07B8B012B6BD1FB681A6BFB681B68BD
:104DE8000C3312781A70FB681B6B5A1CFB681A6329
:104DF800FB68DB8E9BB2013B9AB2FB68DA8657E010
:104E0800FB681B689B6803F00203022B1CD1FB683C
:104E1800DB8E9BB2002B17D0FB6A012B14D1FB68E9
:104E28001A6BFB681B680C3312781A70FB681B6BD3
:104E38005A1CFB681A63FB68DB8E9BB2013B9AB273
:104E4800FB68DA860023FB62FB681B689B6803F03B
:104E58000103012B19D1FB68DB8F9BB2002B14D007
:104E6800FB681B68DA68FB689B6BD2B21A70FB6838
:104E78009B6B5A1CFB689A63FB68DB8F9BB2013BF8
:104E88009AB2FB68DA870123FB62FDF767FB0246EB
:104E98007B6AD31ABA6B9A4203D8BB6BB3F1FF3F54
:104EA80002D1BB6B002B03D1032387F82B3029E0F9
:104EB800FB68DB8E9BB2002BA2D1FB68DB8F9BB219
:104EC800002B9DD17A6AB96BF86800F017F9034690
:104ED800002B06D0012387F82B30FB6820225A6567
:104EE80010E0FB689B68002B0BD100237B61FB68FB
:104EF8001B68DB687B61FB681B689B687B617B695F
:104F080000E000BFFB68012283F85120FB68002203
:104F180083F8502097F82B3018463037BD4680BDAF
:104F280080B588B000AFF860B9603B601346FB718C
:104F3800FDF714FB0246BB6A9B1A3A681344FB61EF
:104F4800FDF70CFBB861394B1B685B011B0DFA6957
:104F580002FB03F37B6154E03B68B3F1FF3F50D0A1
:104F6800FDF7FCFA0246BB69D31AFA699A4202D9DC
:104F7800FB69002B3DD1FB681B685A68FB681B68FE
:104F880022F0E0025A60FB685B68B3F5827F11D1BA
:104F9800FB689B68B3F5004F04D0FB689B68B3F5CA
:104FA800806F07D1FB681B681A68FB681B6822F0D2
:104FB80040021A60FB689B6AB3F5005F0FD1FB687B
:104FC8001B681A68FB681B6822F400521A60FB68A9
:104FD8001B681A68FB681B6842F400521A60FB6879
:104FE800012283F85120FB68002283F85020032314
:104FF80017E07B69002B01D10023FB617B69013B32
:105008007B61FB681B689A68BB681340BA689A4260
:105018000CBF01230023DBB21A46FB799A429BD1CD
:10502800002318462037BD4680BD00BF0800002079
:1050380080B586B002AFF860B9607A60FB685B68DB
:10504800B3F5827F11D1FB689B68B3F5004F04D09C
:10505800FB689B68B3F5806F07D1FB681B681A680B
:10506800FB681B6822F040021A60FB685B68B3F5B6
:10507800827F2AD1FB689B68B3F5806F12D07B686A
:105088000093BB6800228021F868FFF749FF0346B8
:10509800002B2DD0FB685B6D43F02002FB685A653E
:1050A800032326E07B680093BB6800220121F8688F
:1050B800FFF736FF0346002B1AD0FB685B6D43F001
:1050C8002002FB685A65032313E07B680093BB68E2
:1050D80000220121F868FFF723FF0346002B07D0C1
:1050E800FB685B6D43F02002FB685A65032300E010
:1050F800002318461037BD4680BD000080B588B033
:1051080002AFF860B9607A601B4B1B681B4AA2FBB0
:1051180003235B0D4FF47A7202FB03F37B61FB6898
:105128005B68B3F5827F12D17B680093BB6800226D
:105138008021F868FFF7F4FE0346002B16D0FB68C1
:105148005B6D43F02002FB685A6503230FE07B691F
:10515800002B0AD07B69013B7B61FB681B689B685D
:1051680003F08003802BF2D000E000BF0023184634
:105178001837BD4680BD00BF08000020819F5E161D
:1051880080B584B000AFF860B9607A60FB68002B26
:1051980001D1012334E0FB6893F84930DBB2002BDE
:1051A80006D1FB68002283F84820F868FBF788FBE3
:1051B800FB681A68FB6808331946104600F0A6FC1D
:1051C800FB681868FB689B681A46B96800F0F0FC31
:1051D800FB685868FB689A68FB681B6B796800F085
:1051E80025FDFB681B68FA68926853F82210FB6873
:1051F8001B68FA68926841F0010143F82210002305
:1052080018461037BD4680BD80B582B000AF7860C3
:105218007B68002B01D1012341E07B6893F83D3086
:10522800DBB2002B06D17B68002283F83C2078682B
:10523800FDF7A0F87B68022283F83D207B681A6896
:105248007B6804331946104600F096FA7B68012201
:1052580083F846207B68012283F83E207B68012280
:1052680083F83F207B68012283F840207B68012275
:1052780083F841207B68012283F842207B68012261
:1052880083F843207B68012283F844207B6801224D
:1052980083F845207B68012283F83D2000231846C7
:1052A8000837BD4680BD000080B485B000AF786087
:1052B8007B6893F83D30DBB2012B01D001234EE02F
:1052C8007B68022283F83D207B681B68DA687B686C
:1052D8001B6842F00102DA607B681B68234A93422C
:1052E80022D07B681B68B3F1804F1DD07B681B6898
:1052F8001F4A934218D07B681B681E4A934213D0FA
:105308007B681B681C4A93420ED07B681B681B4A4B
:10531800934209D07B681B68194A934204D07B6882
:105328001B68184A934211D17B681B689B6803F07D
:105338000703FB60FB68062B10D07B681B681A68A4
:105348007B681B6842F001021A6007E07B681B68F3
:105358001A687B681B6842F001021A60002318462D
:105368001437BD465DF8047B704700BF000001405C
:105378000004004000080040000C00400004014008
:10538800004001400018004080B582B000AF78604E
:105398007B681B681B6903F00203022B22D17B6820
:1053A8001B68DB6803F00203022B1BD17B681B68B8
:1053B8006FF002021A617B6801221A777B681B680A
:1053C8009B6903F00303002B03D0786800F0B5F95C
:1053D80005E0786800F0A7F9786800F0B8F97B680C
:1053E80000221A777B681B681B6903F00403042BEF
:1053F80022D17B681B68DB6803F00403042B1BD1F4
:105408007B681B686FF004021A617B6802221A77B6
:105418007B681B689B6903F44073002B03D0786892
:1054280000F08BF905E0786800F07DF9786800F005
:105438008EF97B6800221A777B681B681B6903F06A
:105448000803082B22D17B681B68DB6803F008037C
:10545800082B1BD17B681B686FF008021A617B68F8
:1054680004221A777B681B68DB6903F00303002BAF
:1054780003D0786800F061F905E0786800F053F926
:10548800786800F064F97B6800221A777B681B68EB
:105498001B6903F01003102B22D17B681B68DB68A3
:1054A80003F01003102B1BD17B681B686FF01002F0
:1054B8001A617B6808221A777B681B68DB6903F42A
:1054C8004073002B03D0786800F037F905E078685E
:1054D80000F029F9786800F03AF97B6800221A7719
:1054E8007B681B681B6903F00103012B0ED17B68E5
:1054F8001B68DB6803F00103012B07D17B681B687D
:105508006FF001021A617868FCF7B0FD7B681B68D0
:105518001B6903F08003802B0ED17B681B68DB6856
:1055280003F08003802B07D17B681B686FF0800233
:105538001A61786800F0E0FA7B681B681B6903F061
:105548004003402B0ED17B681B68DB6803F04003E7
:10555800402B07D17B681B686FF040021A6178689E
:1055680000F0FFF87B681B681B6903F02003202B01
:105578000ED17B681B68DB6803F02003202B07D162
:105588007B681B686FF020021A61786800F0AAFA3D
:1055980000BF0837BD4680BD80B584B000AF7860D5
:1055A80039600023FB737B6893F83C30012B01D1F1
:1055B8000223B4E07B68012283F83C207B68022246
:1055C80083F83D207B681B689B68BB60BB6823F041
:1055D8007703BB60BB6823F47F43BB607B681B68B1
:1055E800BA689A603B681B68B3F5005F3ED0B3F5B4
:1055F800005F00F28780B3F5805F00F08680B3F526
:10560800805F7FD8702B1AD0702B7BD8602B50D03E
:10561800602B77D8502B3CD0502B73D8402B58D0C8
:10562800402B6FD8302B64D0302B6BD8202B60D018
:10563800202B67D8002B5CD0102B5AD062E07B68F7
:1056480018683B6899683B685A683B68DB6800F0F3
:10565800ADF97B681B689B68BB60BB6843F0770348
:10566800BB607B681B68BA689A604FE07B68186803
:105678003B6899683B685A683B68DB6800F096F9B4
:105688007B681B689A687B681B6842F480429A6052
:105698003CE07B6818683B6859683B68DB681A46D9
:1056A80000F00AF97B681B685021184600F063F97E
:1056B8002CE07B6818683B6859683B68DB681A46C9
:1056C80000F029F97B681B686021184600F053F93F
:1056D8001CE07B6818683B6859683B68DB681A46B9
:1056E80000F0EAF87B681B684021184600F043F98F
:1056F8000CE07B681A683B681B681946104600F086
:105708003AF903E00123FB7300E000BF7B68012244
:1057180083F83D207B68002283F83C20FB7B1846F9
:105728001037BD4680BD80B483B000AF786000BF3D
:105738000C37BD465DF8047B704780B483B000AF7A
:10574800786000BF0C37BD465DF8047B704780B4B5
:1057580083B000AF786000BF0C37BD465DF8047BAE
:10576800704780B483B000AF786000BF0C37BD4687
:105778005DF8047B7047000080B485B000AF7860A6
:1057880039607B681B68FB607B68404A934213D092
:105798007B68B3F1804F0FD07B683D4A93420BD0B2
:1057A8007B683C4A934207D07B683B4A934203D0CC
:1057B8007B683A4A934208D1FB6823F07003FB6088
:1057C8003B685B68FA681343FB607B682F4A934227
:1057D8002BD07B68B3F1804F27D07B682C4A93424B
:1057E80023D07B682B4A93421FD07B682A4A934276
:1057F8001BD07B68294A934217D07B68284A93427A
:1058080013D07B68274A93420FD07B68264A93427D
:105818000BD07B68254A934207D07B68244A934281
:1058280003D07B68234A934208D1FB6823F4407372
:10583800FB603B68DB68FA681343FB60FB6823F096
:1058480080023B685B691343FB607B68FA681A60F7
:105858003B689A687B68DA623B681A687B689A6278
:105868007B680A4A934203D07B680C4A934203D16F
:105878003B681A697B681A637B6801225A6100BF1A
:105888001437BD465DF8047B704700BF0000014037
:105898000004004000080040000C004000040140E3
:1058A8000040014000440140004801400018004009
:1058B800001C00400020004080B487B000AFF860B2
:1058C800B9607A60FB681B6A7B61FB681B6A23F01E
:1058D8000102FB681A62FB689B693B613B6923F024
:1058E800F0033B617B681B013A6913433B617B69A9
:1058F80023F00A037B617A69BB6813437B61FB6809
:105908003A699A61FB687A691A6200BF1C37BD461A
:105918005DF8047B704780B487B000AFF860B96069
:105928007A60FB681B6A23F01002FB681A62FB6846
:105938009B697B61FB681B6A3B617B6923F470434D
:105948007B617B681B037A6913437B613B6923F0A6
:10595800A0033B61BB681B013A6913433B61FB68C9
:105968007A699A61FB683A691A6200BF1C37BD46BA
:105978005DF8047B704780B485B000AF786039600B
:105988007B689B68FB60FB6823F07003FB603A68E8
:10599800FB68134343F00703FB607B68FA689A606F
:1059A80000BF1437BD465DF8047B704780B487B0EC
:1059B80000AFF860B9607A603B60FB689B687B6108
:1059C8007B6923F47F437B613B681A027B681A4337
:1059D800BB6813437A6913437B61FB687A699A60F1
:1059E80000BF1C37BD465DF8047B704780B485B0A6
:1059F80000AF786039607B6893F83C30012B01D1A7
:105A080002235AE07B68012283F83C207B6802224B
:105A180083F83D207B681B685B68FB607B681B68BC
:105A28009B68BB60FB6823F07003FB603B681B68E6
:105A3800FA681343FB607B681B68FA685A607B68E6
:105A48001B68214A934222D07B681B68B3F1804FC0
:105A58001DD07B681B681D4A934218D07B681B6861
:105A68001B4A934213D07B681B681A4A93420ED094
:105A78007B681B68184A934209D07B681B68174AE1
:105A8800934204D07B681B68154A93420CD1BB68CB
:105A980023F08003BB603B685B68BA681343BB6054
:105AA8007B681B68BA689A607B68012283F83D208E
:105AB8007B68002283F83C20002318461437BD4633
:105AC8005DF8047B704700BF0000014000040040FF
